:020000040800F2
:1000000080180020990100084F360008E32E0008F0
:100010004D36000871050008C13B000800000000D3
:1000200000000000000000000000000001010008C6
:10003000BD07000800000000450100083D3700082A
:10004000B3010008B3010008B3010008B3010008C0
:10005000B3010008B3010008B3010008B3010008B0
:10006000B3010008B3010008B301000875060008D9
:10007000B3010008B3010008B3010008B301000890
:10008000B3010008B3010008B3010008B301000880
:10009000B53B0008B3010008B3010008B301000834
:1000A000B3010008ED370008B3010008B3010008F0
:1000B000B3010008B3010008B3010008B301000850
:1000C000B3010008B3010008B3010008B301000840
:1000D000B3010008B3010008B3010008B301000830
:1000E000B3010008B3010008B3010008DFF80CD029
:1000F00000F0EEF800480047913D0008801800200D
:10010000224B19680868B0E8F00F80F30988BFF344
:100110006F8F4FF0000080F311884EF00D0E704786
:100120000000000006480068006880F3088862B696
:1001300061B6BFF34F8FBFF36F8F00DF00BF00BF0B
:1001400008ED00E0EFF30980BFF36F8F0F4B1A68E3
:1001500020E9F00F106008B54FF0500080F31188CF
:10016000BFF34F8FBFF36F8F04F0F4F94FF000002F
:1001700080F31188BDE8084019680868B0E8F00FFE
:1001800080F30988BFF36F8F704700BF34000020F1
:10019000EFF3058070470000064880470648004797
:1001A000FEE7FEE7FEE7FEE7FEE7FEE7FEE7FEE727
:1001B000FEE7FEE7E9370008ED00000840EA01032A
:1001C0009B0703D009E008C9121F08C0042AFAD20D
:1001D00003E011F8013B00F8013B521EF9D27047D1
:1001E000D2B201E000F8012B491EFBD27047002279
:1001F000F6E710B513460A4604461946FFF7F0FF26
:10020000204610BD96230022114600F033B820F09E
:100210000040C10DC0F3160040F400007F2901DA50
:1002200000207047962903DCC1F19601C840704751
:1002300096398840704730B50B4601460020202291
:10024000012409E021FA02F59D4205D303FA02F5E3
:10025000491B04FA02F52844151EA2F10102F1DC43
:1002600030BD0029A8BF7047401C490008BF20F0DE
:100270000100704710B4B0FA80FC00FA0CF050EAAC
:10028000010404BF10BC704749B1CCF1200421FA2D
:1002900004F411FA0CF118BF012121430843A3EB28
:1002A0000C01CB1D4FEA00614FEA102042BF002035
:1002B00010BC704700EBC35010440029A4BF10BC11
:1002C0007047401C490008BF20F0010010BC704777
:1002D000064C074D06E0E06840F0010394E8070093
:1002E00098471034AC42F6D3FFF704FF4C4900089E
:1002F0006C49000870B5044600688168C943C907A5
:1003000017D1816821F00101816001F021FB0546D0
:100310000AE000BF01F01CFB401B022804D9206842
:100320008068C043C00706D020688068C043C0070B
:10033000F0D0002070BDA06A40F01000A062E06A1A
:1003400040F00100E062012070BD10B50146406A36
:10035000826A12F0500F05D0006A026BBDE81040AF
:1003600008461047816A41F400718162016889681A
:10037000C1F3424107290CD1017B51B9816A21F4B3
:1003800080718162816AC90403D4816A41F00101EC
:10039000816200F099FB10BD10B5406A816A41F09E
:1003A00040018162C16A41F00401C16200F08EFB2C
:1003B00010BD10B5406A00F088FB10BDF8B50026EE
:1003C0000446009600688168C943C9072DD081683A
:1003D00041F001018160164816490068B0FBF1F058
:1003E00000E0401E00900028FBD101F0B1FA054664
:1003F00016E000BF01F0ACFA401B022810D92068BB
:100400008068C043C0070BD0A06A40F01000A06213
:10041000E06A40F00100E06284F824600120F8BD49
:1004200020688068C043C007E4D10020F8BD000008
:100430003000002040420F0070B5002423464E1EBD
:1004400008E000BF00EB43056D8820F813505B1CEB
:100450002C449BB2B342F5DB00EB410020F8022CA8
:100460001019B0FBF1F0FFF7CDFEFFF7D0FE80B220
:1004700070BD00000EB54FF6FF738DE80E0002460A
:100480000123A121014801F02DFB0EBD140600201F
:100490002DE9F843804600200F46054604466E4687
:1004A00000900BE008EB0400311980B200F050F826
:1004B000305DE1008840641C0544E4B2BC42F1D3E5
:1004C0002846BDE8F88300000EB54FF47A738DE836
:1004D0000E0002460123A021014801F02BFC0EBDB5
:1004E0001406002038B500236D46009304E0DC00BC
:1004F00021FA04F4EC545B1C9342F8DB2946FFF725
:10050000E3FF38BD1CB555208DF804000122694673
:10051000FF20FFF7AFFF9DF80000552815D00122FE
:1005200001A9FF20FFF7D0FF0A2001F0FDF801220A
:100530006946FF20FFF79EFF0A2001F0F5F89DF8BD
:100540000000552801D001201CBD00201CBD00006A
:100550000EB501234FF6FF72CDE900130292024659
:10056000A121024801F0BEFA0EBD000014060020D1
:10057000FEE70000174810B5174A0021C0E9001235
:10058000C1600421816008210161144914480A787E
:10059000027091F8A3214270B1F8A4218270120A6E
:1005A000C270B1F8A6210271120A4271B1F8A81105
:1005B0008171090AC1710749031F024601F1340024
:1005C00000F006FC002803D0BDE8104000F067B939
:1005D00010BD0000B8050020D6D2C1199800002037
:1005E0001400002000B58BB000200121CDE90601E8
:1005F0000590009001900290039004900E20CDE9A8
:10060000081069460B4800F047FC08B100F047F9B4
:10061000084800F045FF10B107A003F0D3FA02210B
:10062000044800F0C3FB002802D007A003F0CAFA78
:100630000BB000BDEC050020BFAAC6F443414ECA72
:10064000A7B0DC0D0A000000BFAAC6F4B9D2C6F0FC
:10065000D6D0B6CED4CAD0EDCAA7B0DC0D0A000001
:100660000348B0F8A81190F8AA0102F0F1BF000009
:1006700098000020014800F047BF000074050020EA
:1006800030B590F840500124AC40C56B6C600468F4
:1006900063604368102B036803D099600068C260F0
:1006A00030BD9A600068C16030BD000070B5134D68
:1006B0001021284601F03AF9114C202120712846DA
:1006C00001F034F9E070A915284601F02FF9A07067
:1006D00021790CA003F076FA1548C188A4F8AC1172
:1006E0000089A4F8AE0113A003F06CFAB4F8AE11BF
:1006F000BDE8704019A003F065BA0000000C01408D
:100700009800002073686966745F676565722E647F
:100710006174615F636F6C6C6563742E4C6F775F9F
:100720005370656564203D202564200D0A0000009B
:10073000A403002073686966745F676565722E4163
:100740004443315F56616C5F4275666665725B302B
:100750005D203D202564200D0A0000007368696655
:10076000745F676565722E414443315F56616C5F0B
:100770004275666665725B315D203D202564200D03
:100780000A00000070B50B4C0B4DB4F8AC21B5F865
:100790009E1105F10A0004F5D674FFF74DFEA08006
:1007A0006288B5F89E1105F1D400FFF745FEE080A0
:1007B00070BD000098000020A403002070470000D6
:1007C00005480121A0F8AA11002180F8B4110349BD
:1007D0000520A1F89E01704798000020A403002086
:1007E0001CB556208DF80000FFF78CFED0B10EA08E
:1007F00003F0E8F9012201A9F020FFF73BFE9DF884
:1008000004009DF80010884209D00DA003F0DAF929
:1008100001226946F020FFF757FE00F02DF802F0A4
:1008200027FF1CBD0DA0E3E7415432344358585F05
:10083000436865636B20206661696C210D0A0000C6
:100840004E657720626F6172642C20496E69742056
:10085000454550524F4D210D0A000000415432349D
:100860004358585F436865636B2020737563636505
:100870007373210D0A00000010B501220A21042023
:10088000FFF730FE0A2000F04FFF02220A21104637
:10089000FFF728FEBDE810400A2000F045BF72B601
:1008A000FEE700000B488178C278022301F00101C5
:1008B00003EA420211430279042303EA820211434C
:1008C00090F8A221082303EAC2021143017002A09A
:1008D00003F078B99800002073686966745F6765F3
:1008E00065722E4C6576656C203D202564200D0ACE
:1008F00000000000F8B500250446009590F824009B
:10090000012808D0012084F824002046FFF7F2FCDB
:10091000060002D053E00220F8BDA06A20F48850FF
:1009200040F00200A062022001F0B6FB26490968EF
:10093000B1FBF0F0400000E0401E00900028FBD129
:100940002046FFF73BFD2068816841F00801816087
:1009500000F0FEFF074608E000F0FAFFC01B0A287F
:1009600003D920688068000715D4206880680007D4
:10097000F2D42068816841F00401816000F0E8FF52
:10098000074612E000F0E4FFC01B0A280DD92068DA
:100990008068400709D5A06A20F0020040F01000EE
:1009A000A06284F824500120F8BD206880684007C8
:1009B000E8D4A06A20F0020040F00100A06284F8B0
:1009C00024503046F8BD000030000020F8B5002467
:1009D000009490F824202546012A12D0012280F8A4
:1009E00024204A681F23072A0DD20668776B521EFF
:1009F00002EB820293409F430B6893401F4377634F
:100A000019E00220F8BD06680D2A0AD2376BD21F02
:100A100002EB820293409F430B6893401F4337636E
:100A200009E0F76A0D3A02EB820293409F430B689C
:100A300093401F43F7620A68072306680A2A0AD30D
:100A4000F7680A3A02EB420293409F438B68934057
:100A50001F43F76008E0376902EB420293409F436F
:100A60008B6893401F4337610A68102A01D0112A0E
:100A700020D1124B02689A4217D193681B0219D4F5
:100A8000936843F4000393600968102912D10C495C
:100A90000C4A0968B1FBF2F101EB8101490000E069
:100AA000491E00910029FBD104E0816A41F0200138
:100AB0008162012480F824502046F8BD00240140C2
:100AC0003000002040420F00704770477047000020
:100AD0002DE9F0414FF0000704003D467ED0A06AAA
:100AE000002628B9E66284F82460204600F07EF8EB
:100AF0002046FFF7FFFBA16AC90600D420B1A06A17
:100B000040F01000A06269E0A16A21F4885141F030
:100B10000201A1626268E169237B0A4347EA43015B
:100B20000A43A1684FF48077B94209D0012907D060
:100B30005FF0000194F814C0BCF1010F02D00AE08C
:100B40003946F7E7F3B1A36A43F02003A362E36AEF
:100B500043F00103E3622368D3F804C02CF4694C2A
:100B60004CEA010CC3F804C021688B68DFF870C040
:100B700003EA0C0313438B60A168B9420BD001292F
:100B800009D00CE0DFF85CC0A3690CEB43330B43E6
:100B900043F40061DFE7218A0D05A5F58015216882
:100BA000CB6A23F470032B43CB62216889680E4B18
:100BB0001940914208D1E662A16A21F0020141F098
:100BC0000101A162BDE8F081A06A20F0020040F0BE
:100BD0001000A062E06A40F00100E0620120F1E74D
:100BE000FDF7E1FF00E0FFFFFE0E1FFFF0B585B04F
:100BF0000026054600960196029603960068224953
:100C000088423ED12149886940F400708861886932
:100C100000F400700490886940F0040088618869DD
:100C200000F004000490886940F008008861886939
:100C30008027032400F00800CDE900740490694681
:100C4000134800F083FD0120CDE9000469461148F6
:100C500000F07CFD114C1048C4E900068015A66028
:100C6000C4E90370800060612020A0614FF440500F
:100C7000E061204600F0F2FC08B1FFF710FE2C62A4
:100C8000656205B0F0BD0000002401400010024084
:100C900000080140000C01400800024074050020DB
:100CA0002DE9F047894604463B4900683B4F0E1D3D
:100CB0009046884201D0B84207D1306810F4702FB6
:100CC00003D001252846BDE8F08794F824000128C8
:100CD0000CD0012084F824002046FFF76FFB0500AC
:100CE0004FF0000004D084F82400EBE70220EAE78C
:100CF000A16A40F60162914341F48071A1622168CA
:100D0000B94218D1326812F4702F14D0A16A41F49C
:100D10008011A1623168490505D5A16A21F400510D
:100D200041F48051A162A16AC9040AD5E16A21F0A7
:100D30000601E16206E0A26A22F48012A26249681A
:100D4000E9E7E06284F82400216A15488862216A94
:100D50001448C862216A1448086321686FF00200D1
:100D600008602068816841F4807181602168434691
:100D70004A464C31206A00F09FFC20688168C1F32C
:100D800042410729816803D041F48011816099E7CD
:100D900041F4A001FAE700000024014000280140CE
:100DA0004B030008B30300089903000890F82020C3
:100DB000012A07D0022A05D0416A41F4802141620C
:100DC00001207047006842690A4342610020704771
:100DD000F0B590F820500468A468012D05D0022DCC
:100DE00003D0416A41F4802153E014F0406F01D1F7
:100DF000E5004BD5C4F30164022C03D9416A41F4E8
:100E0000000146E00125A5401D608D684FF4C073C8
:100E10009DB1CE6835434E6845EAC605066803EBCA
:100E20000417F5514FF4C275076805EB04150E69F8
:100E30007E51097D012905D009E00E88CD6845EA7B
:100E40004655EBE701684E5946F480764E511179CC
:100E5000D2F805504FF4C67641EA0525016806EB45
:100E600004168D511178D2F801204FF4C47541EA6F
:100E70000221026805EB04155151006803EB0411CF
:100E8000425842F0010242500020F0BD416A41F454
:100E9000001141620120F0BD10B590F820300268C9
:100EA000012B07D0022B05D0416A41F48021416219
:100EB000012010BDD2F8000240F00100C2F800028B
:100EC000087D00F01F0301209840D2F81C328343B4
:100ED000C2F81C32CB69B3B9D2F80C328343C2F8E2
:100EE0000C328C894B6864F31F434C6902EBC404D9
:100EF000C4F840320C890B6864F31F434C6902EB61
:100F0000C404C4F84432CB69012B16D1D2F80C3298
:100F10000343C2F80C320C884B6864F31F434C69DE
:100F200002EBC404C4F840320C89CB6864F31F435D
:100F30004C6902EBC404C4F844328B69002BD2F82C
:100F400004320FD053EA0003C2F804320B69002BBD
:100F5000D2F8143208D00343C2F81432096A0129C6
:100F600004D008E08343EFE78343F5E7D2F81C128F
:100F70000143C2F81C12D2F8000220F00100C2F8AE
:100F80000002002010BD704730B590F82040012CC1
:100F900005D0022C03D0416A41F480215DE0046851
:100FA000002955D02469A40754D04FF4D87405689B
:100FB00004EB01142D5915F00405956005682D59B1
:100FC0004ED0ED08556005682C5904F00204D46039
:100FD0004FF4DA74056804EB01142D5905F00F0580
:100FE000156105682D59C5F30725956105682C59CC
:100FF000240C54614FF4DC72046802EB0112A45813
:101000001C700468A458240A5C700468A458240C5A
:101010009C700468A258120EDA704FF4DE720468F5
:1010200002EB0112A4581C710468A458240A5C71D4
:101030000468A458240C9C710468A258120EDA713A
:10104000006881B1016941F020010161002030BDDB
:10105000E468A8E7416A41F400114162012030BD13
:101060006D0D1560AFE7C16841F02001C160EDE78B
:101070002DE9F05F0546006800244669D0F8049029
:101080008768D0F80CB0D0F810A0D0F81880F1071D
:1010900048D0F90714D001218160B80703D528464C
:1010A00000F02BFA0CE0780702D54FF4006407E05B
:1010B000380702D54FF4805402E0284600F01CFAAD
:1010C000F80516D529684FF480708860B80503D5F7
:1010D000284600F014FA0CE0780502D544F40054D8
:1010E00007E0380502D544F4804402E0284600F0C9
:1010F00005FAF80316D529684FF480308860B803E4
:1011000003D5284600F0FDF90CE0780302D544F43D
:10111000004407E0380302D544F4803402E0284656
:1011200000F0EEF9300707D55FEACB6004D52968F7
:10113000102044F40074C86070074FF0080707D50A
:101140005FEA0B7004D52868C760284600F05AF99A
:10115000B00706D52868C068800702D0284600F08E
:1011600053F9700607D55FEACA6004D529681020D4
:1011700044F480640861B00607D55FEA0A7004D5BC
:1011800028680761284600F087F9F00606D5286828
:101190000069800702D0284600F07FF9B00308D527
:1011A0005FEAC96005D5296810204860284600F02C
:1011B00075F9F00307D55FEA097004D52868476020
:1011C000284600F09FF9300446D55FEA497040D5C3
:1011D000F00504D55FEAC87001D044F00104B00501
:1011E00004D55FEA887001D544F00204700504D587
:1011F0005FEA487001D544F00404300529D518F0A1
:10120000700F26D008F07000402815D006DC10289A
:1012100009D020280AD0302816D10AE050280ED054
:10122000602811D10EE044F008040DE044F01004F1
:101230000AE044F0200407E044F0400404E044F0F5
:10124000800401E044F480742868816921F0700111
:101250008161296804204860002C05D0686A204319
:1012600068622846FFF78FFEBDE8F09F70B5040066
:1012700003D094F8200010B104E0012070BD204696
:1012800000F082F82068016841F00101016000F07F
:101290005FFB0546052604E000F05AFB401B0A28C8
:1012A00011D820684068C007F6D02068016821F096
:1012B0000201016000F04CFB05460BE000F048FB2A
:1012C000401B0A2806D9606A40F40030606284F846
:1012D0002060D2E7206840688007EFD4207E012894
:1012E000206801683DD021F080010160607E012806
:1012F0002068016838D021F040010160A07E0128FB
:101300002068016833D021F020010160E07E0128CF
:10131000206801682ED041F010010160207F012873
:101320002068016829D021F008010160607F012850
:101330002068016824D021F004010160D4E9020191
:101340000843D4E90412114308436168491E084365
:101350002168C86100206062012084F8200000201C
:1013600070BD41F08001C0E741F04001C5E741F0A8
:101370002001CAE721F01001CFE741F00801D4E7CE
:1013800041F00401D9E7000010B586B000210091BA
:101390000191029103910068174988422AD11748A8
:1013A000C16941F00071C161C16901F0007104912E
:1013B000816941F0040181618069114C00F00400F1
:1013C00004904FF4006000906946204600F0BEF99A
:1013D000A01400900220019003200390694620464B
:1013E00000F0B4F900220521142000F023FE14209F
:1013F00000F012FE06B010BD006400400010024074
:10140000000801407047000070B5164B164A0021D5
:10141000FFF7BAFD18B1BDE87040FFF740BA124DB2
:10142000104CA868042814D110496868C8420DD12E
:101430000F48217880F8A3116288A0F8A421012226
:1014400080F8B4210BA002F0BDFB02E00EA002F078
:10145000B9FB002001462154401C0828FBDB6960D1
:1014600070BD00001C000020D00500202E293EE6A3
:1014700098000020CBC4C7FDB1C8C0FDCFB5CAFDE0
:10148000A3BA25640D0A0000B7A2CBCDB5D8D6B754
:10149000B4EDCEF30A0000007047704770470000BB
:1014A00070B5044690F82000012804D0606A40F42A
:1014B0000020606218E0022084F8200020680168A3
:1014C00021F00101016000F043FA05460EE000BF83
:1014D00000F03EFA401B0A2808D9606A40F4003048
:1014E0006062052084F82000012070BD20684068FB
:1014F000C007EDD1606270BD70477047704770479C
:1015000070477047704700002DE9F05FC16B0C68B1
:1015100001680B68D0F840C0042202FA0CF2494D71
:10152000DFF824A1494E4A4FDFF828B1DFF828E15F
:1015300022422CD05A072AD50A68920603D40A6898
:1015400022F004020A600168A94201D1042219E0D4
:10155000514501D1402215E0B14202D14FF48062E1
:1015600010E0B94202D14FF480420BE0594502D15C
:101570004FF4802206E0714502D14FF4800201E071
:101580004FF080622F4908394A60C16A3BE04FF052
:10159000020808FA0CF818EA040F4FF000094FF09F
:1015A000010235D05FEA837832D50B689B0605D4FB
:1015B0000B6823F00A030B6080F821200168A94220
:1015C00001D1022219E0514501D1202215E0B1429A
:1015D00002D14FF4007210E0B94202D14FF4005230
:1015E0000BE0594502D14FF4003206E0714502D1BB
:1015F0004FF4001201E04FF00072124908394A60BE
:1016000080F82090816A00291AD0BDE8F05F084771
:10161000082505FA0CF5254212D01B0710D50B68DA
:1016200023F00E030B6090F84010C36B02FA01F137
:101630005960826380F8212080F82090016BE2E7F6
:10164000BDE8F09F080002401C000240300002404C
:1016500044000240580002406C00024030B528B3FC
:1016600008C8134914221944B1FBF2F18900C1637F
:1016700010498163022141771A6843F6F0718A4369
:10168000D0E900142143D0E902452C4321430469E9
:101690002143446921438469214311431960002196
:1016A0004163012242770177084630BD012030BDF9
:1016B000F8FFFDBF0000024070B5044690F820001E
:1016C000002501280CD0012084F8200094F8216026
:1016D0000020012E06D084F820000225284670BD87
:1016E000022070BD022684F82160A063206806688D
:1016F00026F0010606602046FEF7C2FFE06A0028D9
:101700002068016802D041F00E0106E021F00401DA
:1017100001602068016841F00A01016020680168E9
:1017200041F001010160D9E770B5044600F010F9FD
:101730000546601C02D004480078044400F008F913
:10174000401BA042FAD370BD240000202DE9F84FC1
:10175000DFF8B891002409F1040A0AF1040B2346CA
:101760000F270BF1040EC9E00125A5402A40AA422B
:101770007DD1674ED1F804C0ACEB0608B44532D039
:1017800014DCBCF1030F3AD009DCBCF1000F2AD005
:10179000BCF1010F1CD0BCF1020F31D11DE0BCF136
:1017A000110F17D0BCF1120F2AD119E0B8F5881F1C
:1017B00019D006DCB8F5803F15D0B8F5801F1FD1D1
:1017C00011E0B8F5001F0ED0B8F5041F18D10AE0DB
:1017D000CB6815E0CB681B1D12E0CB6808330FE027
:1017E000CB680C330CE08B682BB1012B4FF0080356
:1017F00003D0456104E0042302E0056100E000231A
:10180000FF2A01D8064601E000F104064FEA8405EC
:1018100001D9A5F12005D6F8008007FA05FC28EAD1
:101820000C0803FA05F548EA0508C6F800804D687B
:10183000ED0062D5374DAE6946F00106AE61AD6987
:1018400024F0030605F001050095334D06EB050C69
:10185000DCF80850A607360F07FA06F825EA08054F
:10186000DFF8B880404503D14FF0000817E044E0AE
:10187000DFF8AC80404502D14FF001080FE0DFF8FF
:10188000A480404502D14FF0020808E0DFF89880BC
:10189000404502D14FF0030801E04FF0040808FA78
:1018A00006F848EA0508CCF808804D68D9F80060C9
:1018B000ED034D4601D5164300E096432E604D687A
:1018C000DAF80060AD03554601D5164300E09643B3
:1018D0002E604D68DBF80060ED025D4601D51643D1
:1018E00000E096432E604D68DEF80060AD0275465C
:1018F00001D5164300E096432E60641C0D682A460D
:10190000E5407FF431AFBDE8F88F000000040140EE
:1019100000001110001002400000014000080140CA
:10192000000C014000100140001401408068084094
:1019300000D001207047C26821EA02030A4043EA4E
:101940000241016170470AB1016170470904FBE778
:1019500001488068704700002400002070B5040032
:1019600025D094F83D00002520B984F83C5020464D
:1019700000F078FA242084F83D002068016821F006
:10198000010101602068016841F4004101602068A4
:10199000016821F40041016000F00EFD4D4A6168CC
:1019A000914201D84C4900E04C49884201D20120C3
:1019B00070BD4B492368B0FBF1F15E6826F03F062D
:1019C0000E435E606368934206D94FF496735943A1
:1019D0004FF47A73B1FBF3F12368491C1E6A26F0B9
:1019E0003F06314319626168914210D84900401E98
:1019F000B0FBF1F2521CC2F30B02042A01D2042004
:101A000022E0B0FBF1F0401CC0F30B001CE0A26828
:101A1000F2B301EBC10303EB0116431EB3FBF6F374
:101A20005B1C43F480431B0549D092B301EBC10218
:101A300002EB0111401EB0FBF1F0401CC0F30B00A3
:101A400040F4804040F400402168CA694CF6FF73BE
:101A50009A431043C861D4E9071001432068026823
:101A600022F0C00211430160D4E903010143206860
:101A7000826848F2FF339A4311438160D4E905013B
:101A800008432168CA6822F0FF021043C86001E0E1
:101A90000EE016E02068016841F001010160256454
:101AA000202084F83D00256384F83E50002070BD5E
:101AB00001EB4106431EB3FBF6F35B1CB3E70120C9
:101AC000C2E701EB4101401EB0FBF1F0401CC0F346
:101AD0000B00B7E7A086010080841E0000093D00CE
:101AE00040420F002DE9FF4F83B00025DDE910795A
:101AF0009A4693460446DDF848800095FFF728FF94
:101B0000064694F83D0020287CD1192301228549FE
:101B10002046009601F0F6FA0028F5D194F83C0032
:101B200001286FD0012084F83C0020680168C907B3
:101B300003D1016841F0010101602068016821F4CE
:101B400000610160222084F83D00402084F83E00BE
:101B500025646762A4F82A90608D20857248E0624F
:101B6000CDE9008653465A462046049901F0D2F941
:101B700000287DD1208DDFF8B491202768B101289D
:101B800014D00228206801681ED041F480610160F1
:101B90002068416980690090B6E0206841698169E8
:101BA0000091016841F400710160ADE020680168B6
:101BB00021F48061016072B62068416981690091F9
:101BC000016841F400710AE041F40061016072B6FD
:101BD0002068416981690091016821F48061016098
:101BE00062B691E0032868D801280CD00228434649
:101BF0004FF000024946204600960FD001F082FACD
:101C0000B0BB10E08BE032464146204601F0F9FAC5
:101C100070BB20680069616A08706CE001F072FABC
:101C200030BB72B634E02068016821F48061016045
:101C300072B620680069616A0870606A401C606260
:101C4000208D401E2085608D401E6085384846F2FC
:101C5000A8110068B0FBF1F0C0EBC00000EB800001
:101C60000090401E009008D020684069C04300E00A
:101C700029E040070CD50098F3E744F8305F67731C
:101C8000A573206940F02000206162B625731AE038
:101C90002068016841F40071016020680069616A90
:101CA0000870606A401C6062218D491E2185618D2B
:101CB000491E618562B621681BE0324641462046D6
:101CC00001F09FFA18B1012007B0BDE8F08F20683D
:101CD0000069616A0870606A401C6062218D491E5B
:101CE0002185618D491E618521684A69D243520769
:101CF0000AD409690170606A401C6062208D401E30
:101D00002085608D401E6085208D00287FF46AAF9D
:101D100084F83D7084F83E5084F83C50D4E70220AB
:101D2000D2E70000020010000000FFFF04000100E5
:101D3000300000202DE9FF4F83B09A46DDE911976E
:101D400093460446DDF84080FFF702FE054694F80E
:101D50003D0020287FD119230122404920460095CB
:101D600001F0D0F9002876D194F83C00012872D017
:101D7000012084F83C0020680168C90703D101688C
:101D800041F0010101602068016821F400610160F7
:101D9000212084F83D00402084F83E00002626647F
:101DA000C4F82480A4F82A90608D20852C48E06235
:101DB000CDE9007553465A462046049901F028F9AA
:101DC00070B930E02A463946204601F04DFA58B144
:101DD000206C042804D12068016841F4007101607E
:101DE000012007B0BDE8F08F606A216800780861C3
:101DF000606A401C6062218D491E89B22185628D16
:101E0000521E628522685369DB435B070BD469B1BC
:101E100000781061606A401C6062208D401E208541
:101E2000608D401E6085208D0028CBD12A46394622
:101E3000204601F041F90028CAD154F83D0B016851
:101E400041F400710160202004F81E09E6776677EE
:101E50000020C6E7FFE70220C3E7000002001000F1
:101E60000000FFFF10B586B00021009101910291A2
:101E7000039100680F4988421AD10F4CA06940F0C5
:101E80000800A061A069694600F008000490C02025
:101E9000009012200190032003900848FFF756FCA1
:101EA000E06940F40010E061E06900F40010049083
:101EB00006B010BD0054004000100240000C01406C
:101EC00070B5040011D021684CF6CC400860216840
:101ED00045F255500860D4E9000141602168A068CE
:101EE0008860FFF735FD05460DE0012070BD00BF9D
:101EF000FFF72EFD401B272805D92068C068800702
:101F000001D0032070BD2068C0688007F0D121682F
:101F10004AF6AA200860002070BD00684AF6AA218F
:101F20000160002070470000024881680278114477
:101F30008160704724000020074810B5016841F017
:101F400010010160032000F095F80F2000F006F862
:101F500000F03EF8002010BD0020024000B5014610
:101F600087B00022192000F065F8192000F054F81D
:101F70001348816941F400618161806905A900F419
:101F800000600690684600F0F7F900F025FA0D4968
:101F90000D4AB0FBF1F10D48491E0260416040F26C
:101FA000E7320021C0E90321816000F021FC10B17B
:101FB000012007B000BD054800F066FCF9E700000D
:101FC0000010024040420F00002C01404807002052
:101FD0000F4808B5816941F001018161816901F013
:101FE00001010091C16941F08051C161C0690022C5
:101FF00000F0805000900F21901E00F01BF8054863
:10200000416821F0E06141F00071416008BD0000CD
:102010000010024000000140002809DB00F01F0210
:10202000012191404009800000F1E020C0F800113A
:1020300070470000F0B40E4B1B680C46C3F302233C
:10204000C3F10705042D00D90425191D072901D264
:10205000002300E0DB1E012606FA05F1491E21409F
:1020600099409E40761E16403143F0BC01F0BABD47
:102070000CED00E0064900F0070208684FF6FF0388
:10208000184040EA0220034A1043086070470000ED
:102090000CED00E00000FA0510B529A401461DCCA6
:1020A00086B08DE81D002AA02A4C0068049000200C
:1020B000012923D002293AD010291DD16168226854
:1020C000D20119D5C1F38342C9031DF8020009D515
:1020D000616804AAC1F34041515C1F4AB2FBF1F1AF
:1020E000484301E01D4948436168490204D4400067
:1020F0005FF00301B0FBF1F006B010BD226AC2F33D
:102100000121012903D1920701D5C803F4E702296F
:1021100005D1626A920702D549F64040ECE70329EF
:10212000EAD121688903E7D54FF22440E4E700F0C3
:1021300053F96168C1F38131491C4900DAE70000B5
:1021400002030405060708090A0B0C0D0E0F1010F8
:10215000010200000010024000127A0000093D0058
:102160002DE9F84305460078354CC00754D0E069A6
:102170000026C00008D4E06940F08050E061E069CA
:10218000012600F0805000902E480168C90512D445
:102190000168804641F480710160FFF7D9FB074672
:1021A00005E000BFFFF7D4FBC01B642823D8D8F894
:1021B0000000C005F6D5206A10F4407021D0A9882F
:1021C00001F4407181421CD0206A1F49012220F491
:1021D00040700A6000220A602062C00711D0FFF739
:1021E000B7FB074641F2883808E000BFFFF7B0FBB5
:1021F000C11B414502D90320BDE8F883206A80074E
:10220000F4D5206A696820F44070084320621EB14A
:10221000E06920F08050E0612878800705D560688B
:10222000A96820F44040084360602878C00605D5BE
:102230006068E96820F48000084360600020DBE704
:102240000010024000700040400442422DE9F04777
:102250000F46050061D0434E306800F00700B842D9
:1022600009D2306820F0070038433060306800F051
:102270000700B84251D128683B4C810712D540076E
:1022800003D5606840F4E06060602878000703D5FB
:10229000606840F4605060606068A96820F0F000F9
:1022A000084360602878C00728D06868012810D0EB
:1022B0002168022810D0890700292EDA616821F0F0
:1022C000030101436160FFF743FB804641F2883917
:1022D0000DE021688903EFE78901EDE7FFF738FB9F
:1022E000A0EB0801494502D90320BDE8F0876068EA
:1022F000696800F00C00B0EB810FEFD1306800F09E
:102300000700B8420BD9306820F00700384330602E
:10231000306800F00700B84201D00120E5E72878D6
:10232000400705D56068E96820F4E0600843606014
:102330002878000706D56068296920F4605040EAD3
:10234000C100606000F058F86168084AC1F30311E9
:10235000515CC8400649086006480068FFF7FEFD6A
:102360000020C2E70020024000100240044900089B
:1023700030000020280000200F2202600C4A536821
:1023800003F003034360536803F0F0038360536872
:1023900003F4E063C36052684FF4E06303EAD202DF
:1023A00002610448006800F0070008607047000000
:1023B00000100240002002400448054900684968B6
:1023C000044AC1F30221515CC8407047300000202C
:1023D0000010024014490008044805490068496893
:1023E000044AC1F3C221515CC8407047300000204C
:1023F000001002401449000812A185B00FC98DE8F1
:102400000F0014A0144A006804905168134801F0AA
:102410000C03042B10D0082B0ED1C1F38343C90346
:102420001DF803000AD5516804AAC1F34041515C6C
:102430000A4A5043B0FBF1F005B0704708494843E1
:10244000FAE7000002030405060708090A0B0C0D51
:102450000E0F1010010200000010024000127A005E
:1024600000093D002DE9F84F040070D02078C04DE0
:10247000C00749D06868C0F38100012807D06868A8
:10248000C0F38100022809D16868C00306D5286816
:10249000800339D560680028E7D035E06068B0F582
:1024A000803F0BD010B1B0F5A02F11D0286820F4D8
:1024B00080302860286820F4802002E0286840F4FA
:1024C00080302860606890B1FFF742FA06460AE063
:1024D000286840F480202860F0E700BFFFF738FA52
:1024E000801B642873D828688003F7D50CE0FFF7B9
:1024F0002FFA064605E000BFFFF72AFA801B642882
:10250000F0D828688003F7D420789A4E80074FF0DF
:1025100001094FF0000839D5686810F00C0F07D09A
:102520006868C0F38100022809D16868C00306D436
:102530002868800714D52069012808D110E0206997
:10254000B0B1C6F80090FFF703FA074605E00AE1CC
:10255000FFF7FEF9C01B0228C4D828688007F7D50A
:102560002868616920F0F80040EAC10028600DE0A9
:10257000C6F80080FFF7ECF9074604E0FFF7E8F93A
:10258000C01B022823D828688007F7D420780007CA
:102590002CD57948A169D9B1C0F80090FFF7D8F9D6
:1025A000074604E0FFF7D4F9C01B02280FD8686A79
:1025B0008007F7D571484FF4FA510068B0FBF1F08D
:1025C000009000BF0098411E0091FAD20EE080E01A
:1025D000C0F80080FFF7BCF9074604E0FFF7B8F940
:1025E000C01B022875D8686A8007F7D42078400796
:1025F00060D5E8690027C00008D4E86940F0805041
:10260000E861E869012700F0805000905C480168AB
:10261000C90513D40168834641F480710160FFF756
:1026200097F9824606E000BFFFF792F9A0EB0A0097
:1026300064284ED8DBF80000C005F5D5E068012815
:102640000AD008B1052813D0286A20F001002862BA
:10265000286A20F0040002E0286A40F001002862A5
:10266000E06841F2883B98B1FFF772F982460BE0CF
:10267000286A40F004002862EEE700BFFFF768F91F
:10268000A0EB0A0159455AD8286A8007F6D50CE014
:10269000FFF75EF9824605E0FFF75AF9A0EB0A0161
:1026A00059454CD8286A8007F6D41FB1E86920F054
:1026B0008050E861E06988B36968C1F3810102294B
:1026C00044D00228C6F8608004D0FFF741F90446E0
:1026D00038E034E0FFF73CF9074604E0FFF738F94B
:1026E000C01B02282BD828688001F7D4206AB0F5D7
:1026F000803F05D16868A16820F400300843686015
:10270000D4E908010843696821F47411084368603A
:10271000C6F86090FFF71CF9044606E025E000BF0C
:10272000FFF716F9001B022809D828688001F7D5A1
:102730001BE000BFFFF70CF9001B022802D90320A1
:10274000BDE8F88F28688001F4D40EE00128F7D0A6
:102750006868226A00F48031914204D1616A00F411
:102760007010884201D00120EAE70020E8E700006D
:10277000001002400000424280044242300000202B
:10278000007000407047704770B590F83C20012AF7
:1027900026D0012480F83C40022280F83D200368C6
:1027A0005A689D6822F070060A6832435A600D4BE1
:1027B00002689A4208D0B2F1804F05D00A4B9A4283
:1027C00002D00A4B9A4204D1496825F0800319438C
:1027D000916080F83D40002180F83C10084670BDB3
:1027E000022070BD002C01400004004000080040A1
:1027F00010B5040003D094F83D0010B107E00120AB
:1028000010BD002084F83C00204600F01FF8022094
:1028100084F83D00211D206800F0EEFF012084F8BF
:10282000460084F83E0084F83F0084F8400084F8B5
:10283000410084F8420084F8430084F8440084F89E
:10284000450084F83D00002010BD000008B5016877
:102850000B48B1F1804F0BD00A4A914207D1C169B0
:1028600041F00201C161C06900F00200009008BDA2
:10287000C16941F00101C161C06900F00100F5E7E3
:10288000001002400004004090F83D10012901D0E2
:1028900001207047022180F83D100168CA6842F0AB
:1028A0000102CA6000680B49884208D0B0F1804F2D
:1028B00005D00949884202D00849884204D181687C
:1028C00001F00701062903D0016841F00101016010
:1028D00000207047002C0140000400400008004028
:1028E00070B5044690F83C00012817D0012584F803
:1028F0003C50022084F83D002068826822F0770274
:1029000022F47F4282600868502830D00DDC2028F5
:102910004DD005DC98B310283BD148E0022070BDB3
:10292000302844D0402834D139E0602828D070289D
:1029300006D0B0F5805F2CD0B0F5005F29D10AE059
:10294000CB68D1E90121206800F099FF20688168F7
:1029500041F0770109E0CB68D1E90121206800F05E
:102960008EFF2068816841F48041816011E0CA686F
:102970004968206801F038F85021206807E016E027
:10298000CA684968206801F040F86021206800F0BA
:1029900080FF84F83D50002084F83C0070BDCA6878
:1029A0004968206801F020F840212068EFE722689C
:1029B00001461046EBE7704770B5044600680169B0
:1029C0004FF00005C943890715D4C168C943890779
:1029D00011D4E91E016101202077206880698007F9
:1029E000204602D0FFF7E7FF04E000F0CBF82046D6
:1029F00000F05AF9257720680169C943490717D4BF
:102A0000C168C943490713D46FF004010161022072
:102A100020772068806910F4407F204602D0FFF7BD
:102A2000CAFF04E000F0AEF8204600F03DF925773B
:102A300020680169C943090716D4C168C943090759
:102A400012D46FF008010161042020772068C0696A
:102A50008007204602D0FFF7AEFF04E000F092F8B6
:102A6000204600F021F9257720680169C943C9068D
:102A700017D4C168C943C90613D46FF010010161AE
:102A8000082020772068C06910F4407F204602D0DB
:102A9000FFF791FF04E000F075F8204600F004F91C
:102AA000257720680169C943C90708D1C168C943AE
:102AB000C90704D1891E0161204600F045F920684C
:102AC0000169C943090609D4C168C943090605D487
:102AD0006FF0800101612046FFF754FE2068016914
:102AE000C943490609D4C168C943490605D46FF0F2
:102AF00040010161204600F031F920680169C943B5
:102B000089060BD4C168C943890607D46FF0200138
:102B100001612046BDE87040FFF735BE70BD000082
:102B200010B586B0002100910191029103910368D4
:102B3000114902221148B3F1804F13D0104CA34227
:102B40000ED18B6943F004038B61896901F00401A4
:102B500004914021CDE9001269460392FEF7F6FD8B
:102B600006B010BD8B6943F004038B61896901F0E5
:102B7000040104910821EDE7001002400008014023
:102B800000040040704770B5044690F83C000D46C4
:102B900001280AD0012084F83C0042B1042A18D050
:102BA000082A2AD00C2A4DD139E0022070BD2068B5
:102BB00000F078FE2068816941F008018161206899
:102BC000816921F004018161206881692A691143CA
:102BD00011E0206800F08EFE2068816941F40061F8
:102BE00081612068816921F4806181612068816947
:102BF0002A6941EA0221816124E0206800F0A6FEF2
:102C00002068C16941F00801C1612068C16921F0F3
:102C10000401C1612068C1692A69114311E020687B
:102C200000F0C0FE2068C16941F40061C161206804
:102C3000C16921F48061C1612068C1692A6941EAE2
:102C40000221C161002084F83C0070BD10B5040071
:102C500003D094F83D0010B107E0012010BD002022
:102C600084F83C00204600F01EF8022084F83D0065
:102C7000211D206800F0C0FD012084F8460084F882
:102C80003E0084F83F0084F8400084F8410084F856
:102C9000420084F8430084F8440084F8450084F836
:102CA0003D00002010BD70477047000010B504467D
:102CB000022249B104290ED0082913D094F841000A
:102CC000012816D0012010BD94F83E000128F9D14A
:102CD00084F83E200FE094F83F000128F2D184F8F8
:102CE0003F2008E094F840000128EBD184F8402010
:102CF00001E084F841200122206800F0B3FD0F4973
:102D00002068884203D1426C42F400424264206849
:102D1000884208D0B0F1804F05D00949884202D0DE
:102D20000849884204D1816801F00701062903D0CF
:102D3000016841F001010160002010BD002C01403C
:102D4000000400400008004000680349884201D1A7
:102D5000FFF7EAB870470000002C0140704770B5DB
:102D6000040004D094F83D00002510B106E00120D5
:102D700070BD84F83C50204600F022F8242084F8EE
:102D80003D002068C16821F40051C160204600F078
:102D900083FE2068016921F4904101612068416946
:102DA00021F02A0141612068C16841F40051C160ED
:102DB0002564202084F83D0084F83E00002070BD8A
:102DC00030B585B000240094019402940394006807
:102DD0001449884224D11448816941F480418161B9
:102DE000816901F480410491816941F004018161AC
:102DF00080690E4D00F0040004904FF400700090C4
:102E0000022001900320039069462846FEF79EFCAD
:102E10002815CDE90004694628460294FEF796FC81
:102E200005B030BD003801400010024000080140EC
:102E30002DE9F843044690F83D001F4616460D461E
:102E400020284CD1C5B1BEB194F83C00012846D031
:102E5000012084F83C004FF00008C4F84080212095
:102E600084F83D00FEF774FDA6848146E684A068E0
:102E7000B0F5805F03D004E00120BDE8F88320694D
:102E800028B12E465FF0000584F83C800EE0002655
:102E9000FAE78021204600F05BFEA0B9AEB116F83B
:102EA000010B21684860E08C401EE084E08C4B46BA
:102EB0004FF0000200970028EBD14FF04001204670
:102EC00000F046FE30B10320D7E735F8020BC0F31F
:102ED0000800E6E7202084F83D000020CDE702202E
:102EE000CBE7FEE701684A69D24352050FD46FF47D
:102EF00080624A61002140F8301F202242738173B2
:102F0000026942F00402026101730120704700204F
:102F1000704700002DE9F84F0446006889460B9D74
:102F200001689846174641F4806101602068016895
:102F300041F48071016000954FF0011B0022594659
:102F400020460A9B00F0DEF84FF4007A40B120687A
:102F50000068C00501D5C4F840A00320BDE8F88F83
:102F6000216809F0FE0008612B46284920460A9A8C
:102F700000F0FCF8F0BB20684169806900902A46A7
:102F800020460A9900F070F940B1206C04283AD12B
:102F90002068016841F40071016034E0FEB2B8F1CC
:102FA000010F09D02168380A08612A4620460A998B
:102FB00000F05AF90028E8D1206806612A46204628
:102FC0000A9900F051F90028DFD12068016841F426
:102FD0008071016000950022594620460A9B00F04E
:102FE00091F80028B3D1216809F0FF0040F00100FA
:102FF000086100E007E02B46044920460A9A00F0E9
:10300000B5F80028AAD00120A8E7000002000100BE
:103010002DE9F843044600680D46DDE9089701688C
:103020009846164641F4807101604B4600224FF0ED
:1030300001112046009700F065F848B1206800684B
:10304000C00502D54FF4007020640320BDE8F8836A
:10305000216805F0FE0008613B464A4615492046B6
:1030600000F084F888B920684169806900903A4688
:103070004946204600F0F8F848B1206C042804D1F5
:103080002068016841F4007101600120DEE7F5B2BB
:10309000B8F1010F09D02168300A08613A46494663
:1030A000204600F0E1F80028E7D120680561002003
:1030B000CCE700000200010070B516460D4604463C
:1030C0000DE02046FFF70EFF08B1012070BD681C1F
:1030D00005D0FEF73DFC801BA84207D835B120681B
:1030E0004069C0434007ECD4002070BD002044F884
:1030F000300F20216173A073216941F0200121610B
:103100002073E2E72DE9F0471E4690460D4604463F
:10311000C1F30747DDF8209008E0701C06D0FEF7E9
:1031200017FCA0EB0900B0420FD876B12068012F40
:1031300018D0806925EA00000004000C14D000219A
:103140004145EAD00020BDE8F087002044F8300F68
:1031500020216173A073216941F020012161207356
:103160000120F0E74069E5E70121E9E72DE9F047B3
:103170009A4691460E46044600254FF02008C1F3BA
:10318000074725E020684069C043400514D4206803
:10319000016841F40071016021686FF4806048614A
:1031A000256384F83D8084F83E50206C40F0040094
:1031B000206484F83C501FE0B9F1FF3F08D0FEF7CF
:1031C000C7FBA0EB0A0149450CD8B9F1000F09D0A3
:1031D0002068012F13D0806926EA00000004000C4B
:1031E0000BD0CFE744F8305F84F80D80A5732069D9
:1031F00040F02000206125730120BDE8F087406980
:10320000EAE72DE9F041002590460E4604462027C6
:1032100017E04069C043C0060CD454F8301B6FF06F
:103220001000486144F810596777A577206A20623A
:10323000257717E0FEF78CFBA0EB0800B04208D81A
:103240003EB120684169C9434906E2D40020BDE887
:10325000F08144F8305F6773A573206940F0200067
:10326000206125730120F2E770B516460D4604462D
:103270000DE02046FFF736FE08B1012070BD681C46
:1032800005D0FEF765FB801BA84207D835B1206842
:103290004069C0430006ECD4002070BD002044F813
:1032A000300F20216173A073216941F02001216159
:1032B0002073E2E73EB50021174800910191154ABD
:1032C0000291026092158260012404730175022547
:1032D0004FF460220561C2614160FDF7F9FB08B15E
:1032E000FDF7DDFA0820CDE90004052002906946CB
:1032F0000948FDF76BFB08B1FDF7D1FA0720CDE9CE
:10330000000569460448FDF761FB002801D0FDF780
:10331000C6FA3EBD00240140440500200F4810B508
:103320000D4901601221416000214FF4003281609B
:10333000C0E903124FF44012426101764176817672
:10334000C17601774177FDF791FF002803D0BDE8F2
:103350001040FDF7A4BA10BD00640040EC05002049
:10336000094808B5416941F0010141614069002205
:1033700000F00100009005210B20FEF75BFEBDE888
:1033800008400B20FEF748BE0010024010B59CB06C
:103390001C2216496846FCF711FF0021684600F020
:1033A00067FD134C11491C2220601C3107A8FCF753
:1033B00005FF002107A800F05BFD0C4960601C229E
:1033C00038310EA8FCF7FAFE00210EA800F050FDDF
:1033D0000649A0601C22543115A8FCF7EFFE00211D
:1033E00015A800F045FDE0601CB010BD9448000831
:1033F0000000002070B586B000241D4800940194A0
:1034000002940394816941F020018161816901F096
:1034100020010491816941F004018161816901F019
:1034200004010491816941F0080181618069114EB4
:1034300000F0080043F208050490002229463046B7
:10344000FEF781FA01200095CDE9010402200390E6
:1034500069463046FEF77AF94FF44C70CDE9000426
:10346000694630460294FEF771F906B070BD00005F
:1034700000100240000C01400D4810B50B490160DE
:103480000C49416000214FF480428160C0E9031281
:1034900041618161C1610162FEF760FA002803D0D9
:1034A000BDE81040FDF7FBB910BD0000005400401E
:1034B00014060020A0860100094810B507490160E4
:1034C0000421416040F6FF718160FEF7F9FC00289D
:1034D00003D0BDE81040FDF7E2B910BD0030004058
:1034E0006806002010B58EB0002407940894099453
:1034F0000A940B941C2168460C94FCF778FE1E4835
:103500004FF0804101604721C0E9011440F2E731EA
:10351000C0E903148461FFF76BF908B1FDF7BFF947
:103520004FF48050079007A91348FFF7D9F908B165
:10353000FDF7B5F91048FFF789FB08B1FDF7AFF9C2
:103540000B940BA90C480C94FFF71EF908B1FDF77A
:10355000A6F96020CDE9000402940C2269460648D1
:103560000494FFF710FB08B1FDF799F90248FFF743
:10357000D7FA0EB010BD00007406002010B58EB052
:1035800000240794089409940A940B941C2168461B
:103590000C94FCF72CFE1E481C4901604721C0E931
:1035A00001144FF47A71C0E903148461FFF720F924
:1035B00008B1FDF774F94FF48050079007A914483B
:1035C000FFF78EF908B1FDF76AF91148FFF73EFBE6
:1035D00008B1FDF764F90B940BA90D480C94FFF7A3
:1035E000D3F808B1FDF75BF96020CDE9000402943F
:1035F0000022694606480494FFF7C5FA08B1FDF7B2
:103600004EF90348FFF78CFA0EB010BD00040040DD
:10361000BC0600200C4810B50A4901604FF4E131A6
:103620004160002181600C22C160C0E90412816107
:10363000C161FFF794FB002803D0BDE81040FDF7FF
:103640002EB910BD0038014004070020FEE7FEE758
:10365000012805D0022802D1034800684163704761
:103660000248006801647047BC0600207406002010
:1036700010B502210846FCF70BFF084CA4F8A40182
:103680000A20FEF751F801210420FCF701FF84F81D
:10369000A301BDE810400A20FEF746B898000020BC
:1036A0000025134C94F8B40101281DD10222B4F86E
:1036B000A4111046FCF716FF0A2000F0CDFB94F889
:1036C000A31101220420FCF70DFF0A2000F0C4FB27
:1036D000B4F8A41107A000F075FA94F8A3110EA095
:1036E00000F070FA84F8B451C82000F0B5FBD9E7B7
:1036F0009800002073686966745F676565722E4381
:103700006F6E746F6C5F5072657373757265203D78
:10371000202564200D0A000073686966745F676580
:1037200065722E50726F706F7274696F6E5F566142
:103730006C7565203D202564200D0A0010B55020D1
:1037400080F31188BFF34F8FBFF36F8F00F0DCFF62
:1037500018B104494FF080500860002080F31188B0
:1037600010BD000004ED00E030B593B0282168469C
:10377000FCF73DFD14210AA8FCF739FD00250F9543
:103780000920012110950090119512954FF4803079
:1037900004910691CDE901050224CDE907404FF4DB
:1037A000E01009906846FEF75DFE08B172B6FEE7CC
:1037B0000AA90F2081E831004FF48060CDE90D05A2
:1037C00002210AA8FEF742FD08B172B6FEE74FF4E7
:1037D000004011900F940FA8FEF7C2FC002801D002
:1037E00072B6FEE713B030BD704700000148FFF726
:1037F000E3B8000048070020F0B50268164B174CEC
:10380000174D4FF08047984205D0B84203D0A042F0
:1038100001D0A84203D122F070064A683243984290
:1038200005D0B84203D0A04201D0A84203D122F46F
:103830004074CA6822434C6922F08002224302602D
:103840008A68C2620A688262984201D1096901638A
:1038500001214161F0BD0000002C01400004004046
:103860000008004010B501F01F030121046A9940CF
:103870008C430462016A9A401143016210BD10B585
:10388000846842EA032224F47F440A43224382608C
:1038900010BD826822F070020A4342F00701816085
:1038A0007047000030B5026A22F001020262026A2B
:1038B0004368846924F073050C682C4322F00205E8
:1038C0008A682A430A4DA8420BD122F00805CA682B
:1038D00023F440732A434D6922F004021D438B698F
:1038E0002B434360846149684163026230BD00003C
:1038F000002C014030B5026A22F010020262026A16
:10390000436884690D6824F4E64444EA05248D681C
:1039100022F0200242EA05120B4DA8420ED1CD68DA
:1039200022F0800242EA05124D6923F4406343EA23
:1039300085038D6922F0400243EA85034360846178
:1039400049688163026230BD002C014030B5026AD3
:1039500022F480720262036A4268C46923F400732D
:1039600024F073050C682C438D6843EA05230C4D45
:10397000A8420ED1CD6823F4006343EA05234D69C4
:1039800022F4405242EA05128D6923F4806342EA30
:1039900005124260C4614968C163036230BD000022
:1039A000002C014030B5026A22F480520262046A9F
:1039B0004268C3690D6823F4E64343EA05238D6832
:1039C00024F4005444EA0534064DA84204D14D695C
:1039D00022F4804242EA85124260C3614968016470
:1039E000046230BD002C014010B5036A046A24F063
:1039F00001040462846924F0F00444EA021423F010
:103A00000A020A438461026210BD10B5036A23F002
:103A1000100303628369046A23F4704343EA0232A9
:103A200024F0A00343EA01118261016210BDFCF79A
:103A300039FFFCF79FFDC82000F00EFAF7E7000001
:103A400000240A4D4FF4FA760948FEF766FA082179
:103A50002846FDF770FF2146601C84B205A000F0E7
:103A6000B1F8304600F0F8F9EEE70000000C014034
:103A7000680600204C4544204F4B2121202025641E
:103A8000200D0A00FCF712FEFCF77CFEFCF7E8FDB7
:103A9000012000F0E1F9F5E770B50446006801691E
:103AA000E26821F44051114301612169A068084393
:103AB000616908432168CA6841F20C639A43024372
:103AC000CA6020684169A26921F4407111434161D3
:103AD0001E492068884202D1FEF77EFC01E0FEF715
:103AE0006BFC00EBC00101EB0012606864218000F8
:103AF000B2FBF0F3B3FBF1F36FF018067343B2FBC4
:103B0000F0F5B2FBF0F605EB8305322303EB051568
:103B1000B5FBF1F5B6FBF1F605F0F00505EB061582
:103B2000B2FBF0F6B2FBF0F0B0FBF1F06FF0180270
:103B3000504306EB800003EB0010B0FBF1F021686E
:103B400000F00F002844886070BD0000003801407C
:103B50002DE9F041984617460E460446069D1DE0A5
:103B6000681C1BD02DB1FDF7F3FEA0EB0800A842A6
:103B700014D92068C16821F4D071C16020684169FE
:103B800021F001014161202084F83D0084F83E00CD
:103B9000002084F83C000320BDE8F0812068006824
:103BA00036EA000004D00020B842D9D00020F3E764
:103BB0000120F9E70148FDF75BBA0000EC050020A1
:103BC000FEE700000FB4054B10B503A9044A0298A4
:103BD00000F028F810BC5DF814FB0000793D0008E7
:103BE000940000200907090E002804DB00F1E02002
:103BF00080F80014704700F00F0000F1E02080F81A
:103C0000141D704702E008C8121F08C1002AFAD12B
:103C100070477047002001E001C1121F002AFBD14C
:103C2000704700002DE9FF4F89B09B4604460025F0
:103C300006E025280BD05A460B999047641C6D1C52
:103C400020780028F5D10DB02846BDE8F08F002778
:103C5000B8460122474900E0074314F8013F203BE2
:103C600002FA03F00842F7D120782E2819D114F86F
:103C7000010F47F004072A280ED06FF02F0220789A
:103C8000A0F1300109290CD808EB880102EB4101B1
:103C900000EB0108641CF2E70A98641C50F8048BDE
:103CA0000A9020780028CED0642808D0692806D051
:103CB00075281ED05A460B9990476D1C58E00A99FA
:103CC0004FF00A0901C90A91002802DA40422D2169
:103CD00002E0390504D52B218DF82010012103E0E5
:103CE000F90704D02021F7E78A4608AE0DE000214D
:103CF000FAE70A994FF00A0901C90A91F7E749461C
:103D0000FCF799FA303106F8011D0028F7D1ADEB28
:103D1000060000F12009780701D44FF00108C845DA
:103D200002DDA8EB090000E000208046002706E045
:103D300008A85A46C05D0B9990476D1C7F1C5745DB
:103D4000F6DB04E030205A460B9990476D1CB8F121
:103D50000001A8F10108F5DC05E016F8010B5A4650
:103D60000B9990476D1CB9F10001A9F10109F4DC30
:103D7000641C65E70928010013B54FF6FF730122A3
:103D800069460248FFF754F800981CBD040700205C
:103D9000FEF7D2F8FFF7E8FCFFF72CFBFFF7E0FA9D
:103DA000FFF788FAFFF788FBFFF7B8FAFFF764FB25
:103DB000FFF798FBFFF7E2FBFFF72CFCFCF712FC88
:103DC00012A0FFF7FFFE1548FCF794FD14A0FFF7C3
:103DD000F9FE0C211648FEF769FF00211548FEF791
:103DE00065FF15A0FFF7EEFE022217490B48FCF70E
:103DF00057FF08B172B6FEE7FCF7E2FCFCF7F0FCF7
:103E0000FFF7C4FA00F02FF8FEE7000043414E2010
:103E1000496E6974204F4B21210D0A004405002092
:103E200041444320496E6974204F4B21210D0A0003
:103E300074060020BC06002050574D20496E69745E
:103E4000204F4B21210D0A00AA030020014600202B
:103E5000842900D0C81C704710B500B9012000F0BB
:103E600015FB002010BD10B500F036FB002010BD82
:103E70007FB50D4604464169B0F9080081B1A169DA
:103E800071B1FFF7E3FFD4E905128DE80700D4E92B
:103E900000102B46226900F00CFC039004B070BDAA
:103EA000FFF7D4FF03A9CDE90001208A2B4682B297
:103EB000D4E9001000F0D0FB012801D00020EDE78C
:103EC0000398EBE72DE9F041184C0F46054666696B
:103ED0002068001D00F016FA38B9206890F82C1000
:103EE00001208840A1698143A161681C07D137B1D5
:103EF0002168BDE8F0410E48091D00F047BA20686E
:103F00003544B5424560216805D2A068BDE8F0415E
:103F1000091D00F023BA6068091D00F01FFA206B2C
:103F2000854200D22563BDE8F08100003400002006
:103F30006C0800202DE9F041054600F033FA2E4CC4
:103F40002069401C206120682C4F10B1E06940B30B
:103F50002DE025602069012829D1002606EB860086
:103F600007EB800000F0ECF9761C072EF6D323480F
:103F70008C3000F0E5F92148A03000F0E1F91F484D
:103F8000B43000F0DDF91D48C83000F0D9F91B4805
:103F9000DC3000F0D5F919488C3060601430A06036
:103FA00005E02068E96AC06A884200D82560E06AB6
:103FB000401CE062E96A0120A26988401043A061C8
:103FC00001EB810007EB8000291D00F0DFF900F014
:103FD00009FAE06900280CD02068E96AC06A8842C2
:103FE00007D207494FF080500860BFF34F8FBFF3EF
:103FF0006F8FBDE8F08100003400002090070020A2
:1040000004ED00E010B5044690F8510058B10128C5
:104010000CD002280FD0502080F31188BFF34F8FAF
:10402000BFF36F8FFEE7206B00F0F0F92046BDE88C
:10403000104000F0EBB910BD10484FF4406142074A
:1040400006D0C01D0D4920F00700411AC1F540619E
:104050000B4A00230144C2E900030839103A21F059
:10406000070111604B600B600B1AC0E900139360ED
:104070004FF000405360D06070470000800800207F
:1040800080000020144E154CA6F1C8074FF0805850
:10409000DFF84C9012E000BF00F084F9F068C568CA
:1040A000281D00F02FF92069401E2061E068401EA5
:1040B000E06000F097F92846FFF7A4FFE0680028C9
:1040C000EAD138680128F9D9C9F80080BFF34F8FC9
:1040D000BFF36F8FF2E70000580800203400002083
:1040E00004ED00E02DE9F0479A46DDE909848146B8
:1040F0006FF00303206B03EB82021044089D20F055
:104100000706700707D0502080F31188BFF34F8F48
:10411000BFF36F8FFEE723180A5C83F834200A5C34
:1041200012B1401C1028F6D3002784F84370072DE5
:1041300000D30625E562C4E91157201D00F00BF9F4
:1041400004F1180000F007F92461C5F1070064626A
:10415000A061E76484F8507052464946304600F04A
:10416000BFF82060B8F1000F01D0C8F80040BDE8EA
:10417000F087000030B5114900E011460A6882421C
:10418000FBD34B685C18844203D1406818444860F4
:10419000084643681C18944209D1084C103C246816
:1041A000A24209D052681A4442600A68126802604A
:1041B000814200D0086030BD0460F9E78000002033
:1041C00006484168096829B14168C968C9684968F1
:1041D000016370474FF0FF31FAE700003400002020
:1041E00008484068401C4FF0500080F3118804D00C
:1041F000BFF34F8FBFF36F8FFEE7BFF34F8FBFF358
:104200006F8FFEE7880000202DE9F041054600276A
:1042100000F098F9314E306808B9FFF70DFFF068EB
:1042200005424BD1C5B3083568070ED005F007002D
:10423000C0F108000544680707D0502080F31188BA
:10424000BFF34F8FBFF36F8FFEE72DB370688542CA
:1042500034D82248103001460C6801E020460C4654
:104260006168A94202D221680029F7D131688C42E5
:1042700024D007682168016060680837411B102955
:104280000FD96019420708D0502080F31188BFF37E
:104290004F8FBFF36F8FFEE710E041606560FFF75F
:1042A00069FF61687068401A7060B268904200D21D
:1042B000B060F06801430020C4E9000100F088FA12
:1042C000780707D0502080F31188BFF34F8FBFF3DA
:1042D0006F8FFEE73846BDE8F081000070000020D7
:1042E00010B5031F4FF080741C601B1F21F00101EB
:1042F0001960191F024B0B60143940380A6010BD59
:10430000E1410008D0E9013201699A60D0E9012356
:104310005A604A68824201D182684A600022026182
:104320000868401E0860086870470000034B03607F
:1043300003F15400086040201060704750020020D4
:1043400000F108014FF0FF32C0E90112C1600161C4
:1043500000210160704700210161704730B50B6892
:104360005A1C02D000F1080202E0026904E0224671
:10437000546825689D42FAD953684B6099608A60F9
:10438000516008610168491C016030BD42684A60A3
:1043900093688B6093685960916008610168491C5B
:1043A00001607047502080F31188BFF34F8FBFF337
:1043B0006F8F0A494868401C486001280CD10848A2
:1043C000006810F0FF0F07D0502080F31188BFF372
:1043D0004F8FBFF36F8FFEE770470000880000200B
:1043E00004ED00E00849486828B1401E486001D14A
:1043F00080F311887047502080F31188BFF34F8FEE
:10440000BFF36F8FFEE700008800002070B5002822
:1044100027D0144DA0F108046168E868014207D173
:10442000502080F31188BFF34F8FBFF36F8FFEE7EB
:1044300022683AB1502080F31188BFF34F8FBFF349
:104440006F8FFEE78143616000F07CF86068696807
:10445000084468602046FFF78DFEBDE8704000F01C
:10446000B7B970BD700000204FF0E020002101615D
:10447000816105494FF47A720968B1FBF2F1491E76
:1044800041610721016170473000002010B5020032
:1044900014D00F48806B38B1502080F31188BFF3DF
:1044A0004F8FBFF36F8FFEE700F04CF800211046EE
:1044B000FFF708FD00F08CF9002807D105494FF0FF
:1044C00080500860BFF34F8FBFF36F8F10BD0000A7
:1044D0003400002004ED00E010B586B00024039401
:1044E00005AA04A903A80494FFF720FFDDE903014E
:1044F0000094CDE9011000230EA11048059A00F0A8
:10450000D8F80F490028486311D0502080F3118853
:10451000BFF34F8FBFF36F8F4FF0FF300863012061
:10452000C8614C6106B0BDE8104000F041B806B06B
:1045300010BD000049444C450000000085400008C3
:10454000340000200248816B491C816370470000E1
:10455000340000201448816B11B101214162704781
:10456000002141628169B1FA81F1C1F11F0101EBC2
:1045700081020E4951F822306BB101EB820101F149
:1045800008034A6852684A609A4201D152684A60F8
:10459000D16801607047502080F31188BFF34F8FBE
:1045A000BFF36F8FFEE7000034000020900700206B
:1045B0001CB5264908780190FF20087008788DF80E
:1045C00000009DF800009DF8002000F0F0009042EF
:1045D00007D0502080F31188BFF34F8FBFF36F8F48
:1045E000FEE79DF800001A4B00F0500018700720FD
:1045F000986005E09DF8002052008DF80020401ED4
:104600009DF800201206F5D49860032807D05020AA
:1046100080F31188BFF34F8FBFF36F8FFEE74FF426
:1046200040709860019808700A48016841F4700170
:104630000160016841F070410160FFF715FF002043
:104640005860FBF76FFD00201CBD000000E400E097
:104650008800002020ED00E02DE9FF5F8346DDE9C2
:104660000E87994616468A469000FFF7CDFD050055
:104670001CD05420FFF7C8FD040014D0002025638F
:1046800084F85100CDE90240CDE900874B4632461F
:1046900051465846FFF726FD2046FFF74BFC012008
:1046A00004B0BDE8F09F2846FFF7B0FE4FF0FF30A2
:1046B000F6E7F0B585B0DDE90B640A9DA6B1DCB183
:1046C000542700972663022684F85160002604AF21
:1046D000CDE90246CDE90057FFF704FD2046FFF77C
:1046E00029FC049805B0F0BD502080F31188BFF379
:1046F0004F8FBFF36F8FFEE7502080F31188BFF319
:104700004F8FBFF36F8FFEE72DE9F0412E4C00274E
:10471000A06B40B1206A401C2062606A00B1012792
:104720003846BDE8F0816669761C666113D1606821
:10473000006838B1502080F31188BFF34F8FBFF36A
:104740006F8FFEE76068A1686160A060A06A401C8E
:10475000A062FFF735FD206BDFF87080864209D339
:104760006068006880B16068C068C5686868864233
:104770000DD220632068C06A00EB800158F8210048
:104780000128CAD90127C8E74FF0FF30F1E7281DFB
:10479000FFF7B8FDA86A18B105F11800FFF7B2FDE0
:1047A000E86A0121A26981401143A16100EB800107
:1047B00008EB8100291DFFF7E9FDE86A2168C96A55
:1047C0008842CDD30127CBE734000020900700209A
:1047D0002DE9F0472C4D00242746A86B38B1FFF790
:1047E000E1FDA86B401EA863A86B40B146E05020D5
:1047F00080F31188BFF34F8FBFF36F8FFEE72969F6
:10480000224E0120D1B3A6F1B40980463068E8B148
:10481000F068C46804F11800FFF774FD201DFFF76D
:1048200071FDE06AAA6908FA00F11143A96100EB81
:10483000800109EB8100211DFFF7A8FDE06A2968CE
:10484000C96A8842E2D3C5F82480DFE70CB1FFF7DC
:10485000B7FC2C6A44B14646FFF756FF00B16E62C2
:10486000641EF9D100202862686A38B1084901271E
:1048700038070860BFF34F8FBFF36F8FFFF7B2FDAC
:104880003846BDE8F08700003400002044080020CE
:1048900004ED00E028490008A136000800000000EF
:1048A0000000000080000000000000000000000088
:1048B00034490008413A00080300000000000000ED
:1048C0004000000000000000000000004049000817
:1048D0002F3A000802000000000000004000000025
:1048E00000000000000000001C490008853A000894
:1048F0000200000000000000400000000000000076
:10490000000000000000000000000000010203049D
:1049100006070809000000000102030450726F63DB
:104920006573735461736B0064656661756C745470
:1049300061736B004D7948656172745461736B00EB
:1049400043414E5F54785461736B00006C4900081A
:104950000000002098000000043C0008044A000801
:1049600098000020E8170000143C00080000000038
:104970000000000000000000000000000000000037
:104980000000000000000000000000000000000027
:104990000100000010000000000000000024F400EE
:1049A0000000000000000000000000000000000007
:1049B00000000000000000000000000000000000F7
:1049C00000000000000000000000000000000000E7
:1049D00000000000000000000000000000000000D7
:1049E00000000000000000000000000000000000C7
:1049F0000000000000000000AAAAAAAA000000000F
:044A000000000000B2
:04000005080000ED02
:00000001FF
