:020000040800F2
:100000008018002099010008573B0008EB330008D6
:10001000553B0008350A0008FD40000800000000BC
:1000200000000000000000000000000001010008C6
:10003000150D00080000000045010008A13C000863
:10004000B3010008B3010008B3010008B3010008C0
:10005000B3010008B3010008B3010008B3010008B0
:10006000B3010008B3010008B3010008610C0008E7
:10007000B3010008B3010008B3010008B301000890
:10008000B3010008B3010008B3010008B301000880
:10009000F1400008B3010008B3010008B3010008F3
:1000A000B3010008453D0008B3010008B301000892
:1000B000B3010008B3010008B3010008B301000850
:1000C000B3010008B3010008B3010008B301000840
:1000D000B3010008B3010008B3010008B301000830
:1000E000B3010008B3010008B3010008DFF80CD029
:1000F00000F050FB00480047314300088018002002
:10010000224B19680868B0E8F00F80F30988BFF344
:100110006F8F4FF0000080F311884EF00D0E704786
:100120000000000006480068006880F3088862B696
:1001300061B6BFF34F8FBFF36F8F00DF00BF00BF0B
:1001400008ED00E0EFF30980BFF36F8F0F4B1A68E3
:1001500020E9F00F106008B54FF0500080F31188CF
:10016000BFF34F8FBFF36F8F04F0F8FC4FF0000028
:1001700080F31188BDE8084019680868B0E8F00FFE
:1001800080F30988BFF36F8F704700BF34000020F1
:10019000EFF3058070470000064880470648004797
:1001A000FEE7FEE7FEE7FEE7FEE7FEE7FEE7FEE727
:1001B000FEE7FEE7413D0008ED000008202A04DBD1
:1001C000203A21FA02F00021704721FA02F3D040D0
:1001D000C2F12002914008431946704740EA0103EA
:1001E0009B0703D009E008C9121F08C0042AFAD2ED
:1001F00003E011F8013B00F8013B521EF9D27047B1
:10020000D2B201E000F8012B491EFBD27047002258
:10021000F6E710B513460A4604461946FFF7F0FF05
:10022000204610BDF0B480EA0102D40F4200B2EBC8
:10023000410F02D20246084611464A0042D0C30D81
:10024000DDB2C1F3C752AD1A202D35DAC1F3160164
:1002500041F4000204B15242C5F1200602FA06F14F
:100260002A411044B3EBD05F23D0C4B1012DA0EBE1
:10027000C35009DCF0BC4FF0004202EAC352DBB2CB
:1002800000F5000000F0FBB9400000F1807000EBC9
:10029000C350A0F1807040EAD170490009E04908DC
:1002A00041EAC071A0EBC35000F50000400800EB2C
:1002B000C350F0BC00F0DAB96142012202EB410107
:1002C000001BF6E7F0BC704781F00041AAE780F020
:1002D0000040A7E780EA010210B502F000434000A9
:1002E00022D04A001FD0010E01EB1261C0F356006C
:1002F000C2F3560240F4000042F40002A0FB0220C8
:1003000000047F39140400D0401C50EA124001D48C
:100310004000491EC2B20C0604EBD010401C40083D
:10032000802A02D003E0002010BD20F00100002947
:1003300000DA0020184310BD2DE9FE4F81EA0304C6
:1003400004F0004421F0004100944FF0000B23F032
:10035000004350EA01045ED052EA03045BD0C3F3C9
:100360000A54C1F30A552C44A4F2F3340194A0FBBF
:100370000254C1F3130141F48011C3F3130343F496
:10038000801301FB024400FB034E840A970A44EAEF
:10039000815447EA8357A4FB076802958D0A05FB41
:1003A00007854FEA932C04FB0C542705029D4FEA66
:1003B000065847EA1637B5EB08056EEB070C870EB3
:1003C000920E47EA811742EA8312A7FB0201B6EBBD
:1003D0000B0164EB00042B0D43EA0C335E1844EB75
:1003E0001C50DA465146E7FB0201C5F313044FEAFD
:1003F0000B3343EA14534FEA0432019C43EA0603E9
:10040000A4F10C040294009CCDE900B400F074F94E
:1004100003B0BDE8F08F00200146F9E72DE9F04D6B
:1004200081EA030404F0004B21F0004514464FF02C
:10043000000A23F0004150EA050220D054EA0102EC
:100440001DD0C5F30A570246C5F31303C1F31300C9
:10045000C1F30A5640F4801543F48013A7EB060855
:10046000101BD64608F2FD3873EB050002D308F1E5
:10047000010801E092185B41B8F1000F03DA002097
:100480000146BDE8F08D00204FF4801106468446F9
:100490000EE0171B73EB050705D3121B63EB050377
:1004A00006434CEA010C49084FEA300092185B41C0
:1004B00050EA0107EDD152EA030012D082EA0400AB
:1004C00083EA0501084305D0101BAB4106D2012287
:1004D000002306E000224FF0004302E06FF001022B
:1004E00053101AEB06004CEB085110EB0A0041EBDD
:1004F0000B01BDE8F04D00F0F0B870B521F00043FD
:1005000003430CD0C1F30A550024D5EB040564EB7A
:100510000403D617AD1AB34102DB0020014670BDBB
:10052000201841EB025170BDC10F80EAE070084411
:10053000CA079623002100F0A2B896230022114694
:1005400000F09DB80EB540F2334102910021CDE993
:1005500000110A460B4600F0CFF803B000BD00F0D2
:10056000004220F00040C10DC0F3160040F400002E
:100570007F2901DA00207047962903DCC1F196013A
:10058000C84001E096398840002AF4D040427047C4
:1005900020F00040C10DC0F3160040F400007F2998
:1005A00001DA00207047962903DCC1F19601C840AA
:1005B0007047963988407047C1F30A5210B5C1F3AD
:1005C000130140F2FF3341F480119A4201DA002016
:1005D00010BD40F233439A42A2F2334203DC52424E
:1005E000FFF7ECFD10BD904010BD01F0004330B4AA
:1005F00021F0004150EA010206D00A0DA2F5607216
:10060000C1F31301002A02DC30BC00207047440F04
:1006100044EAC104C100E01830BC00EBC25000F055
:1006200025B830B50B46014600202022012409E000
:1006300021FA02F59D4205D303FA02F5491B04FA9B
:1006400002F52844151EA2F10102F1DC30BD202A7A
:1006500004DB203A00FA02F1002070479140C2F119
:10066000200320FA03F31943904070470029A8BFE4
:100670007047401C490008BF20F00100704710B4CB
:10068000B0FA80FC00FA0CF050EA010404BF10BC80
:10069000704749B1CCF1200421FA04F411FA0CF1AD
:1006A00018BF012121430843A3EB0C01CB1D4FEAE6
:1006B00000614FEA102042BF002010BC704700EBE1
:1006C000C35010440029A4BF10BC7047401C49000F
:1006D00008BF20F0010010BC704710B5141E73F164
:1006E000000408DA401C41F1000192185B411A43F2
:1006F00001D120F0010010BD2DE9F04D92469B463E
:1007000011B1B1FA81F202E0B0FA80F220329046E3
:10071000FFF79DFF04460F4640EA0A0041EA0B013D
:1007200053465A46084313D0114653EA010019D0E4
:10073000C8F140025046FFF741FD05460E465046BF
:1007400059464246FFF783FF084305D0012004E0E5
:1007500020463946BDE8F08D0020054346EAE076A4
:100760002C4337430A986305E40AA0EB08000022F3
:10077000FD0A44EA47540A3002D500200146E9E761
:10078000010510196941DDE9084500196941BDE815
:10079000F04DA2E7064C074D06E0E06840F001038B
:1007A00094E8070098471034AC42F6D3FFF7A2FC58
:1007B000544F0008744F000870B504460068816803
:1007C000C943C90717D1816821F00101816001F097
:1007D00043FB05460AE000BF01F03EFB401B022838
:1007E00004D920688068C043C00706D020688068AC
:1007F000C043C007F0D0002070BDA06A40F01000D8
:10080000A062E06A40F00100E062012070BD10B516
:100810000146406A826A12F0500F05D0006A026BEE
:10082000BDE8104008461047816A41F400718162BA
:1008300001688968C1F3424107290CD1017B51B994
:10084000816A21F480718162816AC90403D4816A5A
:1008500041F00101816200F0D1FB10BD10B5406A8A
:10086000816A41F040018162C16A41F00401C162C4
:1008700000F0C6FB10BD10B5406A00F0C0FB10BD13
:10088000F8B500260446009600688168C943C90788
:100890002DD0816841F00101816016481649006839
:1008A000B0FBF1F000E0401E00900028FBD101F009
:1008B000D3FA054616E000BF01F0CEFA401B02282D
:1008C00010D920688068C043C0070BD0A06A40F0F0
:1008D0001000A062E06A40F00100E06284F8246049
:1008E0000120F8BD20688068C043C007E4D1002023
:1008F000F8BD00003000002040420F0070B5002419
:1009000023464E1E08E000BF00EB43056D8820F82B
:1009100013505B1C2C449BB2B342F5DB00EB41004F
:1009200020F8022C1019B0FBF1F0FFF706FEFFF7DC
:100930002FFE80B270BD00000EB54FF6FF738DE83C
:100940000E0002460123A121014801F04FFB0EBD1C
:10095000140600202DE9F843804600200F46054686
:1009600004466E4600900BE008EB0400311980B29B
:1009700000F050F8305DE1008840641C0544E4B2AA
:10098000BC42F1D32846BDE8F88300000EB54FF411
:100990007A738DE80E0002460123A021014801F080
:1009A0004DFC0EBD1406002038B500236D460093A3
:1009B00004E0DC0021FA04F4EC545B1C9342F8DB05
:1009C0002946FFF7E3FF38BD1CB555208DF804001C
:1009D00001226946FF20FFF7AFFF9DF80000552870
:1009E00015D0012201A9FF20FFF7D0FF0A2001F056
:1009F0001FF901226946FF20FFF79EFF0A2001F040
:100A000017F99DF80000552801D001201CBD0020D9
:100A10001CBD00000EB501234FF6FF72CDE9001397
:100A200002920246A121024801F0E0FA0EBD000048
:100A300014060020FEE7000000B58BB0C1F34F3371
:100A400000934FF6FF7303EAC1010191C2F34F31E6
:100A5000029103EAC20103910021CDE904100120B3
:100A6000CDE9061008900E2009906946034800F071
:100A7000ADFC002800D001200BB000BDEC0500202B
:100A8000114810B5114A0021C0E90012C1600421CB
:100A90008160082101610E49FF200B1F087048701A
:100AA0008870C870087148718871C8710A46064913
:100AB00001F1340000F026FC002803D0BDE810400E
:100AC00000F0A0B910BD0000B8050020D6D2C119B1
:100AD0001400002070B51D481D4A0021C0E9001215
:100AE000042308228360C0E903121A49022588788A
:100AF00000F00104C87805EA40000443087903EADD
:100B00008000044391F8A20102EAC00004431248A5
:100B1000FF22031F047042708270C270B1F8A621D8
:100B20000271120A4271B1F8A8118171090AC171EA
:100B30000649024601F1340000F0E4FB002803D02E
:100B4000BDE8704000F05EB970BD0000B80500203F
:100B5000D6D2C219980000201400002010B56FF002
:100B60007E420B490020FFF767FF0A4800F01CFF98
:100B700010B109A003F0C4FA0221064800F0B0FB4E
:100B8000002804D0BDE8104007A003F0B9BA10BD9A
:100B9000D2D6C119EC050020BFAAC6F443414ECA03
:100BA000A7B0DC0D0A000000BFAAC6F4B9D2C6F097
:100BB000D6D0B6CED4CAD0EDCAA7B0DC0D0A00009C
:100BC0000348B0F8A81190F8AA0102F0C5BF0000D0
:100BD000980000202DE9F0471F4DB5F8A461B5F845
:100BE000A671A6F11E001FFA80FAB5F8A84195F883
:100BF000A301FFF7A7FC0022184BFFF70FFCFFF73C
:100C0000F4FC81464FF47A78B74205D8444503D1C5
:100C1000002085F8A2011AE0012085F8A201AAEBC4
:100C20000700FFF781FC4946FFF754FB06462046C4
:100C3000FFF77AFC3146FFF7F5FAFFF790FC044620
:100C4000404501DB444602E0002C00DA0024A5F810
:100C5000A841BDE8F0870000980000200000244073
:100C6000014800F0D5BE00007405002030B590F8B2
:100C700040500124AC40C56B6C60046863604368FD
:100C8000102B036803D099600068C26030BD9A6081
:100C90000068C16030BD000070B5194D10212846B4
:100CA00001F0C8F8174C20212071284601F0C2F845
:100CB000E070A915284601F0BDF8A0701248C2885E
:100CC000A4F8AC21B0F89E110A30FFF717FEA4F883
:100CD000B0014FF416714843FFF734FC4FF0663211
:100CE0000A4BFFF729FB0022094BFFF797FB6FF038
:100CF0000B02FFF702FCFFF75FFCA4F8A60170BD32
:100D0000000C014098000020A403002066660A4001
:100D1000000008407047000007480121074AA0F87A
:100D2000AA11002180F8B4110A21A2F89E114FF4F3
:100D30007A71A0F8A811704798000020A403002041
:100D40001CB55A208DF80000FFF73EFED0B10EA072
:100D500003F0D6F9012201A9F020FFF7EDFD9DF87F
:100D600004009DF80010884209D00DA003F0C8F9D6
:100D700001226946F020FFF709FE00F02DF802F08D
:100D8000FBFE1CBD0DA0E3E7415432344358585FCD
:100D9000436865636B20206661696C210D0A000061
:100DA0004E657720626F6172642C20496E697420F1
:100DB000454550524F4D210D0A0000004154323438
:100DC0004358585F436865636B20207375636365A0
:100DD0007373210D0A00000010B50A2000F028FFEF
:100DE00001220A211020FFF7DFFD0A2000F020FF7A
:100DF0000222FA210020FFF7D7FDBDE810400A20AB
:100E000000F016BF02A003F07BF972B6FEE7000007
:100E10005B6572725D4572726F725F48616E646C81
:100E200065720D0A00000000F8B500250446009523
:100E300090F82400012808D0012084F824002046DE
:100E4000FFF7BAFC060002D053E00220F8BDA06A0A
:100E500020F4885040F00200A062022001F0A0FBC4
:100E600026490968B1FBF0F0400000E0401E009008
:100E70000028FBD12046FFF703FD2068816841F080
:100E80000801816000F0E8FF074608E000F0E4FF99
:100E9000C01B0A2803D920688068000715D4206881
:100EA00080680007F2D42068816841F00401816005
:100EB00000F0D2FF074612E000F0CEFFC01B0A2868
:100EC0000DD920688068400709D5A06A20F002008B
:100ED00040F01000A06284F824500120F8BD206882
:100EE00080684007E8D4A06A20F0020040F00100CA
:100EF000A06284F824503046F8BD00003000002085
:100F0000F8B50024009490F824202546012A12D038
:100F1000012280F824204A681F23072A0DD2066880
:100F2000776B521E02EB820293409F430B68934003
:100F30001F43776319E00220F8BD06680D2A0AD224
:100F4000376BD21F02EB820293409F430B689340A2
:100F50001F43376309E0F76A0D3A02EB82029340C0
:100F60009F430B6893401F43F7620A680723066894
:100F70000A2A0AD3F7680A3A02EB420293409F43D7
:100F80008B6893401F43F76008E0376902EB420229
:100F900093409F438B6893401F4337610A68102A30
:100FA00001D0112A20D1124B02689A4217D19368BE
:100FB0001B0219D4936843F4000393600968102955
:100FC00012D10C490C4A0968B1FBF2F101EB810125
:100FD000490000E0491E00910029FBD104E0816A2C
:100FE00041F020018162012480F824502046F8BDA0
:100FF000002401403000002040420F00704770473D
:10100000704700002DE9F0414FF0000704003D4615
:101010007ED0A06A002628B9E66284F824602046C3
:1010200000F07EF82046FFF7C7FBA16AC90600D48E
:1010300020B1A06A40F01000A06269E0A16A21F42A
:10104000885141F00201A1626268E169237B0A4391
:1010500047EA43010A43A1684FF48077B94209D0B7
:10106000012907D05FF0000194F814C0BCF1010F12
:1010700002D00AE03946F7E7F3B1A36A43F0200350
:10108000A362E36A43F00103E3622368D3F804C078
:101090002CF4694C4CEA010CC3F804C021688B683D
:1010A000DFF870C003EA0C0313438B60A168B942F8
:1010B0000BD0012909D00CE0DFF85CC0A3690CEB70
:1010C00043330B4343F40061DFE7218A0D05A5F5A7
:1010D00080152168CB6A23F470032B43CB6221680F
:1010E00089680E4B1940914208D1E662A16A21F04D
:1010F000020141F00101A162BDE8F081A06A20F087
:10110000020040F01000A062E06A40F00100E062DE
:101110000120F1E7FDF7E1FF00E0FFFFFE0E1FFFFA
:10112000F0B585B000260546009601960296039616
:101130000068224988423ED12149886940F4007004
:101140008861886900F400700490886940F00400A8
:101150008861886900F004000490886940F0080004
:10116000886188698027032400F00800CDE90074B5
:1011700004906946134800F06DFD0120CDE900049C
:101180006946114800F066FD114C1048C4E900069C
:101190008015A660C4E90370800060612020A06112
:1011A0004FF44050E061204600F0DCFC08B1FFF74E
:1011B00029FE2C62656205B0F0BD000000240140EC
:1011C0000010024000080140000C014008000240ED
:1011D000740500202DE9F047894604463B49006824
:1011E0003B4F0E1D9046884201D0B84207D130686F
:1011F00010F4702F03D001252846BDE8F08794F83D
:10120000240001280CD0012084F824002046FFF798
:1012100037FB05004FF0000004D084F82400EBE712
:101220000220EAE7A16A40F60162914341F480712D
:10123000A1622168B94218D1326812F4702F14D01B
:10124000A16A41F48011A1623168490505D5A16AFE
:1012500021F4005141F48051A162A16AC9040AD568
:10126000E16A21F00601E16206E0A26A22F480123E
:10127000A2624968E9E7E06284F82400216A15481F
:101280008862216A1448C862216A14480863216888
:101290006FF0020008602068816841F4807181600D
:1012A000216843464A464C31206A00F089FC206898
:1012B0008168C1F342410729816803D041F480115C
:1012C000816099E741F4A001FAE7000000240140A1
:1012D000002801400F080008770800085D08000892
:1012E00090F82020012A07D0022A05D0416A41F453
:1012F0008021416201207047006842690A434261CF
:1013000000207047F0B590F820500468A468012DC3
:1013100005D0022D03D0416A41F4802153E014F03E
:10132000406F01D1E5004BD5C4F30164022C03D911
:10133000416A41F4000146E00125A5401D608D6829
:101340004FF4C0739DB1CE6835434E6845EAC6057B
:10135000066803EB0417F5514FF4C275076805EBF7
:1013600004150E697E51097D012905D009E00E881A
:10137000CD6845EA4655EBE701684E5946F480765C
:101380004E511179D2F805504FF4C67641EA052541
:10139000016806EB04168D511178D2F801204FF444
:1013A000C47541EA0221026805EB04155151006839
:1013B00003EB0411425842F0010242500020F0BDFC
:1013C000416A41F4001141620120F0BD10B590F86E
:1013D00020300268012B07D0022B05D0416A41F46E
:1013E00080214162012010BDD2F8000240F00100CE
:1013F000C2F80002087D00F01F0301209840D2F8D7
:101400001C328343C2F81C32CB69B3B9D2F80C3218
:101410008343C2F80C328C894B6864F31F434C69D8
:1014200002EBC404C4F840320C890B6864F31F4318
:101430004C6902EBC404C4F84432CB69012B16D1C9
:10144000D2F80C320343C2F80C320C884B6864F3B8
:101450001F434C6902EBC404C4F840320C89CB68CA
:1014600064F31F434C6902EBC404C4F844328B6933
:10147000002BD2F804320FD053EA0003C2F8043232
:101480000B69002BD2F8143208D00343C2F814328F
:10149000096A012904D008E08343EFE78343F5E7B5
:1014A000D2F81C120143C2F81C12D2F8000220F03C
:1014B0000100C2F80002002010BD704730B590F85E
:1014C0002040012C05D0022C03D0416A41F4802138
:1014D0005DE00468002955D02469A40754D04FF476
:1014E000D874056804EB01142D5915F004059560B6
:1014F00005682D594ED0ED08556005682C5904F04B
:101500000204D4604FF4DA74056804EB01142D5919
:1015100005F00F05156105682D59C5F3072595617F
:1015200005682C59240C54614FF4DC72046802EBFA
:101530000112A4581C700468A458240A5C70046842
:10154000A458240C9C700468A258120EDA704FF450
:10155000DE72046802EB0112A4581C710468A458DE
:10156000240A5C710468A458240C9C710468A25875
:10157000120EDA71006881B1016941F02001016148
:10158000002030BDE468A8E7416A41F400114162DF
:10159000012030BD6D0D1560AFE7C16841F020013D
:1015A000C160EDE72DE9F05F05460068002446695B
:1015B000D0F804908768D0F80CB0D0F810A0D0F81C
:1015C0001880F10748D0F90714D001218160B807CD
:1015D00003D5284600F015FA0CE0780702D54FF441
:1015E000006407E0380702D54FF4805402E0284633
:1015F00000F006FAF80516D529684FF48070886067
:10160000B80503D5284600F0FEF90CE0780502D5B0
:1016100044F4005407E0380502D544F4804402E065
:10162000284600F0EFF9F80316D529684FF480300A
:101630008860B80303D5284600F0E7F90CE078038A
:1016400002D544F4004407E0380302D544F4803462
:1016500002E0284600F0D8F9300707D55FEACB60F2
:1016600004D52968102044F40074C86070074FF056
:10167000080707D55FEA0B7004D52868C7602846BD
:1016800000F05AF9B00706D52868C068800702D074
:10169000284600F053F9700607D55FEACA6004D502
:1016A0002968102044F480640861B00607D55FEA19
:1016B0000A7004D528680761284600F071F9F00621
:1016C00006D528680069800702D0284600F069F92D
:1016D000B00308D55FEAC96005D5296810204860C5
:1016E000284600F05FF9F00307D55FEA097004D5DA
:1016F00028684760284600F089F9300446D55FEA3B
:10170000497040D5F00504D55FEAC87001D044F0B7
:101710000104B00504D55FEA887001D544F00204E5
:10172000700504D55FEA487001D544F00404300523
:1017300029D518F0700F26D008F07000402815D079
:1017400006DC102809D020280AD0302816D10AE05B
:1017500050280ED0602811D10EE044F008040DE0AE
:1017600044F010040AE044F0200407E044F0400490
:1017700004E044F0800401E044F480742868816946
:1017800021F070018161296804204860002C05D097
:10179000686A204368622846FFF78FFEBDE8F09F25
:1017A00070B5040003D094F8200010B104E00120CB
:1017B00070BD204600F082F82068016841F0010108
:1017C000016000F049FB0546052604E000F044FBFB
:1017D000401B0A2811D820684068C007F6D020684E
:1017E000016821F00201016000F036FB05460BE0C4
:1017F00000F032FB401B0A2806D9606A40F4003032
:10180000606284F82060D2E7206840688007EFD4E7
:10181000207E0128206801683DD021F08001016010
:10182000607E01282068016838D021F04001016005
:10183000A07E01282068016833D021F020010160DA
:10184000E07E0128206801682ED041F0100101607F
:10185000207F01282068016829D021F0080101605B
:10186000607F01282068016824D021F00401016014
:10187000D4E902010843D4E9041211430843616822
:10188000491E08432168C86100206062012084F875
:101890002000002070BD41F08001C0E741F0400110
:1018A000C5E741F02001CAE721F01001CFE741F080
:1018B0000801D4E741F00401D9E7000010B586B073
:1018C000002100910191029103910068174988421B
:1018D0002AD11748C16941F00071C161C16901F0A5
:1018E00000710491816941F0040181618069114CAA
:1018F00000F0040004904FF4006000906946204618
:1019000000F0A8F9A0140090022001900320039099
:101910006946204600F09EF900220521142000F0BF
:101920000DFE142000F0FCFD06B010BD0064004068
:1019300000100240000801407047000010B5144B31
:10194000144A0021FFF7BAFD18B1BDE81040FFF7B7
:1019500059BA104A0E489168042911D10E4B5168AA
:10196000CC180E494FF0010302D0B4F5803F07D1E7
:10197000047881F8A3414488A1F8A44181F8B431E6
:1019800000210B464354491C0829FBDB536010BD62
:101990001C000020D00500202E293EE698000020E3
:1019A000704770477047000070B5044690F82000FB
:1019B000012804D0606A40F40020606218E0022030
:1019C00084F820002068016821F00101016000F026
:1019D00043FA05460EE000BF00F03EFA401B0A281D
:1019E00008D9606A40F400306062052084F8200065
:1019F000012070BD20684068C007EDD1606270BDF5
:101A000070477047704770477047704770470000D5
:101A10002DE9F05FC16B0C6801680B68D0F840C01D
:101A2000042202FA0CF2494DDFF824A1494E4A4F34
:101A3000DFF828B1DFF828E122422CD05A072AD556
:101A40000A68920603D40A6822F004020A60016858
:101A5000A94201D1042219E0514501D1402215E0EB
:101A6000B14202D14FF4806210E0B94202D14FF48A
:101A700080420BE0594502D14FF4802206E07145C7
:101A800002D14FF4800201E04FF080622F49083903
:101A90004A60C16A3BE04FF0020808FA0CF818EA05
:101AA000040F4FF000094FF0010235D05FEA837850
:101AB00032D50B689B0605D40B6823F00A030B6034
:101AC00080F821200168A94201D1022219E0514584
:101AD00001D1202215E0B14202D14FF4007210E092
:101AE000B94202D14FF400520BE0594502D14FF4F4
:101AF000003206E0714502D14FF4001201E04FF0D0
:101B00000072124908394A6080F82090816A0029E1
:101B10001AD0BDE8F05F0847082505FA0CF5254204
:101B200012D01B0710D50B6823F00E030B6090F842
:101B30004010C36B02FA01F15960826380F82120E2
:101B400080F82090016BE2E7BDE8F09F08000240BA
:101B50001C00024030000240440002405800024095
:101B60006C00024030B528B308C813491422194448
:101B7000B1FBF2F18900C163104981630221417711
:101B80001A6843F6F0718A43D0E900142143D0E982
:101B900002452C432143046921434469214384695C
:101BA00021431143196000214163012242770177EB
:101BB000084630BD012030BDF8FFFDBF00000240E7
:101BC00070B5044690F82000002501280CD00120B3
:101BD00084F8200094F821600020012E06D084F8BB
:101BE00020000225284670BD022070BD022684F820
:101BF0002160A0632068066826F001060660204682
:101C0000FFF734F8E06A00282068016802D041F04C
:101C10000E0106E021F0040101602068016841F036
:101C20000A0101602068016841F001010160D9E703
:101C300070B5044600F010F90546601C02D0044857
:101C40000078044400F008F9401BA042FAD370BDAC
:101C5000240000202DE9F84FDFF8B891002409F1A5
:101C6000040A0AF1040B23460F270BF1040EC9E006
:101C70000125A5402A40AA427DD1674ED1F804C073
:101C8000ACEB0608B44532D014DCBCF1030F3AD0FB
:101C900009DCBCF1000F2AD0BCF1010F1CD0BCF153
:101CA000020F31D11DE0BCF1110F17D0BCF1120FA2
:101CB0002AD119E0B8F5881F19D006DCB8F5803FA5
:101CC00015D0B8F5801F1FD111E0B8F5001F0ED058
:101CD000B8F5041F18D10AE0CB6815E0CB681B1DCE
:101CE00012E0CB6808330FE0CB680C330CE08B6854
:101CF0002BB1012B4FF0080303D0456104E004230E
:101D000002E0056100E00023FF2A01D8064601E059
:101D100000F104064FEA840501D9A5F12005D6F8A3
:101D2000008007FA05FC28EA0C0803FA05F548EAE2
:101D30000508C6F800804D68ED0062D5374DAE69E4
:101D400046F00106AE61AD6924F0030605F0010519
:101D50000095334D06EB050CDCF80850A607360F4E
:101D600007FA06F825EA0805DFF8B880404503D1F0
:101D70004FF0000817E044E0DFF8AC80404502D1A6
:101D80004FF001080FE0DFF8A480404502D14FF08A
:101D9000020808E0DFF89880404502D14FF00308C0
:101DA00001E04FF0040808FA06F848EA0508CCF804
:101DB00008804D68D9F80060ED034D4601D5164303
:101DC00000E096432E604D68DAF80060AD0355469A
:101DD00001D5164300E096432E604D68DBF80060A5
:101DE000ED025D4601D5164300E096432E604D6836
:101DF000DEF80060AD02754601D5164300E096435B
:101E00002E60641C0D682A46E5407FF431AFBDE8C2
:101E1000F88F000000040140000011100010024083
:101E20000000014000080140000C0140001001408A
:101E3000001401408068084000D001207047C2684B
:101E400021EA02030A4043EA0241016170470AB1F4
:101E5000016170470904FBE7014880687047000092
:101E60002400002070B5040025D094F83D00002522
:101E700020B984F83C50204600F078FA242084F8F9
:101E80003D002068016821F00101016020680168BF
:101E900041F4004101602068016821F400410160C3
:101EA00000F00EFD4D4A6168914201D84C4900E0B6
:101EB0004C49884201D2012070BD4B492368B0FBD8
:101EC000F1F15E6826F03F060E435E606368934260
:101ED00006D94FF4967359434FF47A73B1FBF3F17B
:101EE0002368491C1E6A26F03F0631431962616867
:101EF000914210D84900401EB0FBF1F2521CC2F3CF
:101F00000B02042A01D2042022E0B0FBF1F0401CB5
:101F1000C0F30B001CE0A268F2B301EBC10303EBBA
:101F20000116431EB3FBF6F35B1C43F480431B0511
:101F300049D092B301EBC10202EB0111401EB0FB8C
:101F4000F1F0401CC0F30B0040F4804040F400402E
:101F50002168CA694CF6FF739A431043C861D4E9FB
:101F6000071001432068026822F0C002114301609B
:101F7000D4E9030101432068826848F2FF339A43A1
:101F800011438160D4E9050108432168CA6822F041
:101F9000FF021043C86001E00EE016E0206801680F
:101FA00041F0010101602564202084F83D00256393
:101FB00084F83E50002070BD01EB4106431EB3FB88
:101FC000F6F35B1CB3E70120C2E701EB4101401EC1
:101FD000B0FBF1F0401CC0F30B00B7E7A086010096
:101FE00080841E0000093D0040420F002DE9FF4F94
:101FF00083B00025DDE910799A4693460446DDF862
:1020000048800095FFF728FF064694F83D002028F9
:102010007CD11923012285492046009601F0F6FA69
:102020000028F5D194F83C0001286FD0012084F8F5
:102030003C0020680168C90703D1016841F0010133
:1020400001602068016821F400610160222084F8A9
:102050003D00402084F83E0025646762A4F82A9081
:10206000608D20857248E062CDE9008653465A466D
:102070002046049901F0D2F900287DD1208DDFF8A7
:10208000B491202768B1012814D002282068016883
:102090001ED041F480610160206841698069009030
:1020A000B6E02068416981690091016841F40071DE
:1020B0000160ADE02068016821F48061016072B6C2
:1020C0002068416981690091016841F400710AE06A
:1020D00041F40061016072B6206841698169009134
:1020E000016821F48061016062B691E0032868D83C
:1020F00001280CD0022843464FF0000249462046F2
:1021000000960FD001F082FAB0BB10E08BE03246AF
:102110004146204601F0F9FA70BB20680069616A07
:1021200008706CE001F072FA30BB72B634E02068DF
:10213000016821F48061016072B620680069616AFB
:102140000870606A401C6062208D401E2085608D92
:10215000401E6085384846F2A8110068B0FBF1F0D7
:10216000C0EBC00000EB80000090401E009008D043
:1021700020684069C04300E029E040070CD5009882
:10218000F3E744F8305F6773A573206940F02000DF
:10219000206162B625731AE02068016841F400717D
:1021A000016020680069616A0870606A401C6062B2
:1021B000218D491E2185618D491E618562B6216888
:1021C0001BE032464146204601F09FFA18B101203B
:1021D00007B0BDE8F08F20680069616A0870606A26
:1021E000401C6062218D491E2185618D491E6185DB
:1021F00021684A69D24352070AD409690170606AAA
:10220000401C6062208D401E2085608D401E6085D0
:10221000208D00287FF46AAF84F83D7084F83E502A
:1022200084F83C50D4E70220D2E7000002001000FE
:102230000000FFFF04000100300000202DE9FF4FE7
:1022400083B09A46DDE9119793460446DDF8408055
:10225000FFF702FE054694F83D0020287FD11923A0
:10226000012240492046009501F0D0F9002876D19E
:1022700094F83C00012872D0012084F83C002068CA
:102280000168C90703D1016841F0010101602068BC
:10229000016821F400610160212084F83D004020A4
:1022A00084F83E0000262664C4F82480A4F82A900E
:1022B000608D20852C48E062CDE9007553465A4672
:1022C0002046049901F028F970B930E02A463946D1
:1022D000204601F04DFA58B1206C042804D1206842
:1022E000016841F400710160012007B0BDE8F08F82
:1022F000606A216800780861606A401C6062218D14
:10230000491E89B22185628D521E628522685369F9
:10231000DB435B070BD469B100781061606A401C35
:102320006062208D401E2085608D401E6085208D5E
:102330000028CBD12A463946204601F041F9002831
:10234000CAD154F83D0B016841F4007101602020AE
:1023500004F81E09E67766770020C6E7FFE702204B
:10236000C3E70000020010000000FFFF10B586B0B8
:102370000021009101910291039100680F49884268
:102380001AD10F4CA06940F00800A061A06969460D
:1023900000F008000490C02000901220019003205B
:1023A00003900848FFF756FCE06940F40010E06134
:1023B000E06900F40010049006B010BD0054004025
:1023C00000100240000C014070B5040011D02168DB
:1023D0004CF6CC400860216845F255500860D4E9BD
:1023E000000141602168A0688860FFF735FD05465F
:1023F0000DE0012070BD00BFFFF72EFD401B272818
:1024000005D92068C068800701D0032070BD20680E
:10241000C0688007F0D121684AF6AA200860002031
:1024200070BD00684AF6AA210160002070470000D4
:1024300002488168027811448160704724000020BE
:10244000074810B5016841F010010160032000F059
:1024500095F80F2000F006F800F03EF8002010BDBF
:102460000020024000B5014687B00022192000F08C
:1024700065F8192000F054F81348816941F40061AF
:102480008161806905A900F400600690684600F04B
:10249000F7F900F025FA0D490D4AB0FBF1F10D48AE
:1024A000491E0260416040F2E7320021C0E9032189
:1024B000816000F021FC10B1012007B000BD05488B
:1024C00000F066FCF9E700000010024040420F00F7
:1024D000002C0140480700200F4808B5816941F0F1
:1024E00001018161816901F001010091C16941F03F
:1024F0008051C161C069002200F0805000900F211E
:10250000901E00F01BF80548416821F0E06141F0A1
:102510000071416008BD0000001002400000014051
:10252000002809DB00F01F020121914040098000D2
:1025300000F1E020C0F8001170470000F0B40E4B2D
:102540001B680C46C3F30223C3F10705042D00D911
:102550000425191D072901D2002300E0DB1E0126F6
:1025600006FA05F1491E214099409E40761E16400C
:102570003143F0BC01F0D4BD0CED00E0064900F0A1
:10258000070208684FF6FF03184040EA0220034A9A
:1025900010430860704700000CED00E00000FA05F1
:1025A00010B529A401461DCC86B08DE81D002AA0D7
:1025B0002A4C006804900020012923D002293AD037
:1025C00010291DD161682268D20119D5C1F3834257
:1025D000C9031DF8020009D5616804AAC1F340418E
:1025E000515C1F4AB2FBF1F1484301E01D494843E9
:1025F0006168490204D440005FF00301B0FBF1F0D0
:1026000006B010BD226AC2F30121012903D192074D
:1026100001D5C803F4E7022905D1626A920702D501
:1026200049F64040ECE70329EAD121688903E7D560
:102630004FF22440E4E700F053F96168C1F38131BF
:10264000491C4900DAE700000203040506070809EF
:102650000A0B0C0D0E0F10100102000000100240BA
:1026600000127A0000093D002DE9F8430546007884
:10267000354CC00754D0E0690026C00008D4E0699A
:1026800040F08050E061E069012600F08050009049
:102690002E480168C90512D40168804641F4807152
:1026A0000160FFF7D9FB074605E000BFFFF7D4FB49
:1026B000C01B642823D8D8F80000C005F6D5206ACE
:1026C00010F4407021D0A98801F4407181421CD0DF
:1026D000206A1F49012220F440700A6000220A602B
:1026E0002062C00711D0FFF7B7FB074641F28838D8
:1026F00008E000BFFFF7B0FBC11B414502D9032032
:10270000BDE8F883206A8007F4D5206A696820F460
:102710004070084320621EB1E06920F08050E06103
:102720002878800705D56068A96820F440400843F0
:1027300060602878C00605D56068E96820F48000EC
:10274000084360600020DBE700100240007000409A
:10275000400442422DE9F0470F46050061D0434E48
:10276000306800F00700B84209D2306820F0070056
:1027700038433060306800F00700B84251D1286813
:102780003B4C810712D5400703D5606840F4E060F8
:1027900060602878000703D5606840F4605060608E
:1027A0006068A96820F0F000084360602878C007DE
:1027B00028D06868012810D02168022810D0890725
:1027C00000292EDA616821F0030101436160FFF7FF
:1027D00043FB804641F288390DE021688903EFE729
:1027E0008901EDE7FFF738FBA0EB0801494502D965
:1027F0000320BDE8F0876068696800F00C00B0EB6A
:10280000810FEFD1306800F00700B8420BD9306873
:1028100020F0070038433060306800F00700B8420D
:1028200001D00120E5E72878400705D56068E96810
:1028300020F4E060084360602878000706D56068EF
:10284000296920F4605040EAC100606000F058F847
:102850006168084AC1F30311515CC8400649086029
:1028600006480068FFF7FEFD0020C2E70020024096
:10287000001002400C4F000830000020280000200B
:102880000F2202600C4A536803F00303436053684D
:1028900003F0F0038360536803F4E063C36052689D
:1028A0004FF4E06303EAD20202610448006800F0DA
:1028B000070008607047000000100240002002403E
:1028C0000448054900684968044AC1F30221515C83
:1028D000C840704730000020001002401C4F000824
:1028E0000448054900684968044AC1F3C221515CA3
:1028F000C840704730000020001002401C4F000804
:1029000012A185B00FC98DE80F0014A0144A006809
:1029100004905168134801F00C03042B10D0082BCD
:102920000ED1C1F38343C9031DF803000AD55168D2
:1029300004AAC1F34041515C0A4A5043B0FBF1F094
:1029400005B0704708494843FAE700000203040550
:10295000060708090A0B0C0D0E0F101001020000EB
:102960000010024000127A0000093D002DE9F84FE6
:10297000040070D02078C04DC00749D06868C0F30B
:102980008100012807D06868C0F38100022809D1BE
:102990006868C00306D52868800339D560680028B8
:1029A000E7D035E06068B0F5803F0BD010B1B0F5EE
:1029B000A02F11D0286820F480302860286820F4E7
:1029C000802002E0286840F480302860606890B180
:1029D000FFF742FA06460AE0286840F480202860A3
:1029E000F0E700BFFFF738FA801B642873D8286827
:1029F0008003F7D50CE0FFF72FFA064605E000BF8D
:102A0000FFF72AFA801B6428F0D828688003F7D4DF
:102A100020789A4E80074FF001094FF0000839D511
:102A2000686810F00C0F07D06868C0F381000228B6
:102A300009D16868C00306D42868800714D52069C6
:102A4000012808D110E02069B0B1C6F80090FFF766
:102A500003FA074605E00AE1FFF7FEF9C01B02286A
:102A6000C4D828688007F7D52868616920F0F80085
:102A700040EAC10028600DE0C6F80080FFF7ECF9DD
:102A8000074604E0FFF7E8F9C01B022823D82868AE
:102A90008007F7D4207800072CD57948A169D9B1EF
:102AA000C0F80090FFF7D8F9074604E0FFF7D4F923
:102AB000C01B02280FD8686A8007F7D571484FF409
:102AC000FA510068B0FBF1F0009000BF0098411E81
:102AD0000091FAD20EE080E0C0F80080FFF7BCF968
:102AE000074604E0FFF7B8F9C01B022875D8686AEA
:102AF0008007F7D42078400760D5E8690027C00038
:102B000008D4E86940F08050E861E869012700F0E6
:102B1000805000905C480168C90513D40168834661
:102B200041F480710160FFF797F9824606E000BF2B
:102B3000FFF792F9A0EB0A0064284ED8DBF80000FA
:102B4000C005F5D5E06801280AD008B1052813D0E2
:102B5000286A20F001002862286A20F0040002E0C0
:102B6000286A40F001002862E06841F2883B98B191
:102B7000FFF772F982460BE0286A40F004002862F1
:102B8000EEE700BFFFF768F9A0EB0A0159455AD8F4
:102B9000286A8007F6D50CE0FFF75EF9824605E06B
:102BA000FFF75AF9A0EB0A0159454CD8286A80076B
:102BB000F6D41FB1E86920F08050E861E06988B37D
:102BC0006968C1F38101022944D00228C6F86080F7
:102BD00004D0FFF741F9044638E034E0FFF73CF950
:102BE000074604E0FFF738F9C01B02282BD82868F5
:102BF0008001F7D4206AB0F5803F05D16868A168EC
:102C000020F4003008436860D4E90801084369688B
:102C100021F4741108436860C6F86090FFF71CF94E
:102C2000044606E025E000BFFFF716F9001B022866
:102C300009D828688001F7D51BE000BFFFF70CF921
:102C4000001B022802D90320BDE8F88F2868800104
:102C5000F4D40EE00128F7D06868226A00F48031CD
:102C6000914204D1616A00F47010884201D00120C1
:102C7000EAE70020E8E700000010024000004242BE
:102C800080044242300000200070004070477047CE
:102C900070B590F83C20012A26D0012480F83C40F1
:102CA000022280F83D2003685A689D6822F0700671
:102CB0000A6832435A600D4B02689A4208D0B2F15A
:102CC000804F05D00A4B9A4202D00A4B9A4204D157
:102CD000496825F080031943916080F83D40002148
:102CE00080F83C10084670BD022070BD002C0140E9
:102CF000000400400008004010B5040003D094F820
:102D00003D0010B107E0012010BD002084F83C0018
:102D1000204600F01FF8022084F83D00211D2068A5
:102D200001F016F8012084F8460084F83E0084F88B
:102D30003F0084F8400084F8410084F8420084F8A1
:102D4000430084F8440084F8450084F83D000020E6
:102D500010BD000008B501680B48B1F1804F0BD0E1
:102D60000A4A914207D1C16941F00201C161C069BB
:102D700000F00200009008BDC16941F00101C1618D
:102D8000C06900F00100F5E70010024000040040B7
:102D900090F83D10012901D001207047022180F8F0
:102DA0003D100168CA6842F00102CA6000680B4920
:102DB000884208D0B0F1804F05D00949884202D03E
:102DC0000849884204D1816801F00701062903D02F
:102DD000016841F00101016000207047002C0140B2
:102DE000000400400008004070B5044690F83C0024
:102DF000012817D0012584F83C50022084F83D00BA
:102E00002068826822F0770222F47F42826008689C
:102E1000502830D00DDC20284DD005DC98B3102888
:102E20003BD148E0022070BD302844D0402834D146
:102E300039E0602828D0702806D0B0F5805F2CD00B
:102E4000B0F5005F29D10AE0CB68D1E90121206803
:102E500000F0C1FF2068816841F0770109E0CB688C
:102E6000D1E90121206800F0B6FF2068816841F4B3
:102E70008041816011E0CA684968206801F060F80B
:102E80005021206807E016E0CA684968206801F010
:102E900068F86021206800F0A8FF84F83D50002009
:102EA00084F83C0070BDCA684968206801F048F8A1
:102EB00040212068EFE7226801461046EBE77047A3
:102EC00070B50446006801694FF00005C9438907E1
:102ED00015D4C168C943890711D4E91E01610120D5
:102EE0002077206880698007204602D0FFF7E7FF3F
:102EF00004E000F0CBF8204600F05AF9257720686E
:102F00000169C943490717D4C168C943490713D4A4
:102F10006FF004010161022020772068806910F4BD
:102F2000407F204602D0FFF7CAFF04E000F0AEF871
:102F3000204600F03DF9257720680169C94309075B
:102F400016D4C168C943090712D46FF008010161A2
:102F5000042020772068C0698007204602D0FFF750
:102F6000AEFF04E000F092F8204600F021F925774A
:102F700020680169C943C90617D4C168C943C90695
:102F800013D46FF010010161082020772068C06918
:102F900010F4407F204602D0FFF791FF04E000F0DC
:102FA00075F8204600F004F9257720680169C943C7
:102FB000C90708D1C168C943C90704D1891E016185
:102FC000204600F045F920680169C943090609D483
:102FD000C168C943090605D46FF08001016120462C
:102FE000FFF754FE20680169C943490609D4C16846
:102FF000C943490605D46FF040010161204600F045
:1030000031F920680169C94389060BD4C168C943F5
:10301000890607D46FF0200101612046BDE87040A9
:10302000FFF735BE70BD000010B586B000210091DD
:103030000191029103910368114902221148B3F1F1
:10304000804F13D0104CA3420ED18B6943F0040380
:103050008B61896901F0040104914021CDE90012DE
:1030600069460392FEF7F6FD06B010BD8B6943F08A
:1030700004038B61896901F0040104910821EDE7E3
:10308000001002400008014000040040704770B585
:10309000044690F83C000D4601280AD0012084F82F
:1030A0003C0042B1042A18D0082A2AD00C2A4DD15B
:1030B00039E0022070BD206800F0A0FE2068816920
:1030C00041F0080181612068816921F0040181617A
:1030D000206881692A69114311E0206800F0B6FE7A
:1030E0002068816941F4006181612068816921F46F
:1030F00080618161206881692A6941EA02218161D8
:1031000024E0206800F0CEFE2068C16941F008018B
:10311000C1612068C16921F00401C1612068C169F1
:103120002A69114311E0206800F0E8FE2068C169B7
:1031300041F40061C1612068C16921F48061C1610D
:103140002068C1692A6941EA0221C161002084F82E
:103150003C0070BD10B5040003D094F83D0010B1E0
:1031600007E0012010BD002084F83C00204600F05C
:103170001EF8022084F83D00211D206800F0E8FDC3
:10318000012084F8460084F83E0084F83F0084F86B
:10319000400084F8410084F8420084F8430084F839
:1031A000440084F8450084F83D00002010BD7047BD
:1031B0007047000010B50446022249B104290ED020
:1031C000082913D094F84100012816D0012010BD21
:1031D00094F83E000128F9D184F83E200FE094F8DD
:1031E0003F000128F2D184F83F2008E094F8400025
:1031F0000128EBD184F8402001E084F8412001222D
:10320000206800F0DBFD0F492068884203D1426C42
:1032100042F4004242642068884208D0B0F1804FF6
:1032200005D00949884202D00849884204D1816802
:1032300001F00701062903D0016841F00101016096
:10324000002010BD002C0140000400400008004098
:1032500000680349884201D1FFF7EAB870470000CF
:10326000002C0140704770B5040004D094F83D0074
:10327000002510B106E0012070BD84F83C502046C6
:1032800000F022F8242084F83D002068C16821F471
:103290000051C160204600F09DFE2068016921F4C4
:1032A000904101612068416921F02A014161206853
:1032B000C16841F40051C1602564202084F83D00BC
:1032C00084F83E00002070BD30B585B00024009425
:1032D00001940294039400681449884224D114484C
:1032E000816941F480418161816901F480410491E7
:1032F000816941F00401816180690E4D00F0040094
:1033000004904FF40070009002200190032003907D
:1033100069462846FEF79EFC2815CDE9000469465B
:1033200028460294FEF796FC05B030BD00380140F7
:1033300000100240000801402DE9F843044690F8CF
:103340003D001F4616460D4620284CD1C5B1BEB1E2
:1033500094F83C00012846D0012084F83C004FF04E
:103360000008C4F84080212084F83D00FEF774FD79
:10337000A6848146E684A068B0F5805F03D004E0AF
:103380000120BDE8F883206928B12E465FF00005D2
:1033900084F83C800EE00026FAE78021204600F009
:1033A00075FEA0B9AEB116F8010B21684860E08C3B
:1033B000401EE084E08C4B464FF00002009700284E
:1033C000EBD14FF04001204600F060FE30B1032009
:1033D000D7E735F8020BC0F30800E6E7202084F8B1
:1033E0003D000020CDE70220CBE7FEE701684A69F7
:1033F000D24352050FD46FF480624A61002140F835
:10340000301F202242738173026942F0040202617C
:103410000173012070470020704700002DE9F84F2C
:103420000446006889460B9D01689846174641F49A
:10343000806101602068016841F48071016000953D
:103440004FF0011B0022594620460A9B00F0DEF88F
:103450004FF4007A40B120680068C00501D5C4F877
:1034600040A00320BDE8F88F216809F0FE00086144
:103470002B46284920460A9A00F0FCF8F0BB206849
:103480004169806900902A4620460A9900F070F947
:1034900040B1206C04283AD12068016841F40071E1
:1034A000016034E0FEB2B8F1010F09D02168380A9A
:1034B00008612A4620460A9900F05AF90028E8D106
:1034C000206806612A4620460A9900F051F9002832
:1034D000DFD12068016841F480710160009500220D
:1034E000594620460A9B00F091F80028B3D1216884
:1034F00009F0FF0040F00100086100E007E02B4602
:10350000044920460A9A00F0B5F80028AAD0012004
:10351000A8E70000020001002DE9F8430446006816
:103520000D46DDE9089701689846164641F480711A
:1035300001604B4600224FF001112046009700F039
:1035400065F848B120680068C00502D54FF40070E6
:1035500020640320BDE8F883216805F0FE000861BF
:103560003B464A461549204600F084F888B9206851
:103570004169806900903A464946204600F0F8F8D3
:1035800048B1206C042804D12068016841F400711E
:1035900001600120DEE7F5B2B8F1010F09D0216822
:1035A000300A08613A464946204600F0E1F8002812
:1035B000E7D1206805610020CCE70000020001008F
:1035C00070B516460D4604460DE02046FFF70EFF87
:1035D00008B1012070BD681C05D0FEF73DFC801BC2
:1035E000A84207D835B120684069C0434007ECD4F1
:1035F000002070BD002044F8300F20216173A073BB
:10360000216941F0200121612073E2E72DE9F047B3
:103610001E4690460D460446C1F30747DDF820904C
:1036200008E0701C06D0FEF717FCA0EB0900B042C2
:103630000FD876B12068012F18D0806925EA0000E4
:103640000004000C14D000214145EAD00020BDE860
:10365000F087002044F8300F20216173A0732169A6
:1036600041F02001216120730120F0E74069E5E786
:103670000121E9E72DE9F0479A4691460E460446B6
:1036800000254FF02008C1F3074725E02068406976
:10369000C043400514D42068016841F40071016002
:1036A00021686FF480604861256384F83D8084F868
:1036B0003E50206C40F00400206484F83C501FE031
:1036C000B9F1FF3F08D0FEF7C7FBA0EB0A0149455F
:1036D0000CD8B9F1000F09D02068012F13D08069F0
:1036E00026EA00000004000C0BD0CFE744F8305F5E
:1036F00084F80D80A573206940F0200020612573B7
:103700000120BDE8F0874069EAE72DE9F041002596
:1037100090460E460446202717E04069C043C00685
:103720000CD454F8301B6FF01000486144F8105965
:103730006777A577206A2062257717E0FEF78CFB74
:10374000A0EB0800B04208D83EB120684169C943E7
:103750004906E2D40020BDE8F08144F8305F677389
:10376000A573206940F02000206125730120F2E755
:1037700070B516460D4604460DE02046FFF736FEAE
:1037800008B1012070BD681C05D0FEF765FB801BE9
:10379000A84207D835B120684069C0430006ECD480
:1037A000002070BD002044F8300F20216173A07309
:1037B000216941F0200121612073E2E73EB500213B
:1037C000174800910191154A02910260921582609A
:1037D00001240473017502254FF460220561C26162
:1037E0004160FDF70FFC08B1FDF70CFB0820CDE9A7
:1037F00000040520029069460948FDF781FB08B1E5
:10380000FDF700FB0720CDE9000569460448FDF7F8
:1038100077FB002801D0FDF7F5FA3EBD00240140FA
:10382000440500200F4810B50D4901601221416088
:1038300000214FF400328160C0E903124FF44012BE
:103840004261017641768176C17601774177FDF755
:10385000A7FF002803D0BDE81040FDF7D3BA10BD84
:1038600000640040EC050020094808B5416941F0BA
:10387000010141614069002200F001000090052132
:103880000B20FEF75BFEBDE808400B20FEF748BEAC
:103890000010024010B59CB01C2216496846FCF787
:1038A0009DFC0021684600F0E7FD134C11491C22E5
:1038B00020601C3107A8FCF791FC002107A800F04C
:1038C000DBFD0C4960601C2238310EA8FCF786FC39
:1038D00000210EA800F0D0FD0649A0601C22543142
:1038E00015A8FCF77BFC002115A800F0C5FDE060E1
:1038F0001CB010BD9C4E00080000002070B586B0C2
:1039000000241D480094019402940394816941F0BD
:1039100020018161816901F020010491816941F0F8
:1039200004018161816901F004010491816941F020
:10393000080181618069114E00F0080043F208051A
:103940000490002229463046FEF781FA01200095B6
:10395000CDE901040220039069463046FEF77AF96A
:103960004FF44C70CDE90004694630460294FEF7EE
:1039700071F906B070BD000000100240000C01405B
:103980000D4810B50B4901600C49416000214FF40E
:1039900080428160C0E9031241618161C1610162BD
:1039A000FEF760FA002803D0BDE81040FDF72ABA00
:1039B00010BD00000054004014060020A086010045
:1039C000094810B5074901600421416040F6FF71C4
:1039D0008160FEF7F9FC002803D0BDE81040FDF738
:1039E00011BA10BD003000406806002010B58EB03E
:1039F00000240794089409940A940B941C216846A7
:103A00000C94FCF704FC1E484FF0804101604721F4
:103A1000C0E9011440F2E731C0E903148461FFF703
:103A20006BF908B1FDF7EEF94FF48050079007A944
:103A30001348FFF7D9F908B1FDF7E4F91048FFF78B
:103A400089FB08B1FDF7DEF90B940BA90C480C9427
:103A5000FFF71EF908B1FDF7D5F96020CDE90004A4
:103A600002940C22694606480494FFF710FB08B143
:103A7000FDF7C8F90248FFF7D7FA0EB010BD0000F5
:103A80007406002010B58EB00024079408940994A1
:103A90000A940B941C2168460C94FCF7B8FB1E4852
:103AA0001C4901604721C0E901144FF47A71C0E953
:103AB00003148461FFF720F908B1FDF7A3F94FF46F
:103AC0008050079007A91448FFF78EF908B1FDF759
:103AD00099F91148FFF73EFB08B1FDF793F90B94F4
:103AE0000BA90D480C94FFF7D3F808B1FDF78AF93C
:103AF0006020CDE90004029400226946064804943F
:103B0000FFF7C5FA08B1FDF77DF90348FFF78CFA16
:103B10000EB010BD00040040BC0600200C4810B5DB
:103B20000A4901604FF4E1314160002181600C22BB
:103B3000C160C0E904128161C161FFF794FB0028F4
:103B400003D0BDE81040FDF75DB910BD003801405D
:103B500004070020FEE7FEE7012805D0022802D175
:103B60000348006841637047024800680164704779
:103B7000BC0600207406002010B502210020FCF7CE
:103B8000E9FE0D4CA4F8A4010A20FEF751F801212A
:103B90001020FCF7DFFE84F8A3010A20FEF748F8A6
:103BA000B4F8A41105A000F0ABFA94F8A311BDE895
:103BB00010400BA000F0A4BA98000020736869665A
:103BC000745F676565722E436F6E746F6C5F5072C1
:103BD0006573737572653A202564200D0A00000034
:103BE00073686966745F676565722E50726F706F77
:103BF0007274696F6E5F56616C75653A202564203A
:103C00000D0A00000025134C94F8B40101281DD1C1
:103C1000B4F8A41102220020FCF7C6FE0A2000F02E
:103C20001FFC94F8A31101221020FCF7BDFE0A200E
:103C300000F016FCB4F8A41107A000F061FA94F8A3
:103C4000A3110EA000F05CFA84F8B451C82000F073
:103C500007FCD9E79800002073686966745F6765A0
:103C600065722E436F6E746F6C5F507265737375FF
:103C70007265203D202564200D0A00007368696686
:103C8000745F676565722E50726F706F7274696FC2
:103C90006E5F56616C7565203D202564200D0A001D
:103CA00010B5502080F31188BFF34F8FBFF36F8F93
:103CB00001F02EF818B104494FF080500860002040
:103CC00080F3118810BD000004ED00E030B593B022
:103CD00028216846FCF79BFA14210AA8FCF797FAFA
:103CE00000250F950920012110950090119512953E
:103CF0004FF4803004910691CDE901050224CDE90D
:103D000007404FF4E01009906846FEF72FFE98B97F
:103D10000AA90F2081E831006002CDE90D050221DA
:103D20000AA8FEF717FD38B9A00311900F940FA849
:103D3000FEF79AFC002801D0FDF764F813B030BDFF
:103D4000704700000148FFF7BBB80000480700209B
:103D5000F0B50268164B174C174D4FF0804798424C
:103D600005D0B84203D0A04201D0A84203D122F02E
:103D700070064A683243984205D0B84203D0A04248
:103D800001D0A84203D122F44074CA6822434C698E
:103D900022F08002224302608A68C2620A6882625C
:103DA000984201D10969016301214161F0BD000020
:103DB000002C0140000400400008004010B501F054
:103DC0001F030121046A99408C430462016A9A40EE
:103DD0001143016210BD10B5846842EA032224F445
:103DE0007F440A432243826010BD826822F0700241
:103DF0000A4342F0070181607047000030B5026A53
:103E000022F001020262026A4368846924F07305A9
:103E10000C682C4322F002058A682A430A4DA84206
:103E20000BD122F00805CA6823F440732A434D6978
:103E300022F004021D438B692B434360846149686F
:103E40004163026230BD0000002C014030B5026ABF
:103E500022F010020262026A436884690D6824F449
:103E6000E64444EA05248D6822F0200242EA051265
:103E70000B4DA8420ED1CD6822F0800242EA051215
:103E80004D6923F4406343EA85038D6922F04002C3
:103E900043EA85034360846149688163026230BDFF
:103EA000002C014030B5026A22F480720262036A7B
:103EB0004268C46923F4007324F073050C682C4332
:103EC0008D6843EA05230C4DA8420ED1CD6823F43A
:103ED000006343EA05234D6922F4405242EA051289
:103EE0008D6923F4806342EA05124260C461496827
:103EF000C163036230BD0000002C014030B5026A8E
:103F000022F480520262046A4268C3690D6823F495
:103F1000E64343EA05238D6824F4005444EA05345B
:103F2000064DA84204D14D6922F4804242EA85122E
:103F30004260C36149680164046230BD002C0140E5
:103F400010B5036A046A24F001040462846924F051
:103F5000F00444EA021423F00A020A438461026274
:103F600010BD10B5036A23F0100303628369046A6D
:103F700023F4704343EA023224F0A00343EA011120
:103F80008261016210BDFCF77BFD0A2000F068FA37
:103F9000FCF7A0FDC82000F063FAF4E7064C4FF4EC
:103FA000FA750648FEF73DFA08212046FDF747FF5F
:103FB000284600F055FAF4E7000C0140680600209E
:103FC000FCF76AFEFCF706FEFCF7FAFDC82000F0DD
:103FD00047FAF5E770B5044600680169E26821F424
:103FE0004051114301612169A06808436169084398
:103FF0002168CA6841F20C639A430243CA60206890
:104000004169A26921F44071114341611E49206850
:10401000884202D1FEF764FC01E0FEF751FC00EBA0
:10402000C00101EB0012606864218000B2FBF0F374
:10403000B3FBF1F36FF018067343B2FBF0F5B2FB7C
:10404000F0F605EB8305322303EB0515B5FBF1F51F
:10405000B6FBF1F605F0F00505EB0615B2FBF0F640
:10406000B2FBF0F0B0FBF1F06FF01802504306EB3A
:10407000800003EB0010B0FBF1F0216800F00F00AE
:104080002844886070BD0000003801402DE9F041EF
:10409000984617460E460446069D1DE0681C1BD038
:1040A0002DB1FDF7D9FEA0EB0800A84214D9206875
:1040B000C16821F4D071C1602068416921F001011B
:1040C0004161202084F83D0084F83E00002084F8FF
:1040D0003C000320BDE8F0812068006836EA00005B
:1040E00004D00020B842D9D00020F3E70120F9E73E
:1040F0000148FDF757BA0000EC050020FEE700007C
:104100000FB4054B10B503A9044A029800F028F833
:1041100010BC5DF814FB0000194300089400002057
:104120000907090E002804DB00F1E02080F80014E4
:10413000704700F00F0000F1E02080F8141D704778
:1041400002E008C8121F08C1002AFAD17047704760
:10415000002001E001C1121F002AFBD170470000BE
:104160002DE9FF4F8BB09A460F460546002606E024
:1041700025280BD052460D9990476D1C761C287847
:104180000028F5D10FB03046BDE8F08F0024A046DE
:104190000122604900E0044315F8013F203B02FA88
:1041A00003F00842F7D128782E2817D115F8010F0F
:1041B00044F004042A280ED06FF02F022878A0F1D2
:1041C000300109290AD808EB880102EB410100EB14
:1041D00001086D1CF2E757F8048B6D1C28786928DC
:1041E0003ED006DC0028CDD063280BD0642804D153
:1041F00036E0732810D075284BD052460D99904761
:10420000761C85E017F8040B8DF8000000208DF86F
:104210000100E946012003E057F8049B4FF0FF300E
:1042200061074FF0000401D40AE0641C44450DDA34
:104230008442FADB19F804100029F6D106E0641C68
:104240008442FCDB19F804100029F8D1264404E06C
:1042500019F8010B52460D999047641EF8D257E0A9
:1042600001CF4FF00A0B002802DA40422D2102E074
:10427000210504D52B218DF82410012103E0E1074D
:1042800005D02021F7E70DF1200908910CE000216D
:10429000F9E701CF4FF00A0BF9E75946FCF7C1F9EE
:1042A00001F1300209F8012D0028F6D1ADEB09002B
:1042B00000F1200B600701D44FF00108D84502DD62
:1042C000A8EB0B0000E000208046002406E009A8CF
:1042D0005246005D0D999047641C761C08988442F4
:1042E000F5DB04E0302052460D999047761CB8F17A
:1042F0000001A8F10108F5DC05E019F8010B5246B0
:104300000D999047761CBBF10001ABF1010BF4DC79
:104310006D1C34E70928010013B54FF6FF73012225
:1043200069460248FFF708F800981CBD0407002002
:10433000FEF786F8FFF7CAFCFFF7E0FAFFF794FAFA
:10434000FFF73CFAFFF73CFBFFF76CFAFFF718FBAF
:10435000FFF74CFBFFF796FBFFF7E0FB1CA0FFF716
:10436000CFFE25A327A22AA12BA0FFF7C9FEFCF7A9
:10437000F5FB3348FCF758FD0C213248FEF71AFFD5
:1043800000213148FEF716FF022230492C48FCF785
:1043900021FF08B1FCF736FD2D4C00224FF480516F
:1043A0002046FDF754FD002261142046FDF74FFD25
:1043B0002449002009680864234909684863FCF718
:1043C000ABFCFCF7BDFCFFF765FA00F050F8FEE728
:1043D0000D0A3D3D3D3D3D3D3D3D3D3D3D3D3D3D70
:1043E0003D3D3D3D3D3D3D3D3D3D3D3D3D3D3D3DFD
:1043F0003D3D3D3D3D0D0A0031333A35333A3337CB
:104400000000000041756720323120323032320026
:1044100056312E3030000000B5E7D7D3BBBBB5B561
:10442000CBC4C7FDBFD8D6C6C6F72025732020B1A0
:10443000E0D2EBCAB1BCE425732025730D0A00005D
:104440004405002074060020BC060020AA030020BA
:10445000000C014001460020842900D0C81C704790
:1044600010B500B9012000F015FB002010BD10B5FB
:1044700000F036FB002010BD7FB50D4604464169B3
:10448000B0F9080081B1A16971B1FFF7E3FFD4E988
:1044900005128DE80700D4E900102B46226900F0D0
:1044A0000CFC039004B070BDFFF7D4FF03A9CDE965
:1044B0000001208A2B4682B2D4E9001000F0D0FB24
:1044C000012801D00020EDE70398EBE72DE9F0414A
:1044D000184C0F46054666692068001D00F016FA64
:1044E00038B9206890F82C1001208840A1698143D8
:1044F000A161681C07D137B12168BDE8F0410E48C1
:10450000091D00F047BA20683544B542456021686E
:1045100005D2A068BDE8F041091D00F023BA60682B
:10452000091D00F01FFA206B854200D22563BDE80B
:10453000F0810000340000206C0800202DE9F041DB
:10454000054600F033FA2E4C2069401C206120689B
:104550002C4F10B1E06940B32DE02560206901289F
:1045600029D1002606EB860007EB800000F0ECF96D
:10457000761C072EF6D323488C3000F0E5F921484D
:10458000A03000F0E1F91F48B43000F0DDF91D481B
:10459000C83000F0D9F91B48DC3000F0D5F91948D3
:1045A0008C3060601430A06005E02068E96AC06A61
:1045B000884200D82560E06A401CE062E96A012078
:1045C000A26988401043A06101EB810007EB8000E5
:1045D000291D00F0DFF900F009FAE06900280CD08D
:1045E0002068E96AC06A884207D207494FF08050C4
:1045F0000860BFF34F8FBFF36F8FBDE8F0810000FD
:10460000340000209007002004ED00E010B50446BF
:1046100090F8510058B101280CD002280FD050203A
:1046200080F31188BFF34F8FBFF36F8FFEE7206BCE
:1046300000F0F0F92046BDE8104000F0EBB910BDE5
:1046400010484FF44061420706D0C01D0D4920F0CC
:104650000700411AC1F540610B4A00230144C2E939
:1046600000030839103A21F0070111604B600B601C
:104670000B1AC0E9001393604FF000405360D06004
:10468000704700008008002080000020144E154C68
:10469000A6F1C8074FF08058DFF84C9012E000BF39
:1046A00000F084F9F068C568281D00F02FF9206932
:1046B000401E2061E068401EE06000F097F9284647
:1046C000FFF7A4FFE0680028EAD138680128F9D98B
:1046D000C9F80080BFF34F8FBFF36F8FF2E7000080
:1046E000580800203400002004ED00E02DE9F047D8
:1046F0009A46DDE9098481466FF00303206B03EBE2
:1047000082021044089D20F00706700707D0502051
:1047100080F31188BFF34F8FBFF36F8FFEE723182D
:104720000A5C83F834200A5C12B1401C1028F6D3CE
:10473000002784F84370072D00D30625E562C4E9FD
:104740001157201D00F00BF904F1180000F007F9D3
:104750002461C5F107006462A061E76484F85070C9
:1047600052464946304600F0BFF82060B8F1000FCD
:1047700001D0C8F80040BDE8F087000030B511490D
:1047800000E011460A688242FBD34B685C18844201
:1047900003D1406818444860084643681C18944296
:1047A00009D1084C103C2468A24209D052681A442E
:1047B00042600A6812680260814200D0086030BD21
:1047C0000460F9E78000002006484168096829B1C3
:1047D0004168C968C9684968016370474FF0FF3193
:1047E000FAE700003400002008484068401C4FF001
:1047F000500080F3118804D0BFF34F8FBFF36F8F49
:10480000FEE7BFF34F8FBFF36F8FFEE788000020F6
:104810002DE9F0410546002700F098F9314E306847
:1048200008B9FFF70DFFF06805424BD1C5B3083555
:1048300068070ED005F00700C0F1080005446807BE
:1048400007D0502080F31188BFF34F8FBFF36F8FD5
:10485000FEE72DB37068854234D8224810300146F7
:104860000C6801E020460C466168A94202D221682A
:104870000029F7D131688C4224D007682168016093
:1048800060680837411B10290FD96019420708D00A
:10489000502080F31188BFF34F8FBFF36F8FFEE777
:1048A00010E041606560FFF769FF61687068401A59
:1048B0007060B268904200D2B060F068014300209E
:1048C000C4E9000100F088FA780707D0502080F38F
:1048D0001188BFF34F8FBFF36F8FFEE73846BDE8F7
:1048E000F08100007000002010B5031F4FF08074AD
:1048F0001C601B1F21F001011960191F024B0B6086
:10490000143940380A6010BDE9470008D0E9013287
:1049100001699A60D0E901235A604A68824201D154
:1049200082684A60002202610868401E08600868C8
:1049300070470000034B036003F1540008604020FF
:10494000106070475002002000F108014FF0FF3264
:10495000C0E90112C16001610021016070470021BE
:104960000161704730B50B685A1C02D000F1080293
:1049700002E0026904E02246546825689D42FAD9A3
:1049800053684B6099608A60516008610168491CF6
:10499000016030BD42684A6093688B6093685960DB
:1049A000916008610168491C01607047502080F3E4
:1049B0001188BFF34F8FBFF36F8F0A494868401CBF
:1049C000486001280CD10848006810F0FF0F07D09C
:1049D000502080F31188BFF34F8FBFF36F8FFEE736
:1049E000704700008800002004ED00E00849486896
:1049F00028B1401E486001D180F3118870475020D3
:104A000080F31188BFF34F8FBFF36F8FFEE7000075
:104A10008800002070B5002827D0144DA0F10804AC
:104A20006168E868014207D1502080F31188BFF324
:104A30004F8FBFF36F8FFEE722683AB1502080F3AB
:104A40001188BFF34F8FBFF36F8FFEE78143616023
:104A500000F07CF860686968084468602046FFF7E9
:104A60008DFEBDE8704000F0B7B970BD7000002049
:104A70004FF0E02000210161816105494FF47A7215
:104A80000968B1FBF2F1491E4161072101617047DC
:104A90003000002010B5020014D00F48806B38B1F0
:104AA000502080F31188BFF34F8FBFF36F8FFEE765
:104AB00000F04CF800211046FFF708FD00F08CF9DB
:104AC000002807D105494FF080500860BFF34F8F91
:104AD000BFF36F8F10BD00003400002004ED00E034
:104AE00010B586B00024039405AA04A903A8049471
:104AF000FFF720FFDDE903010094CDE90110002359
:104B00000EA11048059A00F0D8F80F490028486314
:104B100011D0502080F31188BFF34F8FBFF36F8FF8
:104B20004FF0FF3008630120C8614C6106B0BDE85A
:104B3000104000F041B806B010BD000049444C459B
:104B4000000000008D460008340000200248816B00
:104B5000491C816370470000340000201448816BB9
:104B600011B1012141627047002141628169B1FAAE
:104B700081F1C1F11F0101EB81020E4951F8223090
:104B80006BB101EB820101F108034A6852684A6087
:104B90009A4201D152684A60D16801607047502042
:104BA00080F31188BFF34F8FBFF36F8FFEE70000D4
:104BB00034000020900700201CB526490878019099
:104BC000FF20087008788DF800009DF800009DF81F
:104BD000002000F0F000904207D0502080F31188B0
:104BE000BFF34F8FBFF36F8FFEE79DF800001A4BA6
:104BF00000F0500018700720986005E09DF8002034
:104C000052008DF80020401E9DF800201206F5D4B9
:104C10009860032807D0502080F31188BFF34F8F8E
:104C2000BFF36F8FFEE74FF44070986001980870F3
:104C30000A48016841F470010160016841F0704167
:104C40000160FFF715FF00205860FBF76BFA0020AA
:104C50001CBD000000E400E08800002020ED00E022
:104C60002DE9FF5F8346DDE90E87994616468A46A1
:104C70009000FFF7CDFD05001CD05420FFF7C8FDC4
:104C8000040014D00020256384F85100CDE90240CF
:104C9000CDE900874B46324651465846FFF726FD80
:104CA0002046FFF74BFC012004B0BDE8F09F2846EA
:104CB000FFF7B0FE4FF0FF30F6E7F0B585B0DDE965
:104CC0000B640A9DA6B1DCB1542700972663022627
:104CD00084F85160002604AFCDE90246CDE90057C3
:104CE000FFF704FD2046FFF729FC049805B0F0BD4E
:104CF000502080F31188BFF34F8FBFF36F8FFEE713
:104D0000502080F31188BFF34F8FBFF36F8FFEE702
:104D10002DE9F0412E4C0027A06B40B1206A401CC9
:104D20002062606A00B101273846BDE8F0816669FB
:104D3000761C666113D16068006838B1502080F33A
:104D40001188BFF34F8FBFF36F8FFEE76068A168D4
:104D50006160A060A06A401CA062FFF735FD206B77
:104D6000DFF87080864209D36068006880B16068AF
:104D7000C068C568686886420DD220632068C06A32
:104D800000EB800158F821000128CAD90127C8E7A3
:104D90004FF0FF30F1E7281DFFF7B8FDA86A18B102
:104DA00005F11800FFF7B2FDE86A0121A269814010
:104DB0001143A16100EB800108EB8100291DFFF781
:104DC000E9FDE86A2168C96A8842CDD30127CBE7AB
:104DD00034000020900700202DE9F0472C4D0024DE
:104DE0002746A86B38B1FFF7E1FDA86B401EA8630A
:104DF000A86B40B146E0502080F31188BFF34F8F7D
:104E0000BFF36F8FFEE72969224E0120D1B3A6F1CF
:104E1000B40980463068E8B1F068C46804F118004D
:104E2000FFF774FD201DFFF771FDE06AAA6908FA1B
:104E300000F11143A96100EB800109EB8100211D04
:104E4000FFF7A8FDE06A2968C96A8842E2D3C5F87D
:104E50002480DFE70CB1FFF7B7FC2C6A44B146466B
:104E6000FFF756FF00B16E62641EF9D10020286280
:104E7000686A38B10849012738070860BFF34F8FC7
:104E8000BFF36F8FFFF7B2FD3846BDE8F087000033
:104E9000340000204408002004ED00E0304F0008FA
:104EA000053C000800000000000000008000000039
:104EB00000000000000000003C4F00089D3F00087B
:104EC000030000000000000040000000000000009F
:104ED00000000000484F0008873F00080200000063
:104EE0000000000040000000000000000000000082
:104EF000244F0008C13F000802000000000000002D
:104F00004000000000000000000000000000000061
:104F10000000000001020304060708090000000069
:104F20000102030450726F636573735461736B0005
:104F300064656661756C745461736B004D79486586
:104F40006172745461736B0043414E5F54785461D5
:104F5000736B0000744F00080000002098000000F0
:104F6000404100080C50000898000020E81700009D
:104F70005041000800000000000000000000000098
:104F80000000000000000000000000000000000021
:104F90000000000000000000010000001000000000
:104FA000000000000024F4000000000000000000E9
:104FB00000000000000000000000000000000000F1
:104FC00000000000000000000000000000000000E1
:104FD00000000000000000000000000000000000D1
:104FE00000000000000000000000000000000000C1
:104FF00000000000000000000000000000000000B1
:0C500000AAAAAAAA0000000000000000FC
:04000005080000ED02
:00000001FF
