:020000040800F2
:10000000181900209901000883470008433D0008A3
:100010008147000849070008F14C00080000000073
:1000200000000000000000000000000001010008C6
:10003000A50D00080000000045010008994A0008CD
:10004000B3010008B3010008B3010008B3010008C0
:10005000B3010008B3010008B3010008B3010008B0
:10006000B3010008B3010008B3010008990D0008AE
:10007000B3010008B3010008B3010008B301000890
:10008000B3010008B3010008B3010008B301000880
:10009000E54C0008B3010008B3010008B3010008F3
:1000A000B3010008C94A0008B3010008B301000801
:1000B000B3010008B3010008B3010008B301000850
:1000C000B3010008B3010008B3010008B301000840
:1000D000B3010008B3010008B3010008B301000830
:1000E000B3010008B3010008B3010008DFF80CD029
:1000F00000F09CF900480047A54E000818190020A0
:10010000224B19680868B0E8F00F80F30988BFF344
:100110006F8F4FF0000080F311884EF00D0E704786
:100120000000000006480068006880F3088862B696
:1001300061B6BFF34F8FBFF36F8F00DF00BF00BF0B
:1001400008ED00E0EFF30980BFF36F8F0F4B1A68E3
:1001500020E9F00F106008B54FF0500080F31188CF
:10016000BFF34F8FBFF36F8F05F0EAFA4FF0000037
:1001700080F31188BDE8084019680868B0E8F00FFE
:1001800080F30988BFF36F8F704700BF38000020ED
:10019000EFF3058070470000064880470648004797
:1001A000FEE7FEE7FEE7FEE7FEE7FEE7FEE7FEE727
:1001B000FEE7FEE7C54A0008ED000008F0B480EA5B
:1001C0000102D40F4200B2EB410F02D202460846B0
:1001D00011464A0042D0C30DDDB2C1F3C752AD1A79
:1001E000202D35DAC1F3160141F4000204B1524268
:1001F000C5F1200602FA06F12A411044B3EBD05FA4
:1002000023D0C4B1012DA0EBC35009DCF0BC4FF0EA
:10021000004202EAC352DBB200F5000000F0D7B89A
:10022000400000F1807000EBC350A0F1807040EA04
:10023000D170490009E0490841EAC071A0EBC35000
:1002400000F50000400800EBC350F0BC00F0B6B869
:100250006142012202EB4101001BF6E7F0BC70474E
:1002600081F00041AAE780F00040A7E780EA0102A0
:1002700010B502F00043400022D04A001FD0010E0A
:1002800001EB1261C0F35600C2F3560240F40000C5
:1002900042F40002A0FB022000047F39140400D0C5
:1002A000401C50EA124001D44000491EC2B20C0664
:1002B00004EBD010401C4008802A02D003E000204C
:1002C00010BD20F00100002900DA0020184310BD05
:1002D00030B480EA010202F0004530F0004221F023
:1002E000004013D090B1C30DD40DC2F31601C0F37A
:1002F0001600E41A41F4000140F400027D349142FA
:1003000001D3641C00E04900002C02DA30BC00205C
:1003100070474FF400000023914201D3891A034330
:1003200040084FEA4101F7D151B1914202D14FF05B
:10033000004105E002D24FF0010101E06FF0010140
:1003400003EBC450284430BC00F038B8C10F80EA39
:10035000E0700844CA079623002100F038B89623BD
:100360000022114600F033B820F00040C10DC0F368
:10037000160040F400007F2901DA0020704796291A
:1003800003DCC1F19601C840704796398840704738
:1003900030B50B46014600202022012409E021FA55
:1003A00002F59D4205D303FA02F5491B04FA02F552
:1003B0002844151EA2F10102F1DC30BD0029A8BFBE
:1003C0007047401C490008BF20F00100704710B47E
:1003D000B0FA80FC00FA0CF050EA010404BF10BC33
:1003E000704749B1CCF1200421FA04F411FA0CF160
:1003F00018BF012121430843A3EB0C01CB1D4FEA99
:1004000000614FEA102042BF002010BC704700EB93
:10041000C35010440029A4BF10BC7047401C4900C1
:1004200008BF20F0010010BC70470000064C074DCB
:1004300006E0E06840F0010394E8070098471034B4
:10044000AC42F6D3FFF756FE785B0008985B0008D5
:1004500070B504460068816811F0010F25D08168ED
:1004600021F00101816001F0EBFE05462068806803
:1004700010F0010F19D000BF01F0E2FE401B02286E
:100480000ED92068806810F0010F09D0A06A40F0F2
:100490001000A062E06A40F00100E062012070BD3F
:1004A0002068806810F0010FE6D1002070BD10B503
:1004B0000246406A816A11F0500F05D0006A016B54
:1004C000BDE8104010460847816A41F4007181621E
:1004D000016889684FF4602232EA010104BF017BA0
:1004E00000290BD1816A21F480718162816A11F443
:1004F000805F03D1816A41F00101816200F09EFEBC
:1005000010BD10B5406A816A41F040018162C16A44
:1005100041F00401C16200F093FE10BD10B5406AC5
:1005200000F08DFE10BD000070B582B000260446BC
:1005300001960068816811F0010F3CD1816841F09B
:1005400001018160264827490068B0FBF1F0019065
:100550000090C0B1B0F1004F3DD20028D8BF0020BC
:1005600005DD10F0010002D00199491E01910099AA
:10057000401C491C884206DA019A801C521E521EF9
:1005800001928842F8DB01F05BFE05462068806836
:1005900010F0010F0FD100BF01F052FE401B0228E6
:1005A00004D92068806810F0010F07D020688068A7
:1005B00010F0010FF0D002B0002070BDA06A40F032
:1005C0001000A062E06A40F00100E06284F824605C
:1005D00002B0012070BD0198401E0190FCD1D2E70D
:1005E0003400002040420F0070B54C1E4FF0000C4C
:1005F000002C19DD034611F0010F04D1B3F802C03D
:10060000A3F800C0831C0025C4F34F045CB15E88CE
:1006100023F8046BB4441E88641E240423F8026C7F
:100620003544240CF3D1AC4400EB410020F8022CFB
:1006300002EB0C00B0FBF1F0FFF791FEFFF794FE28
:1006400080B270BD00B583B04FF6FF730091CDE965
:10065000012302460123A121024801F0CBFE03B091
:1006600000BD0000A80600202DE9F04780464FF0AD
:10067000000084B00F0005460446039019D003AE75
:100680004FF6FF794FF0010A08EB040082B23019EF
:10069000CDE9000A0123A121CDF80890074801F017
:1006A000A9FE305DE10088400544601CC4B2BC4234
:1006B000EAD304B02846BDE8F0870000A806002071
:1006C00000B583B04FF47A730091CDE9012302465F
:1006D0000123A021024802F00DF803B000BD000084
:1006E000A806002070B584B015004FF000020392F8
:1006F0001AD00DF10B024FF0000C15F0010F03D0D2
:1007000002F8011F4FF0010C6B080DD04FEACC042A
:1007100021FA04F6083421FA04F4567002F8024F64
:100720005B1E0CF1020CF1D1024603A800904FF4BD
:100730007A71CDE901510123A021024801F0DAFFCD
:1007400004B070BDA8060020FEE7000070B51E488A
:100750001E4A0021C0E900120423C0E90231082129
:1007600001611B491B4802258A880270120A4270E7
:10077000CA888270120AC2708A780271CA7842717D
:10078000154A92F805C0D479127A0CF0010C05EAEA
:10079000440403EA82024CEA040C4CEA020282712D
:1007A00009884CF6CD425143C90CC1710649031F5B
:1007B000024601F1340000F0E0FE002808BF70BDE1
:1007C000BDE8704000F0F4BB4C060020D7D2C11940
:1007D000D00300201800002040040020174810B566
:1007E000174A002101609279012A0CBF154A164A66
:1007F0004260C160042181600821016113484CF608
:10080000CD41008B4843C10C1148031F0170FF21EB
:1008100041708170C1700F490246C9880171090A8F
:100820004171064901F1340000F0A7FE002808BF1D
:1008300010BDBDE8104000F0BBBB00004C0600201E
:1008400040040020D7D2C219D8D2C219D003002048
:1008500018000020C8050020184810B5184A0021CB
:1008600001609279012A0CBF164A174A4260C160A2
:100870000421816008210161144915488A8F0270A2
:10088000120A4270B1F844208270120AC270CA8FF4
:100890000271120A4271B1F846108171090AC171E0
:1008A0000649031F024601F1340000F066FE0028ED
:1008B00008BF10BDBDE8104000F07ABB4C06002018
:1008C00040040020D7D2C419D8D2C419D0030020C4
:1008D00018000020194810B5194A002101609279CA
:1008E000012A0CBF174A184A4260C1600421816086
:1008F0000821016115491648B1F840200270120A1A
:100900004270B1F848208270120AC270B1F84220D9
:100910000271120A4271B1F84A108171090AC1715B
:100920000649031F024601F1340000F026FE0028AC
:1009300008BF10BDBDE8104000F03ABB4C060020D7
:1009400040040020D7D2C519D8D2C519D003002041
:1009500018000020174810B5174A0021016092794D
:10096000012A0CBF154A164A4260C1600421816009
:1009700008210161134914480A890270120A427061
:100980000A8A8270120AC2704A890271120A42717E
:10099000498A8171090AC1710649031F024601F1A2
:1009A000340000F0EAFD002808BF10BDBDE810408B
:1009B00000F0FEBA4C06002040040020D7D2C61931
:1009C000D8D2C619D003002018000020174810B54F
:1009D000174A002101609279012A0CBF154A164A74
:1009E0004260C160042181600821016113491448FB
:1009F0008A890270120A42708A8A8270120AC27050
:100A0000CA890271120A4271C98A8171090AC171C7
:100A10000649031F024601F1340000F0AEFD002834
:100A200008BF10BDBDE8104000F0C2BA4C0600205F
:100A300040040020D7D2C719D8D2C719D00300204C
:100A400018000020174810B5174A0021016092795C
:100A5000012A0CBF154A164A4260C1600421816018
:100A600008210161134914488A8B0270120A4270EE
:100A7000CA8B8270120AC2700A8C0271120A427109
:100A8000498C8171090AC1710649031F024601F1AF
:100A9000340000F072FD002808BF10BDBDE8104012
:100AA00000F086BA4C06002040040020D7D2C819B6
:100AB000D8D2C819A405002018000020114910B58B
:100AC000114A0020C1E900020422C1E902200822E3
:100AD0000A610E4901220B1F0A7048708870C870A5
:100AE000087148718871C8710A46064901F13400DD
:100AF00000F043FD002808BF10BDBDE8104000F025
:100B000057BA00004C060020D7D2C31918000020A5
:100B100000B58BB000200121CDE9060105900090C1
:100B200001900290039004900E20CDE908106946D0
:100B30000C4800F095FD002818BF00F039FA09486C
:100B400001F0F0F800281CBF07A004F0D3F8022140
:100B5000044800F0FDFC00281CBF07A004F0CAF800
:100B60000BB000BD80060020BFAAC6F443414ECAA8
:100B7000A7B0DC0D0A000000BFAAC6F4B9D2C6F0C7
:100B8000D6D0B6CED4CAD0EDCAA7B0DC0D0A0000CC
:100B90002DE9F05F614E00251021304601F03EFB4B
:100BA0005F4C20212070304601F038FB6070B11599
:100BB000304601F033FBA0707115304601F02EFB7A
:100BC000DFF86091E070584F89F80600A07889F846
:100BD0000500207889F80800607889F80700A28865
:100BE000BA82E088F88220893883DFF84081608902
:100BF000788398F80200C0F1650081B204F10C001E
:100C0000FFF7F2FCB88398F80200FA8AC0F1650099
:100C100081B204F1D600FFF7E7FCF88398F80200F0
:100C20003A8BC0F1650081B204F5D070FFF7DCFCAF
:100C3000388498F802007A8BC0F1650081B204F222
:100C40006A20FFF7D1FC78843948B0F800A000BFD3
:100C500007EB4506B48B642C07D209EB0501002095
:100C6000C87240F2E730B08122E009EB05010120B3
:100C7000C8722046FFF773FB08EB850BDBF81C10EE
:100C8000FFF7F4FADBF82C10FFF798FAFFF76CFB8C
:100C9000B081BAF5967F0BD908EB45010889A042CF
:100CA00088BF20460881088A844288BF204608827F
:100CB000681CC5B2042DCBD31D480AF1010189B2CD
:100CC0000180B1F5977F38BFBDE8F09F40F22D114C
:100CD00001804FF47A61002261F30F0009F10B04E7
:100CE00062F31F40A15C012906D0521C042AF9DBE3
:100CF000C8F81800BDE8F09F08EB42031FFA80FC1B
:100D000019898C4538BF614661F30F001B8A010CBD
:100D1000994298BF194661F31F40E6E7000C014075
:100D20009C00002040040020A4050020D0030020E7
:100D30000000002010B5144C1448217A227B0129B0
:100D400008BF4FF4805104D0022908BF4FF400516E
:100D500001D101F070FA2378A0880D4A0D49012BCA
:100D600004BF1368186403D0022B04BF0B685863D8
:100D7000A378E088012B02BF1168086410BD022B24
:100D800004BF0968486310BDC8050020000C01407D
:100D90000807002050070020014800F0FDBF0000B8
:100DA0000806002070470000084800210122417217
:100DB00081724271064841F2883202810182428189
:100DC000418282818182C281C182704740040020B9
:100DD000D003002000B585B056208DF800005520C6
:100DE0008DF80C00012202A9FF20FFF72BFC9DF8D3
:100DF0000800552815D0012203A9FF20FFF760FC49
:100E00000A2001F005F9012202A9FF20FFF71AFCD0
:100E10000A2001F0FDF89DF80800552818BF0FA022
:100E200000D114A003F066FF012201A9F020FFF712
:100E300009FC9DF804009DF80010884209D014A018
:100E400003F058FF01226946F020FFF739FC00F05B
:100E50002DF803F001FD05B000BD0000415432340F
:100E60004358585F436865636B20206661696C2155
:100E70000D0A0000415432344358585F436865639B
:100E80006B202073756363657373210D0A00000086
:100E90004E657720626F6172642C20496E69742000
:100EA000454550524F4D210D0A00000010B50A2053
:100EB00001F0AEF801224FF47A710220FFF712FC24
:100EC0000A2001F0A5F801220A210420FFF70AFCFC
:100ED0000A2001F09DF801220A210620FFF702FCFA
:100EE0000A2001F095F802224FF416710820FFF74E
:100EF000F9FB0A2001F08CF802224FF4C8710A2095
:100F0000FFF7F0FB0A2001F083F802224FF4BA71D8
:100F10000C20FFF7E7FB0A2001F07AF8022240F6E6
:100F200017510E20FFF7DEFB0A2001F071F80222B4
:100F30004FF4BA711020FFF7D5FB0A2001F068F8D2
:100F4000022240F617511220FFF7CCFB0A2001F0D5
:100F50005FF802224FF4BA711420FFF7C3FB0A2096
:100F600001F056F8022240F617511620FFF7BAFB9F
:100F70000A2001F04DF802224FF4BA711820FFF751
:100F8000B1FB0A2001F044F8022240F617511A2062
:100F9000FFF7A8FB0A2001F03BF8022240F21311F0
:100FA0001C20FFF79FFBBDE810400A2001F030B87D
:100FB00072B6FEE7F0B583B000250446029590F8BE
:100FC0002400012802BF022003B0F0BD012084F8F4
:100FD00024002046FFF73CFA070075D1A06A20F4F0
:100FE000885040F00200A062022001F08FFD3B49D2
:100FF0000968B1FBF0F040000290009018D0B0F109
:10100000004F66D20028D8BF002005DD10F0010097
:1010100002D00299491E02910099401C491C884245
:1010200006DA029A801C521E521E02928842F8DB97
:101030002046FFF779FA2068816841F00801816055
:1010400001F0FEF806462068806810F0080F0ED008
:1010500001F0F6F8801B0A2804D92068806810F097
:10106000080F1BD12068806810F0080FF0D12068AD
:10107000816841F00401816001F0E2F806462068D1
:10108000806810F0040F19D001F0DAF8801B0A28EC
:101090000FD92068806810F0040F0AD0A06A20F0F1
:1010A000020040F01000A06284F8245003B0012038
:1010B000F0BD2068806810F0040FE5D1A06A20F030
:1010C000020040F00100A06284F8245003B03846CA
:1010D000F0BD0298401E0290FCD1A9E73400002028
:1010E00070B483B04FF0000CCDF808C090F8242005
:1010F0006446012A01BF022003B070BC7047012280
:1011000080F824204A681F23072A0DD205686E6BD9
:10111000521E02EB8202934026EA03030E6806FA8F
:1011200002F21A436A631BE005680D2A0CD22E6B8B
:10113000D21F02EB8202934026EA03030E6806FAEE
:1011400002F21A432A630BE0EE6A0D3A02EB8202C6
:10115000934026EA03030E6806FA02F21A43EA6293
:101160000A68072503680A2A0CD3DE680A3A02EBEC
:101170004202954026EA05058E6806FA02F22A43E5
:10118000DA600AE01E6902EB4202954026EA050594
:101190008E6806FA02F22A431A610A68102A18BFFA
:1011A000112A0BD10268A2F18043B3F592330BD020
:1011B000816A41F0200181624FF0010C80F82440E7
:1011C00003B0604670BC7047936813F4000FF5D10C
:1011D000936843F40003936009681029EED1154920
:1011E000154A0968B1FBF2F101EB81014900029156
:1011F0000091E3D0B1F1004F16D20029D8BF0021F1
:1012000005DD11F0010102D0029A521E0292009AED
:10121000491C521C9142D1DA029B891C5B1E5B1E49
:1012200002939142F8DBC9E70299491E0291FCD171
:10123000C4E700003400002040420F0070477047B0
:10124000704700002DE9F0414FF0000704003D46D3
:1012500004BF0120BDE8F081A06A002628B9E6623B
:1012600084F82460204600F085F82046FFF7F0F867
:101270000146A06A10F0100F08BF002904D0A06A30
:1012800040F01000A0626AE0A06A20F4885040F0AC
:101290000200A062E2696068237B40EA020047EA3C
:1012A000430240EA0202A068B0F5807F1ABF01281D
:1012B00000204FF4807094F814C0BCF1010F08D1E5
:1012C000F3B1A36A43F02003A362E36A43F001038E
:1012D000E3622368D3F804C02CF4694C4CEA0000A4
:1012E000586020688368DFF880C003EA0C0313436A
:1012F0008360A068B0F5807F18BF01280FD109E096
:10130000DFF868C0A3690CEB433343EA000040F404
:101310000060DEE7208A4FEA0050A0F580152068C3
:10132000C36A23F4700343EA0503C362206880683C
:101330000F4B00EA0300904207D1E662A06A20F05A
:10134000020040F00100A0620AE0A06A20F0020062
:1013500040F01000A062E06A40F00100E06201216C
:101360000846BDE8F0810000FDF7E1FF00E0FFFF67
:10137000FE0E1FFF70B586B000260546009601964A
:10138000029603960068A0F18041B1F592311CBF2E
:1013900006B070BD2149886940F400708861886991
:1013A00000F400700490886940F004008861886946
:1013B00000F004000490886940F0080088618869A2
:1013C000032400F0080004908320CDE9000469465E
:1013D000134800F031FE0120CDE9000469461148B0
:1013E00000F02AFE114C1048C4E900068020C4E930
:1013F000026040002061800060612020A0614FF405
:101400004050E061204600F079FD002818BFFFF74A
:10141000CFFD2C62656206B070BD00000010024076
:1014200000080140000C01400800024008060020AE
:101430002DE9F047044600688946404F404EA0F130
:1014400080419046B1F5923118BFB84208D130685A
:1014500010F4702F18BF012502D02846BDE8F08790
:1014600094F82400012804BF0220BDE8F087012081
:1014700084F824002046FFF757F805004FF00000DD
:1014800018BF84F82400E8D1A16A21F0010121F4F9
:10149000606141F48071A1622168B94245D132682E
:1014A00012F4702F41D0A16A41F48011A162316819
:1014B00011F4806F05D0A16A21F4005141F48051EC
:1014C000A162A16A11F4805F08BFE06203D0E16A03
:1014D00021F00601E16284F82400216A194888623B
:1014E000216A1948C862216A1848086321686FF0A8
:1014F000020008602068816841F480718160206882
:10150000434600F14C014A46206A00F035FD206850
:1015100081684FF4602232EA010181680CBF41F416
:10152000A00141F48011816097E7A26A22F4801241
:10153000A262496811F4806FC3D0BCE70028014063
:1015400004240140AF0400081D050008030500083D
:1015500090F82020012A18BF022A06D0416A41F4DF
:10156000802141624FF0010070470068426942EA01
:10157000010141614FF00000704770B490F82040C5
:10158000D0F800C0DCF808C0012C18BF022C07D02E
:10159000416A41F48021416270BC4FF00100704704
:1015A0001CF0E05F55D0CCF3016CBCF1020F06D902
:1015B000416A41F40001416270BC0120704701247E
:1015C00004FA0CF41C608C684FF4C0739CB1CD68B5
:1015D00003EB0C162C434D6844EAC5040568AC5176
:1015E0004FF4C274066804EB0C140D693551097D83
:1015F00001290ED108E00D88CC6803EB0C1644EAF3
:1016000045540568AC51EBE701680D5945F4807508
:101610000D511179D2F805404FF4C67541EA042105
:10162000046805EB0C1561511178D2F801204FF4D4
:10163000C47441EA0222016804EB0C140A510068E8
:1016400003EB0C11425842F00102425070BC0020E2
:101650007047416A41F40011416270BC012070473B
:1016600090F820300268012B18BF022B06D0416A87
:1016700041F4802141624FF001007047D2F800022E
:1016800040F00100C2F80002087D4FF0010300F0B5
:101690001F0003FA00F0D2F81C3223EA0003C2F85C
:1016A0001C32CB69DBB9D2F80C3223EA0003C2F852
:1016B0000C32B1F80CC04B686CF31F43D1F814C066
:1016C00002EBCC0CCCF84032B1F808C00B686CF3DC
:1016D0001F43D1F814C002EBCC0CCCF84432CB69D8
:1016E000012B1AD1D2F80C320343C2F80C32B1F8F4
:1016F00000C04B686CF31F43D1F814C002EBCC0C54
:10170000CCF84032B1F808C0CB686CF31F43D1F875
:1017100014C002EBCC0CCCF844328B69002BD2F80D
:1017200004320CBF83430343C2F804320B69002B1D
:10173000D2F814320CBF83430343C2F81432096A4F
:10174000012904D1D2F81C120843C2F81C02D2F8B5
:10175000000220F00100C2F800020020704770472C
:1017600010B490F820C0BCF1010F18BFBCF1020FFB
:1017700007D0416A41F48021416210BC4FF0010062
:101780007047D0F800C029B1DCF810C01CF0030F7E
:101790007DD004E0DCF80CC01CF0030F7ED04FF4C9
:1017A000D87C04680CEB011C54F80C4014F00404C1
:1017B0009460046854F80C4007BF640D1460E4089A
:1017C0005460046854F80CC00CF0020CC2F80CC051
:1017D0004FF4DA7C04680CEB011C54F80C4004F064
:1017E0000F041461046854F80C40C4F30724946196
:1017F000046854F80CC04FEA1C4CC2F814C04FF4F3
:10180000DC72D0F800C002EB01125CF802C083F871
:1018100000C0D0F800C05CF802C04FEA1C2C83F86E
:1018200001C0D0F800C05CF802C04FEA1C4C83F83D
:1018300002C0D0F800C05CF80220120EDA704FF43B
:10184000DE72D0F800C002EB01125CF802C083F82F
:1018500004C0D0F800C05CF802C04FEA1C2C83F82A
:1018600005C0D0F800C05CF802C04FEA1C4C83F8F9
:1018700006C0D0F800C05CF80220120EDA710068D1
:1018800000290CBFC168016941F0200100E005E0BA
:101890000CBFC1600161002010BC7047416A41F477
:1018A0000011416210BC012070472DE9F05F054630
:1018B000006800244669D0F804908768D0F80CB01E
:1018C000D0F810A0D0F8188016F0010F25D017F02E
:1018D000010F07D00121816017F0020F7CD028464C
:1018E00000F053FA17F4807F09D029684FF4807014
:1018F000886017F4007F70D0284600F048FA17F48B
:10190000803F0AD029684FF48030886017F4003F88
:1019100000F0B980284600F03CFA16F0080F18BF16
:101920001BF0100F04D02968102044F40074C86024
:1019300016F0040F4FF0080718BF1BF0080F04D073
:101940002868C760284600F0A1F916F0020F07D0FA
:101950002868C06810F0030F1CBF284600F098F9F3
:1019600016F0400F18BF1AF0100F04D0296810208D
:1019700044F48064086116F0200F18BF1AF0080FB5
:1019800004D028680761284600F0C8F916F0100F47
:1019900007D02868006910F0030F1CBF284600F02C
:1019A000BEF916F4003F18BF19F0100F05D02968D2
:1019B00010204860284600F0B3F916F4803F18BFA5
:1019C00019F0080F04D028684760284600F0E2F9B3
:1019D00016F4004F78D001E035E044E019F0040F30
:1019E0006FD016F4807F1CBF18F0010F44F0010483
:1019F00016F4007F1CBF18F0020F44F0020416F426
:101A0000806F1CBF18F0040F44F0040416F4006F3C
:101A100018BF18F0700F54D008F07000402808BFAD
:101A200044F0400448D03EDC102808BF44F00804CD
:101A300042D0202808BF44F010043DD0302808BF11
:101A400044F0200438E017F0040F18BF4FF400648E
:101A50007FF448AF17F0080F0ABF28464FF48054B0
:101A600000F092F93EE717F4806F18BF44F4005479
:101A70007FF445AF17F4006F0ABF284644F4804452
:101A800000F084F93BE717F4802F18BF44F40044BA
:101A90007FF443AF17F4002F0ABF284644F4803484
:101AA00000F076F939E7502808BF44F0800403D0ED
:101AB000602808BF44F480742868816921F07001AF
:101AC0008161296804204860002C08BFBDE8F09FB0
:101AD000686A204368622846FFF741FEBDE8F09F30
:101AE000002804BF0120704770B5044690F820001C
:101AF000002804BF204600F089F82068016841F002
:101B00000101016000F09CFB0546206840684FF031
:101B1000050610F0010F09D100F092FB401B0A28C6
:101B200017D82068406810F0010FF5D020680168D0
:101B300021F00201016000F083FB05462068406847
:101B400010F0020F12D000BF00F07AFB401B0A28F1
:101B500007D9606A40F40030606284F82060012098
:101B600070BD2068406810F0020FEDD1207E012882
:101B7000206801680CBF41F0800121F08001016004
:101B8000607E0128206801680CBF41F0400121F00F
:101B900040010160A07E0128206801680CBF41F06F
:101BA000200121F020010160E07E01282068016809
:101BB0000CBF21F0100141F010010160207F0128CD
:101BC000206801680CBF41F0080121F008010160A4
:101BD000607F0128206801680CBF41F0040121F0FA
:101BE00004010160D4E902010843D4E9041211435D
:101BF00008436168491E08432168C861002060628B
:101C0000012084F82000002070BD000010B586B0CF
:101C1000002100910191029103910068A0F180419F
:101C2000B1F5C8411CBF06B010BD1648C16941F0EE
:101C30000071C161C16901F000710491816941F0D5
:101C4000040181618069104C00F0040004904FF49D
:101C5000006000906946204600F0EEF9A014009064
:101C600002200190032003906946204600F0E4F929
:101C700000220521142000F005FF142000F0F2FEE0
:101C800006B010BD0010024000080140704700007F
:101C900010B51C4B1C4A0021FFF762FD18B1BDE8CE
:101CA0001040FFF785B9184A9068042823D11749D6
:101CB0005068184B4418134815494FF0010C08D0D0
:101CC000B4F5803F0DD0B4F5003F04BF00785872E2
:101CD00011E0007800EB80004000088083F800C02D
:101CE00009E004888C804488CC8004798C70407929
:101CF000C87083F801C008490020C86008615060BE
:101D000010BD000020000020640600202E283EE6C2
:101D1000D0030020400400201400002070477047CA
:101D20007047000070B5044690F82000012804D0E8
:101D3000606A40F4002060621CE0022084F8200009
:101D40002068016821F00101016000F079FA054680
:101D50002068406810F0010F13D000BF00F070FA47
:101D6000401B0A2808D9606A40F4003060620520F0
:101D700084F82000012070BD2068406810F0010F39
:101D8000ECD10020606270BD7047704770477047AB
:101D900070477047704700002DE9F05FC16BD1F8C4
:101DA00000C001680B68046C0422A2404C4D4D4EEB
:101DB0004D4FDFF83881DFF83891DFF838A112EAAB
:101DC0000C0F18BF13F0040F2CD00A6812F0200F6C
:101DD00003D10A6822F004020A600168A94208BF20
:101DE000042218D0B14208BF402214D0B94208BF23
:101DF0004FF480620FD0414508BF4FF480420AD0B3
:101E0000494508BF4FF4802205D051450CBF4FF41F
:101E100080024FF0806238494A60C16A00295BD174
:101E2000BDE8F09F0222A24012EA0C0F4FF0000B17
:101E30004FF0010218BF13F0020F2FD00B6813F000
:101E4000200F05D10B6823F00A030B6080F82120D6
:101E50000168A94208BF022218D0B14208BF20225F
:101E600014D0B94208BF4FF400720FD0414508BFEB
:101E70004FF400520AD0494508BF4FF4003205D054
:101E800051450CBF4FF400124FF000721A494A60DE
:101E900080F820B0816AF9B9BDE8F09F082505FAFD
:101EA00004F414EA0C0F14BF13F0080FBDE8F09F00
:101EB0000B6823F00E030B6090F84010C36B02FA1E
:101EC00001F15960826380F8212080F820B0016B15
:101ED000002908BFBDE8F09FBDE8F05F084700009B
:101EE000080002401C000240300002404400024052
:101EF000580002406C00024000000240002804BF6D
:101F00000120704710B40168184A194B0A44A3FB1A
:101F10000232120992000264164AC263022280F859
:101F200021200A68D0E9013C43EA0C03D0E903C44C
:101F30004CEA040C43EA0C03D0F814C06FF30D1202
:101F400043EA0C03D0F818C043EA0C03D0F81CC0D5
:101F500043EA0C031A430A6000218163012280F8DE
:101F6000212080F8201010BC08467047F8FFFDBF04
:101F7000CDCCCCCC0000024070B490F820404FF0A3
:101F8000000C012C02BF022070BC7047012480F8B5
:101F9000204090F821600025012E1CBF80F82050C1
:101FA0004FF0020C02D070BC60467047022680F8E9
:101FB0002160856305682E6826F001062E6090F882
:101FC0004050AC40C56B6C60046863604368102B84
:101FD000036803BF9A600268D16099601CBF016802
:101FE000CA60C16A002901680A6818BF42F00E027F
:101FF00006D122F004020A6001680A6842F00A026F
:102000000A600068016841F001010160CBE700004F
:1020100070B5044600F014F90546B4F1FF3F02D054
:1020200004480078044400F00BF9401BA042FAD3A6
:1020300070BD00002800002000230A689C46002A8A
:1020400008BF70472DE9F84F704EDFF8BC914FF094
:1020500001080F2706F1040E0A6808FA03F422406B
:10206000A2427DD14D68A5F1805AAAF5881A4D4546
:1020700077D077DC032D08BF4FF0000C1BD00DDCB0
:10208000002D6ED0012D08BFD1F80CC013D0022D49
:1020900004BFD1F80CC00CF1080C0CE0112D04BFEA
:1020A000D1F80CC00CF1040C05D0122D04BFD1F8EE
:1020B0000CC00CF10C0CB2F5807F34BF0546051D39
:1020C0004FEA830428BF203CD5F800A007FA04FBA0
:1020D0002AEA0B0A0CFA04F44AEA04042C604C685D
:1020E00014F0805F64D04A4CA56945F00105A561F4
:1020F000A46904F00104009423F0030404F1804572
:1021000005F58035D5F808A04FEA83744FEA1474BA
:1021100007FA04FB2AEA0B0AA0F1804BBBF5843BCB
:1021200018D0A0F1804BBBF5863B08BF4FF0010BE8
:1021300010D0A0F1804BBBF5883B08BF4FF0020BDD
:1021400008D0A0F1804BBBF58A3B0CBF4FF0030BCE
:102150004FF0040B0BFA04F444EA0A04AC6002E00A
:1021600026E03FE02BE04C6814F4803F346814BF55
:102170001443944334604C6814F4003FDEF800408C
:1021800014BF14439443CEF800404C6814F4801FED
:10219000204C256814BF1543954325604C6814F402
:1021A000001F1D4C256814BF2A4325EA0202226045
:1021B0000A685B1CDA407FF44FAFBDE8F88FBAF5D0
:1021C000881F0FD007DCBAF5803F18BFBAF5801F13
:1021D0007FF471AF06E0BAF5001F18BFBAF5041F0F
:1021E0007FF469AFD1F808C0BCF1000F08BF4FF011
:1021F000040C3FF460AFBCF1010F4FF0080C0CBFB2
:102200000461446157E70000000011100004014020
:1022100000100240080401400C040140806808409E
:1022200018BF01207047C26821EA0203114043EA47
:10223000014101617047002A08BF0904016170472C
:10224000014880687047000028000020002804BF73
:102250000120704770B5044690F83D00002520B974
:1022600084F83C50204600F01BFB242084F83D00FD
:102270002068016821F0010101602068016841F4D3
:10228000004101602068016821F40041016000F014
:1022900057FE544A6168914203D85349814203D89A
:1022A00004E05249814201D9012070BD50492368A0
:1022B000B0FBF1F1D3F804C02CF03F0C4CEA010C58
:1022C000C3F804C063689A4228BF4B1C07D24FF47E
:1022D000967359434FF47A73B1FBF3F14B1C2168A9
:1022E000D1F820C02CF03F0C43EA0C030B6261686C
:1022F0008A420FD34900401EB0FBF1F2521CC2F3D8
:102300000B02042A31BF0420B0FBF1F0401CC0F3E3
:102310000B0023E0A268002A53D001EBC10303EBBA
:102320000113A0F1010CBCFBF3F35B1C43F48043ED
:102330001B051B0D08BF012010D0002A49D001EB5E
:10234000C10202EB0111401EB0FBF1F0401CC0F3D2
:102350000B0040F4804000BF40F400402168CA698F
:1023600022F0FF0222F44F421043C861D4E9070172
:1023700001432068026822F0C00211430160D4E9E1
:10238000031001432068826822F0FF0222F4034216
:1023900011438160D4E9050101432068C26822F03D
:1023A000FF021143C1602068016841F00101016032
:1023B0002564202084F83D00256384F83E500020E9
:1023C00070BD01EB4103A0F1010CBCFBF3F35B1CFE
:1023D000AEE701EB4101401EB0FBF1F0401CC0F341
:1023E0000B00B9E7A086010080841E0000093D00B3
:1023F00040420F002DE9FF4F83B00026DDE9118533
:102400009A4693460446DDF840900096FFF718FF81
:10241000074694F83D00202840F0608119230122EE
:10242000B0492046009701F03BFE002840F056815D
:1024300094F83C00012800F05181012084F83C0010
:102440002068016811F0010F03D1016841F001011A
:1024500001602068016821F400610160222084F895
:102460003D00402084F83E002664C4F82490A4F87F
:102470002A80608D20859C48E062CDE90057534654
:102480005A462046049901F023FD00286AD1208D88
:1024900058B3012832D00228206801683ED041F4A8
:1024A000806101602068416980690090208D4FF053
:1024B0002008002800F00881DFF830A26FF0100932
:1024C00046F2A81B80B2032800F2C680012833D050
:1024D000022887492B464FF000022046009767D01C
:1024E00001F0DEFD00286CD065E02068416981695B
:1024F0000091016841F400710160D7E7206801682C
:1025000021F48061016072B620684169816900919F
:10251000016841F40071016062B6C7E741F40061EF
:10252000016072B62068416981690091016821F4F7
:102530008061016062B6B9E72068406910F0400F21
:102540001CD12068406910F0100F0CD02068C0F832
:102550001490266384F83D8084F83E60206C2064EB
:1025600084F83C6027E0FFF76BFEC11BA94213D83B
:1025700095B12068406910F0400FE2D020680069F2
:10258000616A0870606A401C6062208D401E208570
:10259000608D401E608593E0266384F83D8084F85A
:1025A0003E60206C40F02000206484F83C6002E033
:1025B00001F076FD18B107B00120BDE8F08F72B6CA
:1025C00025E02068016821F48061016072B620680E
:1025D0000069616A0870606A401C6062208D401E5C
:1025E0002085608D401E6085DAF80000B0FBFBF0AE
:1025F000C0EBC00000EB80000090401E00901BD09C
:102600002068406910F0040F08BF0098F5D02068DA
:10261000016841F40071016020680069616A087016
:10262000606A401C6062218D491E2185618D491EB2
:10263000618562B6216838E0266384F83D8084F8BD
:102640003E60206C40F02000206462B684F83C605C
:1026500007B00120BDE8F08F2068406910F0400FFE
:1026600011D12068406910F0100F7FF46FAFFFF7B1
:10267000E7FDC11BA9428FD8002D8DD0206840698D
:1026800010F0400FEDD020680069616A0870606A40
:10269000401C6062218D491E2185618D491E618526
:1026A00021684A6912F0040F0AD009690170606A52
:1026B000401C6062208D401E2085608D401E60851C
:1026C000208D00287FF4FEAE84F83D8084F83E60C3
:1026D00084F83C6007B00020BDE8F08F07B002200E
:1026E000BDE8F08F020010000000FFFF3400002062
:1026F000040001002DE9FF4F83B09A46DDE9118700
:1027000093460446DDF84090FFF79AFD064694F89C
:102710003D0020287ED1192301225F4920460096E2
:1027200001F0BEFC002875D194F83C00012871D05E
:10273000012084F83C002068016811F0010F03D1EA
:10274000016841F0010101602068016821F4006125
:102750000160212084F83D00402084F83E000025DF
:102760002564C4F82490A4F82A80608D20854B4805
:10277000E062CDE9007653465A462046049901F0BE
:1027800035FC00287FD1208D002830D032463946D4
:10279000204601F03CFD40B1206C042873D1206834
:1027A000016841F4007101606DE0606A21680078A1
:1027B0000861606A411C6162208D401E80B22085E4
:1027C000628D521E62852268536913F0040F0BD08C
:1027D00068B108781061606A401C6062208D401EFC
:1027E0002085608D401E6085208D0028CED1206818
:1027F000B04640694FF0200610F0040F25D1206844
:10280000406910F4806F11D021686FF480604861D6
:10281000256300E03BE084F83D6084F83E50206C86
:1028200040F00400206484F83C5029E0B7F1FF3FF9
:1028300006D0FFF705FDA0EB0800B84215D8A7B1F8
:102840002068406910F0040FD9D02068016841F475
:102850000071016084F83D6084F83E5084F83C507B
:1028600007B00020BDE8F08F0DE0256384F83D60DF
:1028700084F83E50206C40F02000206484F83C50E6
:10288000206C04288BD007B00120BDE8F08F07B082
:102890000220BDE8F08F0000020010000000FFFFE2
:1028A00010B586B00021009101910291039100685A
:1028B000A0F18041B1F5A8411CBF06B010BD0E4C7F
:1028C000A06940F00800A061A069694600F0080016
:1028D0000490C0200090122001900320039007482C
:1028E000FFF7AAFBE06940F40010E061E06900F442
:1028F0000010049006B010BD00100240000C014012
:10290000002804BF0120704770B504464CF6CC4047
:1029100021680860216845F255500860D4E900013B
:1029200041602168A0688860FFF78AFC054620683E
:10293000C06810F0030F10D0FFF782FC401B27285F
:1029400006D92068C06810F0030F01D0032070BDC5
:102950002068C06810F0030FEED121684AF6AA2063
:102960000860002070BD00684AF6AA2101600020BE
:102970007047000002488168027811448160704706
:1029800028000020074810B5016841F010010160DF
:10299000032000F0A9F80F2000F006F800F03EF840
:1029A000002010BD0020024000B5014687B0002283
:1029B000192000F067F8192000F054F813488169D5
:1029C00041F400618161806905A900F4006006900E
:1029D000684600F095FA00F0C3FA0D490D4AB0FBC5
:1029E000F1F0411E0C480260416040F2E7320021E4
:1029F000C0E90321816000F01CFD00280ABF0648E1
:102A0000012000F065FD07B000BD0000001002408D
:102A100040420F00002C0140DC0700200F4808B5A1
:102A2000816941F001018161816901F00101009139
:102A3000C16941F08051C161C069002200F080503D
:102A400000900F21901E00F01DF80548416821F00C
:102A5000E06141F00071416008BD000000100240DB
:102A6000000001400028B8BF704700F01F0101229C
:102A700002FA01F14009800000F1E020C0F80011E5
:102A800070470000174B10B41B68C3F30223C3F157
:102A9000070CBCF1040F88BF4FF0040C1C1D072C61
:102AA00034BF0023DB1E012404FA0CFCACF1010C42
:102AB0000CEA0101994004FA03F35B1E1A4011432A
:102AC00000284FEA0111A1BF00F1E02080F80014B6
:102AD00010BC704700F00F0000F1E02080F8141DDA
:102AE00010BC70470CED00E0074900F007000A68D1
:102AF0004FF6FF031A4042EA002040F0FD7040F01C
:102B000080600860704700000CED00E010B586B0F2
:102B100001460FF2D80C9CE80D108DE80D1037A07F
:102B2000374C00680490002001292CD0022951D094
:102B300010291CBF06B010BD6168226812F0807FAA
:102B400004BF06B010BDC1F3834211F4803F1DF8ED
:102B5000020004BF2B49484308D0616804AAC1F3AE
:102B60004041515C284AB2FBF1F14843616811F4DD
:102B7000800F1CBF06B010BD4000244906B0A1FB69
:102B80000010400810BD216A01F44072B2F5807F48
:102B900006D111F0020F1EBF4FF4004006B010BD69
:102BA000B2F5007F07D1626A12F0020F1EBF49F62C
:102BB000404006B010BD4FF4407232EA01011CBF24
:102BC00006B010BD216811F4003F18BF4FF2244039
:102BD00006B010BD00F0C4F9616806B0C1F38131E0
:102BE000491C4900B0FBF1F010BD000002030405D0
:102BF000060708090A0B0C0D0E0F10100102000049
:102C00000010024000093D0000127A00ABAAAAAAF7
:102C10002DE9F84304460078DFF8148110F0010F25
:102C20006AD0D8F81C00002710F0805F0BD1D8F8CC
:102C30001C0040F08050C8F81C00D8F81C00012788
:102C400000F0805000903B4E306810F4807F14D12B
:102C5000306840F480703060FFF7F2FA0546306863
:102C600010F4807F09D100BFFFF7EAFA401B642807
:102C70002BD8306810F4807FF6D0D8F8200010F4FC
:102C800040702AD0A18801F44071814225D0D8F843
:102C90002000012220F440712748026000220260D7
:102CA000C8F8201011F0010F17D0FFF7C9FA054638
:102CB000D8F8200010F0020F08BF41F288360CD17E
:102CC000FFF7BEFA401BB04202D90320BDE8F883EB
:102CD000D8F8200010F0020FF2D0D8F82000616878
:102CE00020F440700843C8F820002FB1D8F81C0029
:102CF00020F08050C8F81C00207810F0020F07D098
:102D0000D8F80400A16820F440400843C8F8040043
:102D1000207810F0100F07D0D8F80400E16820F4F4
:102D200080000843C8F804000020BDE8F8830000D4
:102D3000001002400070004040044242002804BFDE
:102D4000012070472DE9F043DFF89081054685B0FA
:102D5000D8F800000E4600F00700B0420CD2D8F8B8
:102D6000000020F007003043C8F80000D8F8000049
:102D700000F00700B04265D12868594C10F0020FEE
:102D800014D010F0040F03D0606840F4E06060607D
:102D9000287810F0080F03D0606840F4605060603D
:102DA0006068A96820F0F00008436060287810F09F
:102DB000010F34D06868012821D02168022823D06F
:102DC00011F0020F3ED0616821F0030108436060FA
:102DD000FFF736FA07466068696800F00C00B0EB50
:102DE000810F18BF41F2883919D000BFFFF728FAC8
:102DF000C01B48450CD905B00320BDE8F08321680D
:102E000011F4003FDFD11DE011F0007FDBD119E0AC
:102E10006068696800F00C00B0EB810FE6D1D8F86B
:102E2000000000F00700B04210D9D8F8000020F0F0
:102E300007003043C8F80000D8F8000000F0070091
:102E4000B04203D005B00120BDE8F083287810F02F
:102E5000040F05D06068E96820F4E0600843606012
:102E6000287810F0080F06D06068296920F46050B7
:102E700040EAC10060601B490FC98DE80F001A4885
:102E8000006804906168194801F00C02042A14D00B
:102E9000082A12D1C1F3834211F4803F1DF80200C9
:102EA00004BF1349484308D0616804AAC1F34041F4
:102EB000515C0E4A5043B0FBF1F061680D4AC1F31A
:102EC0000311515CC8400C4908600C480068FFF7CA
:102ED0006BFD05B00020BDE8F0830000002002403B
:102EE00000100240D82F0008E82F000800127A00D6
:102EF00000093D002C5B0008340000202C0000205D
:102F00000F2202600C4A536803F0030343605368C6
:102F100003F0F0038360536803F4E063C360526816
:102F20004FF4E06303EAD20202610448006800F053
:102F300007000860704700000010024000200240B7
:102F40000448054900684968044AC1F30221515CFC
:102F5000C840704734000020001002403C5B00086D
:102F60000448054900684968044AC1F3C221515C1C
:102F7000C840704734000020001002403C5B00084D
:102F800015A186B00FC98DE80F0017A0174A006879
:102F900004905168164801F00C03042B04BF06B0DE
:102FA0007047082B1CBF06B07047C1F3834311F470
:102FB000803F1DF8030001BF0E49484306B070472B
:102FC000516804AAC1F34041515C094A06B050431C
:102FD000B0FBF1F070470000020304050607080982
:102FE0000A0B0C0D0E0F1010010200000010024021
:102FF00000127A0000093D00002804BF012070473C
:103000002DE9F84F04460078E84D10F0010F59D033
:10301000686800F00C00042808D0686800F00C0014
:1030200008280CD1686810F4803F08D0286810F494
:10303000003F47D06068002800F0B28142E060683D
:10304000B0F5803F04BF286840F480300AD010B14A
:10305000B0F5A02F11D0286820F4803028602868AF
:1030600020F4802028606068D0B1FFF7E9F80646B8
:10307000286810F4003F08D024E0286840F480203D
:103080002860286840F48030ECE7FFF7D9F8801B0F
:10309000642800F23681286810F4003FF5D011E072
:1030A000FFF7CEF80646286810F4003F0AD000BFAC
:1030B000FFF7C6F8801B642800F22381286810F40B
:1030C000003FF5D12078BA4E10F0020F4FF0010BFF
:1030D0004FF0000845D0686810F00C0F14D06868F5
:1030E00000F00C00082804BF686810F4803F0BD083
:1030F000206918B3C6F800B0FFF7A2F807462868A1
:1031000010F0020F09D011E0286810F0020F1CBF68
:10311000206901280AD000F043B9FFF791F8C01BDD
:1031200002287DD8286810F0020FF6D0286861695F
:1031300020F0F80040EAC100286012E0C6F80080E4
:10314000FFF77EF80746286810F0020F09D000BF8D
:10315000FFF776F8C01B022862D8286810F0020F2B
:10316000F6D1207810F0080F35D09248A169F9B156
:10317000C0F800B0FFF764F80746686A10F0020F65
:1031800009D100BFFFF75CF8C01B022848D8686A65
:1031900010F0020FF6D0884801684FF4FA50B1FBE6
:1031A000F0F0009000BF0098411E0091FAD212E0AA
:1031B000C0F80080FFF744F80746686A10F0020F75
:1031C00009D000BFFFF73CF8C01B022828D8686A66
:1031D00010F0020FF6D1207810F0040F79D0E869D2
:1031E0004FF0000A10F0805F09D1E86940F080508C
:1031F000E861E8694FF0010A00F080500090DFF8C4
:10320000BC91D9F8000010F4807F19D1D9F80000E2
:1032100040F48070C9F80000FFF712F8074600E09C
:103220006FE0D9F8000010F4807F09D1FFF708F8AB
:10323000C01B642865D8D9F8000010F4807FF5D051
:10324000E068012804BF286A40F0010009D008B1F5
:10325000052813D0286A20F001002862286A20F08F
:1032600004002862E06841F28837D0B1FEF7E8FF39
:103270008146286A10F0020F08D023E0286A40F047
:1032800004002862286A40F00100EAE7FEF7D8FF50
:10329000A0EB0900B84234D8286A10F0020FF5D02C
:1032A00010E0FEF7CDFF8146286A10F0020F09D02A
:1032B000FEF7C6FFA0EB0900B84222D8286A10F03A
:1032C000020FF5D1BAF1000F03D0E86920F0805069
:1032D000E861E069F0B3696801F00C01082950D099
:1032E0000228C6F860800FD0FEF7AAFF04462868BF
:1032F00010F0007F57D000BFFEF7A2FF001B02288E
:103300003AD90320BDE8F88FFEF79AFF07462868F0
:1033100010F0007F09D000BFFEF792FFC01B02280B
:10332000EFD8286810F0007FF6D1206AB0F5803F12
:1033300005D16868A16820F4003008436860D4E9CA
:1033400008010843696821F4741108436860C6F8ED
:1033500060B000E027E0FEF773FF0446286810F035
:10336000007F20D1FEF76CFF001B0228C9D8286817
:1033700010F0007FF6D016E0286810F0007FBBD177
:1033800011E0012808BFBDE8F88F6868226A00F4E0
:103390008031914204D1616A00F47010884202D0F9
:1033A0000120BDE8F88F0020BDE8F88F0010024032
:1033B000000042428004424234000020007000407D
:1033C0007047704790F83C20012A04BF02207047E4
:1033D00030B4012380F83C30022280F83D2002689E
:1033E0005468D2F808C00D6824F070042C4354606F
:1033F0000268A2F18044B4F5963418BFB2F1804F50
:1034000009D0A2F18044B4F580641CBFA2F18044CD
:10341000B4F5006405D149682CF0800C41EA0C0138
:10342000916080F83D30002180F83C1030BC0846A7
:103430007047002804BF0120704710B5044690F87B
:103440003D0028B9002084F83C00204600F01EF81A
:10345000022084F83D00211D206801F03BFB012083
:1034600084F8460084F83E0084F83F0084F8400069
:1034700084F8410084F8420084F8430084F8440052
:1034800084F8450084F83D00002010BD01680F4815
:1034900081B0B1F1804F10D0A1F18042B2F58062CD
:1034A0001CBF01B07047C16941F00201C161C06930
:1034B00000F00200009001B07047C16941F00101C5
:1034C000C161C06900F00100F4E700000010024093
:1034D00090F83D1001291CBF01207047022180F89F
:1034E0003D100168CA6842F00102CA600068A0F19C
:1034F0008041B1F5963118BFB0F1804F09D0A0F1ED
:103500008041B1F580611CBFA0F18041B1F500613F
:1035100004D1816801F00701062903D0016841F058
:10352000010101600020704790F83C20012A0DBF86
:103530000220012380F83C30704730B4022280F82A
:103540003D20D0F800C0DCF8082022F0770222F4F9
:103550007F42CCF808200A68502A3DD00CDC202A93
:1035600074D004DC002A18BF102A51D18CE0302A14
:103570006CD0402A6CD091E0602A4AD0702A06D0E4
:10358000B2F5805F44D0B2F5005F12D086E0D1E999
:10359000014C0268C968956844EA012125F47F4519
:1035A00041EA0C012943916001688A6842F0770280
:1035B00010E00268D1F804C08C68C96895684CEACC
:1035C000012125F47F4521432943916001688A68E0
:1035D00042F480428A6061E00268D1F804C0C968A0
:1035E000146A156A25F001051562956924F00A042C
:1035F00025F0F00545EA011144EA0C0C9161C2F88E
:1036000020C001688A6822F0700242F057028A6086
:1036100044E00268D1F804C0C968146A24F01004B8
:1036200014629569146A25F4704545EA013124F065
:10363000A00444EA0C1C9161C2F820C001688A68A9
:1036400022F0700242F067028A6027E01CE0FFE788
:103650000268D1F804C0CC68116A156A25F001052A
:103660001562956921F00A0125F0F00545EA041478
:1036700041EA0C019461116201688A6822F07002CB
:1036800042F047028A6009E00168D1F808C02CF0D6
:10369000700C4CEA020242F007028A6080F83D306A
:1036A000002180F83C1030BC08467047704770B568
:1036B0000446006801694FF0000511F0020F1CBFBD
:1036C000C16811F0020F13D06FF0020101610120F7
:1036D00020772068806910F0030F204602D0FFF7A2
:1036E000E5FF04E000F099F8204600F0C9F92577DD
:1036F0002068016911F0040F1CBFC16811F0040FAC
:1037000013D06FF0040101610220207720688069E6
:1037100010F4407F204602D0FFF7C8FF04E000F01D
:103720007CF8204600F0ACF925772068016911F09B
:10373000080F1CBFC16811F0080F13D06FF008010B
:103740000161042020772068C06910F0030F204633
:1037500002D0FFF7ABFF04E000F05FF8204600F076
:103760008FF925772068016911F0100F1CBFC1681F
:1037700011F0100F13D06FF01001016108202077B5
:103780002068C06910F4407F204602D0FFF78EFF0A
:1037900004E000F042F8204600F072F92577206836
:1037A000016911F0010F1CBFC16811F0010F05D0B4
:1037B0006FF001010161204600F0BCF92068016949
:1037C00011F0800F1CBFC16811F0800F05D06FF0A1
:1037D000800101612046FFF7F3FD2068016911F0C7
:1037E000400F1CBFC16811F0400F05D06FF04001C1
:1037F0000161204600F0A7F92068016911F0200F4F
:103800001ABFC16811F0200F70BD6FF02001016177
:103810002046BDE87040FFF7D4BD704770B490F803
:103820003C30012B02BF022070BC7047012380F89E
:103830003C307B4B3AB1042A3ED0082A7CD00C2A7B
:1038400079D000F0E7B80268D2F820C02CF0010C63
:10385000C2F820C0D2F820C0546895690E6825F0DF
:10386000730535438E682CF0020C46EA0C0C9A4224
:103870000DD12CF00803D1F80CC04CEA030323F05F
:10388000040C24F440734C6923438C691C4354603A
:1038900095614B685363C2F820C00268936943F096
:1038A000080393610268936923F00403936102683B
:1038B0009369096919433BE00268D2F820C02CF0F3
:1038C000100CC2F820C0D2F820C0546895690E6868
:1038D00025F4E64545EA06258E682CF0200C4CEAD6
:1038E000061C9A420FD12CF08003D1F80CC043EA99
:1038F0000C1323F0400C24F440634C6943EA840326
:103900008C6943EA8404546095614B689363C2F800
:1039100020C00268936943F400639361026893696D
:1039200023F48063936102689369096943EA012182
:1039300091616FE000E03AE00268D2F820C02CF418
:10394000807CC2F820C0D2F820C05468D5690E68C7
:1039500025F0730535438E682CF4007C4CEA062C68
:103960009A420FD12CF40063D1F80CC043EA0C2327
:1039700023F4806C24F440534C6943EA04138C69AB
:1039800043EA04145460D5614B68D363C2F820C085
:103990000268D36943F00803D3610268D36923F056
:1039A0000403D3610268D3690969194331E00268ED
:1039B000D2F820C02CF4805CC2F820C0156AD2F87E
:1039C00004C0D4690E6824F4E64444EA06248E68F0
:1039D00025F4005545EA06359A4205D12CF480437A
:1039E000D1F814C043EA8C1CC2F804C0D4614B68FF
:1039F000136415620268D36943F40063D3610268FB
:103A0000D36923F48063D3610268D369096943EA07
:103A10000121D161002180F83C1070BC084670473C
:103A2000002C0140002804BF0120704710B5044657
:103A300090F83D0028B9002084F83C00204600F0B2
:103A40001EF8022084F83D00211D206801F042F894
:103A5000012084F8460084F83E0084F83F0084F892
:103A6000400084F8410084F8420084F8430084F860
:103A7000440084F8450084F83D00002010BD7047E4
:103A800070470000022361B1042935D008293BD0DA
:103A900090F84120012A08BF80F8413008D0012069
:103AA000704790F83E20012A08BF80F83E30F6D1DA
:103AB00001F01F03026801219940136A8B431362CE
:103AC000136A194311621A4A0168914203D14B6C7F
:103AD00043F400434B640068904218BFB0F1804F3C
:103AE0001AD0A0F18041B1F580611CBFA0F18041E6
:103AF000B1F5006110D014E090F83F20012A08BF12
:103B000080F83F30CBD1D3E790F84020012A08BF9E
:103B100080F84030C3D1CBE7816801F00701062966
:103B200003D0016841F001010160002070470000EE
:103B3000002C01400068A0F18041B1F5963118BF1A
:103B40007047FEF717BF7047002804BF0120704779
:103B500070B5044690F83D00002520B984F83C502B
:103B6000204600F023F8242084F83D002068C16836
:103B700021F40051C160204601F04EF8206801692F
:103B800021F4904101612068416921F02A014161DD
:103B90002068C16841F40051C1602564202084F888
:103BA0003D0084F83E00002070BD000030B585B0B7
:103BB000002400940194029403940068A0F18041D1
:103BC000B1F59C311CBF05B030BD1348816941F48B
:103BD00080418161816901F480410491816941F0F2
:103BE0000401816180690D4D00F0040004904FF4E0
:103BF000007000900220019003200390694628463F
:103C0000FEF71AFA2815CDE9000469462846029401
:103C1000FEF712FA05B030BD001002400008014066
:103C20002DE9F05F044690F83D001D461646884693
:103C3000202870D1B8F1000F12BF002E0120BDE87E
:103C4000F09F94F83C00012878D0012084F83C00D3
:103C50004FF0000BC4F840B0212084F83D00FEF77F
:103C6000EFFAA6848146E684A068B0F5805F03BFC2
:103C7000206900280026464618BF4FF0000884F847
:103C80003CB0E08C4FF0200A10B300BF20684FF02A
:103C90008007006837EA00000FD000BFB5F1FF3F92
:103CA00006D02DB3FEF7CCFAA0EB0901A9421FD82C
:103CB0002068006837EA0000F0D16EB3216816F87A
:103CC000010B4860E08C401EE084E08C0028DDD1D0
:103CD00020684026006836EA00002AD0B5F1FF3F90
:103CE00022D02DB1FEF7ACFAA0EB0900A8421BD9F7
:103CF0002068C16821F4D071C1602068416921F059
:103D00000101416184F83DA084F83EA084F83CB0F4
:103D10000320BDE8F09F11E0FFE738F8020B2168AF
:103D2000C0F308004860CDE72068006836EA00006C
:103D3000D4D184F83DA00020BDE8F09F0220BDE86A
:103D4000F09FFEE72DE9F0475D4CB4F8108026891E
:103D5000A8EB0600FCF7FAFA5A4F01463846FCF782
:103D6000B7FA0546E0614046FCF7F9FA2946FCF748
:103D70007DFADFF854814146FCF775FAE062B4F849
:103D800012906089A9EB0000FCF7E0FA0146384682
:103D9000FCF79EFA054620624846FCF7E0FA294601
:103DA000FCF764FA4146FCF75EFA2063B4F814901D
:103DB000A089A9EB0000FCF7C9FA01463846FCF7D8
:103DC00087FA054660624846FCF7C9FA2946FCF7BF
:103DD0004DFA4146FCF747FA6063B4F81690E08963
:103DE000A9EB0000FCF7B2FA01463846FCF770FA7E
:103DF0000546A0624846FCF7B2FA2946FCF736FAB7
:103E00004146FCF730FAA063022231460C20FCF751
:103E100069FC0A20FEF7FCF8218A02220E20FCF73A
:103E200061FC0A20FEF7F4F8618902221020FCF7F9
:103E300059FC0A20FEF7ECF8618A02221220FCF7F6
:103E400051FC0A20FEF7E4F8A18902221420FCF7B5
:103E500049FC0A20FEF7DCF8A18A02221620FCF7B2
:103E600041FC0A20FEF7D4F8E18902221820FCF771
:103E700039FC0A20FEF7CCF8E18A02221A20FCF76E
:103E800031FC0A20FEF7C4F82089A087208AA4F814
:103E900044006089E087608AA4F84600A089A4F8FD
:103EA0004000A08AA4F84800E089A4F84200E08A13
:103EB0000649A4F84A0001208872BDE8F087000096
:103EC000D0030020000061440000AF444004002003
:103ED0002DE9F84F044600688846DDE90AA5016827
:103EE0001E46174641F4806101602068016841F474
:103EF00080710160534600224FF001112046009569
:103F000000F0CEF84FF4007938B12068006810F462
:103F1000807F53D0C4F8409050E0216808F0FE0044
:103F20000861DFF8C4B02B4652465946204600F0DF
:103F30000AF9002855D120684169806900902A4615
:103F40005146204600F063F940B1206C042848D166
:103F50002068016841F40071016042E03046FEB221
:103F600001280CD02168380A08612A4651462046AB
:103F700000F04DF918B1206C0428E9D031E0206838
:103F800006612A465146204600F041F918B1206CDE
:103F90000428DDD025E02068016841F480710160CB
:103FA000534600224FF001112046009500F078F8AA
:103FB00038B12068006810F4807FABD10320BDE8E1
:103FC000F88F216808F0FF0040F0010008612B46DF
:103FD00052465946204600F0B6F8002808BFBDE812
:103FE000F88F0120BDE8F88F020001002DE9F843A9
:103FF000044600680F46DDE90896016898461546B4
:1040000041F4807101604B4600224FF001112046BF
:10401000009600F045F850B12068006810F4807FE9
:104020001CBF4FF4007020640320BDE8F8832168B2
:1040300007F0FE00086133464A461849204600F062
:1040400082F810BB20684169806900903246494679
:10405000204600F0DCF840B1206C042815D120681F
:10406000016841F4007101600FE0EFB2B8F1010F97
:104070000ED02168280A086132464946204600F0E1
:10408000C6F828B1206C0428E9D00120BDE8F883E7
:10409000206807610020BDE8F883000002000100ED
:1040A0002DE9F0470446C1F30748DDF82090006889
:1040B0001E4617460D46B8F1010F06D0806925EA65
:1040C00000000004000C1ED005E0406925EA000055
:1040D0000004000C17D00020B8422FD1B6F1FF3FEA
:1040E00006D0FEF7ADF8A0EB0900B0420DD866B1DE
:1040F0002068B8F1010F18D0806925EA000000049B
:10410000000C1ED017E00120E6E7002020632021EC
:1041100084F83D1084F83E00216C41F020012164B8
:1041200084F83C000120BDE8F087406925EA0000E2
:104130000004000C05D00020B842CFD00020BDE81C
:10414000F0870120F8E72DE9F0470446C1F307485E
:104150000068994615460F46B8F1010F24D08069D2
:1041600027EA00000004000C39D000264FF0200A96
:104170002068406910F4806F1DD02068016841F408
:104180000071016021686FF480604861266384F8E3
:104190003DA084F83E60206C40F00400206484F868
:1041A0003C600120BDE8F087406927EA0000000478
:1041B000000CDAD113E0B5F1FF3F06D0FEF740F86E
:1041C000A0EB0900A8420DD865B12068B8F1010F35
:1041D00016D0806927EA00000004000CC8D1002036
:1041E000BDE8F087266384F83DA084F83E60206C2B
:1041F00040F02000206484F83C600120BDE8F08796
:10420000406927EA00000004000CB1D1E7E72DE97E
:10421000F0410446006817460D46406910F0800FD3
:1042200004BF4FF02008002624D12068406910F414
:10423000806F11D021686FF480604861266384F834
:104240003D8084F83E60206C40F00400206484F8D7
:104250003C600120BDE8F081B5F1FF3F05D0FDF7DE
:10426000EFFFC01BA84208D83DB12068406910F09C
:10427000800FDAD00020BDE8F081266384F83D800D
:1042800084F83E60206C40F02000206484F83C609C
:104290000120BDE8F081000070B584B000252448FD
:1042A00000950195214902950160891581600124DD
:1042B00004730575042606614FF460214560C161F1
:1042C000FCF7C0FF002818BFFCF772FE0820CDE9FC
:1042D00000040520029069461548FCF701FF0028FC
:1042E00018BFFCF765FE0720009002200190694688
:1042F0000F48FCF7F5FE002818BFFCF759FE032015
:10430000CDE9005069460A48FCF7EAFE002818BFCC
:10431000FCF74EFE6946CDE900460548FCF7E0FE95
:10432000002818BFFCF744FE04B070BD0024014013
:10433000D80500200F4810B50D49016012214160D9
:1043400000214FF400328160C0E903124FF44012A3
:104350004261017641768176C17601774177FDF73A
:10436000BFFB002808BF10BDBDE81040FCF720BE11
:104370000064004080060020054881B0416941F09A
:1043800001014161406900F00100009001B07047F7
:104390000010024030B5254C9DB094E80F008DE828
:1043A0000F00D4E90401A269CDE9040106920021BD
:1043B000684600F016FE1E4D0DF11C0C286004F13D
:1043C0001C000FC88CE80F00D4E90B01626B0D9242
:1043D000CDE90B01002107A800F003FE686004F19D
:1043E00038000DF1380C0FC88CE80F00D4E9120129
:1043F000226DCDE91201149200210EA800F0F1FD0A
:10440000A86004F154000DF1540C0FC88CE80F00A3
:10441000D4E91901E26E1B92CDE91901002115A81A
:1044200000F0DFFDE8601DB030BD0000BC5A0008A0
:104430000400002030B585B000241D48009401948C
:1044400002940394816941F020018161816901F046
:1044500020010491816941F004018161816901F0C9
:1044600004010491816941F0080181618069114D65
:1044700000F008000490002243F208012846FDF7EE
:10448000DAFE43F2080000900120CDE90104022089
:10449000039069462846FDF7CFFD4FF44C70CDE9F7
:1044A0000004694628460294FDF7C6FD05B030BDFC
:1044B00000100240000C01400D4810B50B4901608E
:1044C0000C49416000214FF480428160C0E9031231
:1044D00041618161C1610162FDF7B8FE002808BF3A
:1044E00010BDBDE81040FCF763BD00000054004063
:1044F000A8060020A0860100094810B50749016000
:104500000421416040F6FF718160FEF7F9F900284F
:1045100008BF10BDBDE81040FCF74ABD00300040A8
:10452000FC06002030B593B000240C940F94109436
:104530003E4D0D940E9411940094019402940394B2
:10454000049405944FF080400694286040F2671070
:10455000C5E9010440F2E730C5E903048020A86101
:104560002846FEF766FF002818BFFCF721FD4FF430
:1045700080500C900CA92D48FEF7D6FF002818BFDC
:10458000FCF716FD2948FFF74DFA002818BFFCF785
:104590000FFD109410A925481194FEF713FF002871
:1045A00018BFFCF705FD6020CDE9000402940C2241
:1045B00069461E480494FFF731F9002818BFFCF73C
:1045C000F7FC089409940A940B942B68184902226A
:1045D0001848B3F1804F17D0A3F1804CBCF5806C24
:1045E0001CBF13B030BD8B6943F004038B61896934
:1045F0000B9201F0040107914021CDE9081208A9AE
:10460000FDF71AFD13B030BD8B6943F004038B61D5
:1046100089690B9201F0040107910821CDE9081284
:1046200008A9FDF709FD13B030BD00000807002000
:10463000001002400008014070B592B000250C95B2
:104640000F9510953D4C0D950E9511950095019582
:104650000295039504950595374E069540F267102F
:104660002660C4E9010540F2E730C4E90305802073
:10467000A0612046FEF7DDFE002818BFFCF798FC7D
:104680004FF480500C900CA92C48FEF74DFF0028E9
:1046900018BFFCF78DFC2948FFF7C4F9002818BFA4
:1046A000FCF786FC109510A924481195FEF78AFEA8
:1046B000002818BFFCF77CFC6020CDE900050295BE
:1046C000002269461D480495FFF7A8F8002818BF86
:1046D000FCF76EFC089509950A950B952368184917
:1046E00002221848B3F1804F14D0B3421CBF12B05D
:1046F00070BD8B6943F004038B6189690B9201F0F3
:10470000040107914021CDE9081208A9FDF794FCA6
:1047100012B070BD8B6943F004038B6189690B9201
:1047200001F0040107910821CDE9081208A9FDF75D
:1047300083FC12B070BD0000000400405007002050
:1047400000100240000801400C4810B50A49016001
:104750004FF4E1314160002181600C22C160C0E969
:1047600004128161C161FFF7EFF9002808BF10BD95
:10477000BDE81040FCF71CBC003801409807002041
:10478000FEE7FEE72DE9F0412E4EF078FBF7E7FD5E
:104790002D49FBF79DFD2D4A0746012150792C4CF0
:1047A000002550B1012818BFBDE8F081107A00281B
:1047B0003BD0D07900283ED034E03088328B00F1F5
:1047C0000A03DFF890804FF448769A4214D9217397
:1047D000101AFBF7BBFD3946FBF748FD4146FBF7D6
:1047E000EDFCFBF7C1FD80B2E080B0F5487F88BFEB
:1047F000E680A580BDE8F081C11E8A4212DA2573E9
:10480000801AFBF7A3FD3946FBF730FD4146FBF765
:10481000D5FCFBF7A9FD80B2A080B0F5487F88BF2A
:10482000A6800BE02573A58008E02173F088E08066
:10483000A580BDE8F0812573B088A080E580BDE843
:10484000F0810000D003002000002041400400203F
:10485000C805002000007A432DE9F0416420FDF7EF
:10486000D7FB01210220FBF7FFFE664C20800A20C7
:10487000FDF7CEFB01210420FBF7F6FEA0700A2015
:10488000FDF7C6FB01210620FBF7EEFEE0700A20D3
:10489000FDF7BEFB02210820FBF7E6FEA0800A2000
:1048A000FDF7B6FB02210A20FBF7DEFEE0800A20BE
:1048B000FDF7AEFB02210C20FBF7D6FEA0870A20F5
:1048C000FDF7A6FB02210E20FBF7CEFEA4F8440064
:1048D0000A20FDF79DFB02211020FBF7C5FEE087B3
:1048E0000A20FDF795FB02211220FBF7BDFEA4F87C
:1048F00046000A20FDF78CFB02211420FBF7B4FED2
:10490000A4F840000A20FDF783FB02211620FBF7E4
:10491000ABFEA4F848000A20FDF77AFB022118201C
:10492000FBF7A2FEA4F842000A20FDF771FB02216A
:104930001A20FBF799FEA4F84A000A20FDF768FB4D
:10494000B4F84470A08F381AFBF700FD2E4E0146D4
:104950003046FBF7BDFC0546E0613846FBF7FFFC3F
:104960002946FBF783FC294F3946FBF77CFCE062C4
:10497000B4F84680E08FA8EB0000FBF7E7FC0146A7
:104980003046FBF7A5FC054620624046FBF7E7FCF6
:104990002946FBF76BFC3946FBF765FC2063B4F84E
:1049A0004880B4F84000A8EB0000FBF7CFFC0146BC
:1049B0003046FBF78DFC054660624046FBF7CFFCB6
:1049C0002946FBF753FC3946FBF74DFC6063B4F80E
:1049D0004A80B4F84200A8EB0000FBF7B7FC0146A0
:1049E0003046FBF775FC0546A0624046FBF7B7FC76
:1049F0002946FBF73BFC3946FBF735FCA063BDE8D5
:104A0000F0810000D003002000007A440000AF4491
:104A10004FF4FA7000F0D8FA1E4C002604F170052D
:104A20002878012808D1218801220220FBF75AFEAC
:104A30000A2000F0C9FA2E706878012820D1E18898
:104A400002220A20FBF74EFE0A2000F0BDFAA188E0
:104A500002220820FBF746FE0A2000F0B5FAA178F2
:104A600001220420FBF73EFE0A2000F0ADFAE178B7
:104A700001220620FBF736FE0A2000F0A5FA6E7030
:104A8000687A012802D1FFF75DF96E720A2000F002
:104A90009BFAC5E7D003002010B5502080F31188A1
:104AA000BFF34F8FBFF36F8F00F03AFF18B1044987
:104AB0004FF080500860002080F3118810BD000086
:104AC00004ED00E0704700000148FEF7F0BD000073
:104AD000DC07002030B40268194BDFF868C01A4CBC
:104AE000984218BFB0F1804F03D0604518BFA04274
:104AF00004D14D6822F0700245EA0202984218BFC4
:104B0000B0F1804F03D0604518BFA04205D1D1F865
:104B10000CC022F440724CEA0202D1F814C022F018
:104B2000800242EA0C0202608A68C2620A688262FB
:104B3000984204BF096901630121416130BC70479B
:104B4000002C014000040040000800404FF47A703F
:104B500000F03AFA0025184CFBF7F8FD0A2000F0A7
:104B600033FAFBF73BFE0A2000F02EFAFBF774FE47
:104B70000A2000F029FAFBF7ADFE0A2000F024FA23
:104B8000FBF7E8FE0A2000F01FFAFBF71FFF0A20E0
:104B900000F01AFAFBF756FF0A2000F015FAA07A87
:104BA000012805D1FBF78AFF0A2000F00DFAA57253
:104BB000142000F009FACFE740040020FBF7E8FFDB
:104BC000FFF7E0FDFCF7B6F80A2000F0FDF9F5E785
:104BD0000B4D0C48FDF7C7FE08212846FDF723FBC7
:104BE0002146601C84B208A000F084F8B4F5967FDA
:104BF00088BF4FF496744FF4FA7000F0E5F9E8E7D7
:104C0000000C0140FC0600204C4544204F4B212164
:104C100020202564200D0A0070B504460068016953
:104C2000E26821F44051114301612169A068084301
:104C3000616901432068C26822F4037222F4A05221
:104C40001143C16020684169A26921F44071114398
:104C500041612068A0F18041B1F59C313CD0FEF764
:104C60006FF900BF00EBC00101EB001260681C4946
:104C70008000B2FBF0F3A1FB0353B2FBF0FC5B0935
:104C80006FF018056B430CEB830C322303EB0C1C09
:104C9000A1FB0C5C4FEA5C1C0CF0F005B2FBF0FCD5
:104CA000A1FB0C6C4FEA5C1C05EB0C1CB2FBF0F595
:104CB000B2FBF0F0A1FB002040096FF01802504356
:104CC00005EB800003EB0010A1FB00102168C0F38E
:104CD00043106044886070BDFEF742F9C2E70000EF
:104CE0001F85EB510148FCF7E0BD00008006002065
:104CF000FEE700000FB4054B10B503A9044A029863
:104D000000F018F810BC5DF814FB0000894E000894
:104D10009800002002E008C8121F08C1002AFAD13A
:104D200070477047002001E001C1121F002AFBD12B
:104D3000704700002DE9FF4F89B09B4604460025CF
:104D400006E025280BD05A460B999047641C6D1C31
:104D500020780028F5D10DB02846BDE8F08F002757
:104D6000B8460122474900E0074314F8013F203BC1
:104D700002FA03F00842F7D120782E2819D114F84E
:104D8000010F47F004072A280ED06FF02F02207879
:104D9000A0F1300109290CD808EB880102EB410190
:104DA00000EB0108641CF2E70A98641C50F8048BBD
:104DB0000A9020780028CED0642808D0692806D030
:104DC00075281ED05A460B9990476D1C58E00A99D9
:104DD0004FF00A0901C90A91002802DA40422D2148
:104DE00002E0390504D52B218DF82010012103E0C4
:104DF000F90704D02021F7E78A4608AE0DE000212C
:104E0000FAE70A994FF00A0901C90A91F7E74946FA
:104E1000FBF7BEFA303106F8011D0028F7D1ADEBE3
:104E2000060000F12009780701D44FF00108C845B9
:104E300002DDA8EB090000E000208046002706E024
:104E400008A85A46C05D0B9990476D1C7F1C5745BA
:104E5000F6DB04E030205A460B9990476D1CB8F100
:104E60000001A8F10108F5DC05E016F8010B5A462F
:104E70000B9990476D1CB9F10001A9F10109F4DC0F
:104E8000641C65E70928010013B54FF6FF73012282
:104E900069460348FEF7C4FE009802B010BD00004A
:104EA0009807002094B0FDF76DFD002405940A9446
:104EB0000B9409200121029403940E941094009005
:104EC0000C940D9413944FF4803006911194129425
:104ED000049102250190CDE907504FF4E0100990AC
:104EE0006846FEF789F808B172B6FEE70F20CDE9F3
:104EF0000A054FF48060CDE90C4002210AA80E9407
:104F0000FDF71CFF08B172B6FEE74FF400401290A7
:104F1000109510A8FDF77CFE08B172B6FEE7FFF70A
:104F200089FAFFF707FAFFF7C7FAFFF7FBFAFFF76F
:104F300083FBFFF709FCFFF71FFAFFF7ADF9FFF757
:104F4000DBFAFBF7E5FD1148FCF734F810A0FFF79A
:104F5000D1FE13A0FFF7CEFE0C211548FEF792FDFF
:104F600000211448FEF78EFD042213490748FCF780
:104F70005FFA08B172B6FEE7FBF716FFFBF72AFFF0
:104F8000FFF708FA00F028F8FEE70000D805002037
:104F900043414E20496E6974204F4B21210D0A0078
:104FA000416C6C20496E6974204F4B21210D0A0021
:104FB0000807002050070020A000002000218428BE
:104FC00000D0C11C0846704710B5002800D1012050
:104FD00000F042FB002010BD10B500F065FB002082
:104FE00010BD30B585B004460D466169B4F90800BE
:104FF000002910D0A16971B1FFF7E0FF6269A169D2
:105000000192029100902B4622692168606800F0AD
:1050100057FC049010E0FFF7D1FF04A90191009024
:10502000208A2B4682B22168606800F013FC0128B8
:1050300002D005B0002030BD049805B030BD00009E
:105040002DE9F04104460F46194E75693068001D80
:1050500000F038FA48B93068012190F82C0001FAC4
:1050600000F0B16921EA0000B061B4F1FF3F07D15F
:1050700037B13068BDE8F041011D0E4800F069BA53
:105080002C4430684460AC4206D23068011DB068E0
:10509000BDE8F04100F042BA3068011D706800F0D0
:1050A0003DFA306B844200D23463BDE8F0810000E9
:1050B000380000200009002070B5044600F056FAC0
:1050C0001C4D2869401C2861286810B1E86938B176
:1050D0000CE02C602869012808D100F0E7F805E011
:1050E0002868E16AC06A884200D82C60E86A401CDF
:1050F000E862E06A0121AA6981401143A9610E4971
:1051000000EB800001EB8000211D00F022FA00F08E
:105110004DFAE86900280CD02868E16AC06A884224
:1051200007D206494FF080500860BFF34F8FBFF39E
:105130006F8F70BD380000202408002004ED00E0CF
:1051400070B50D4CE068002815D00C4E00F00EFA3A
:10515000F068C568281D00F0B5F92069401E20617F
:10516000E068401EE06000F021FA284600F008F8F0
:10517000E0680028EAD170BD38000020EC0800206B
:1051800010B5044694F8511000290BD0012911D014
:10519000022914D0502080F31188BFF34F8FBFF342
:1051A0006F8FFEE7206B00F017FA2046BDE8104035
:1051B00000F012BA2046BDE8104000F00DBA10BD54
:1051C0004FF44061104810F0070F06D0C01D20F0CA
:1051D00007000D49411AC1F540610C4A10600023D7
:1051E00053600144083921F00701103A11604B6007
:1051F0000B600B1A436001604068906050604FF094
:105200000040D06070470000140900208400002096
:10521000074E4FF08054074DFFF792FF306801288A
:10522000FAD92C60BFF34F8FBFF36F8FF4E7000004
:105230002408002004ED00E02DE9F0478146099E96
:10524000089D0A9C9A46521E206B00EB820020F0BB
:1052500007080027002023180A5C83F834200A5C22
:1052600012B1401C1028F6D384F84370072D00D3E8
:105270000625E5626564A764201D00F04CF904F181
:10528000180000F048F92461C5F10700A0616462CC
:10529000E76484F8507052464946404600F000F9F1
:1052A0002060002E00D03460BDE8F08770B5002487
:1052B0000F4D04EB840005EB800000F021F9641C25
:1052C000072CF6D30B4800F01BF90B4800F018F937
:1052D0000A4800F015F90A4800F012F9094800F0F0
:1052E0000FF90948034941601431816070BD000025
:1052F00024080020B0080020C4080020D80800209E
:10530000EC080020000900203800002010B41449E7
:1053100000E011460A688242FBD34B6803EB010CA4
:10532000844503D140681844486008460C68D0F8AA
:1053300004C00CEB0003A3420CD10A4B1B689A4239
:1053400006D05268624442600A681268026002E055
:10535000036000E00260814200D0086010BC70472A
:105360008400002074000020074948680068002875
:1053700005D04868C068C0684068086370474FF04F
:10538000FF30086370470000380000200A4840687A
:10539000B0F1FF3F07D0502080F31188BFF34F8F4B
:1053A000BFF36F8FFEE7502080F31188BFF34F8F5C
:1053B000BFF36F8FFEE700008C0000202DE9F04165
:1053C0000546002600F0B4F9334F386808B9FFF7F6
:1053D000F7FEF86805424ED19DB1083515F0070F6C
:1053E0000FD005F00700C0F10800054415F0070FC5
:1053F00007D0502080F31188BFF34F8FBFF36F8F1A
:10540000FEE7002D37D07868854234D82349084616
:10541000046801E0214604466068A84202D2206880
:105420000028F7D13868844225D0086800F10806C2
:10543000206808606068411B10290FD9601910F0BE
:10544000070F07D0502080F31188BFF34F8FBFF3B1
:105450006F8FFEE741606560FFF758FF616878680D
:10546000401A7860BA68904200D2B860F868084381
:1054700060600020206000F0BBFA16F0070F07D034
:10548000502080F31188BFF34F8FBFF36F8FFEE77B
:105490003046BDE8F0810000740000208400002048
:1054A000001F4FF080730360001F21F001010160B5
:1054B000001F034901601438026020387047000063
:1054C0008D5300080169436882689A608368426866
:1054D0005A604A68824201D182684A6000220261B1
:1054E0000868401E0860086870470000034B0360AE
:1054F00003F1540008604020106070475004002001
:1055000000F1080141604FF0FF328260C16001612B
:1055100000210160704700210161704710B4D1F88B
:1055200000C0BCF1FF3F02D000F1080202E00269B6
:1055300004E01A4653681C686445FAD953684B6006
:1055400099608A60516008610168491C016010BC63
:10555000704742684A6093688B60936859609160B5
:1055600008610168491C016070470000502080F309
:105570001188BFF34F8FBFF36F8F0A494868401CF3
:10558000486001280CD10848006810F0FF0F07D0D0
:10559000502080F31188BFF34F8FBFF36F8FFEE76A
:1055A000704700008C00002004ED00E009494868C5
:1055B000002806D0401E4860002801D180F31188E1
:1055C0007047502080F31188BFF34F8FBFF36F8F68
:1055D000FEE700008C00002070B5002827D0A0F165
:1055E0000804134D6068E968084207D1502080F331
:1055F0001188BFF34F8FBFF36F8FFEE722683AB178
:10560000502080F31188BFF34F8FBFF36F8FFEE7F9
:105610008843606000F08CF86068696808446860DE
:105620002046FFF773FEBDE8704000F0E1B970BDA1
:10563000740000204FF0E0200021016181610549E4
:105640004FF47A720968B1FBF2F1491E41610721FA
:10565000016170473400002010B502460020002A86
:1056600012D00F48806B38B1502080F31188BFF3FF
:105670004F8FBFF36F8FFEE700F05AF800211046FE
:10568000FFF7DEFC00F0B4F9002807D105494FF020
:1056900080500860BFF34F8FBFF36F8F10BD0000C5
:1056A0003800002004ED00E010B586B00024059419
:1056B000049403AA04A905A8FFF718FF0598049904
:1056C000019102900023009415A11748039A00F05D
:1056D000F7F81649486308B1012000E000200128CE
:1056E0000AD0B0F1FF3F19D1502080F31188BFF3E9
:1056F0004F8FBFF36F8FFEE7502080F31188BFF309
:105700004F8FBFF36F8F4FF0FF3008630120C861E8
:105710004C6106B0BDE8104000F042B806B010BDC4
:1057200049444C4500000000115200083800002098
:105730000248816B491C81637047000038000020DB
:10574000154A906B002802D001205062704700205B
:1057500050629069B0FA80F0C0F11F000F4900EB71
:10576000800051F8203073B101EB80004168496836
:10577000416000F10803994201D1496841604068E5
:10578000C06810607047502080F31188BFF34F8FBE
:10579000BFF36F8FFEE700003800002024080020D0
:1057A00000B583B0284908780290FF200870087877
:1057B00001909DF804009DF8042000F0F000904254
:1057C00007D0502080F31188BFF34F8FBFF36F8F46
:1057D000FEE79DF804001D4B00F0500018700720F4
:1057E00098609DF8040010F0800F0BD09868401E60
:1057F00098609DF80400400001909DF8040010F0AE
:10580000800FF3D19868032807D0502080F31188C7
:10581000BFF34F8FBFF36F8FFEE74FF44070986078
:10582000029808700A48016841F47001016001683B
:1058300041F070410160FFF7FDFE00205860FAF76B
:1058400071FC03B0002000BD00E400E08C000020EB
:1058500020ED00E02DE9F04F85B081460F9F0E9EB0
:105860008A4690469B464FEA8800FFF7A7FD05460B
:1058700028000AD05420FFF7A1FD04460CB125638F
:1058800004E02846FFF7A8FE00E000249CB10020B9
:1058900084F8510003905B464246514601970096BA
:1058A00002944846FFF7C8FC2046FFF705FC05B008
:1058B0000120BDE8F08F05B04FF0FF30BDE8F08F5C
:1058C00070B586B00646DDF828C00C9C0B98002801
:1058D00016D0ECB1542504952063022084F85100C1
:1058E000002005AD0390CDF800C00195029430462C
:1058F000FFF7A2FC2046FFF7DFFB059806B070BD5E
:10590000502080F31188BFF34F8FBFF36F8FFEE7F6
:10591000502080F31188BFF34F8FBFF36F8FFEE7E6
:105920002DE9F0470026304FB86B002808D0386AC0
:10593000401C3862786A00B101263046BDE8F08725
:105940007869451C7D619DB97868006838B1502040
:1059500080F31188BFF34F8FBFF36F8FFEE7786836
:10596000B9687960B860B86A401CB862FFF7FCFC9F
:10597000386BDFF8788085420FD34FF001097868E3
:10598000006838B17868C068C468606885420ED223
:10599000386302E04FF0FF3038633868C06A00EBCC
:1059A000800058F820000128C4D90126C2E7201D34
:1059B000FFF788FDA06A18B104F11800FFF782FD17
:1059C000E16ABA6909FA01F01043B86101EB81009C
:1059D00008EB8000211DFFF7BCFDE06A3968C96A49
:1059E0008842CCD30126CAE73800002024080020D2
:1059F0002DE9F0470024A0462D4DA86B002807D0C4
:105A0000FFF7B4FDA86B401EA863A86B40B149E046
:105A1000502080F31188BFF34F8FBFF36F8FFEE7E5
:105A2000286900283ED0234F3868012600B3A7F12B
:105A3000B409F868C46804F11800FFF743FD201D9D
:105A4000FFF740FDE06AAA6906FA00F11143A96177
:105A500000EB800009EB8000211DFFF77AFDE06A72
:105A60002968C96A884200D36E6238680028E0D18C
:105A70000CB1FFF779FC2C6A44B1FFF751FF00B17C
:105A80006E62641E002CF8D100202862686A48B15A
:105A90004FF0010808494FF080500860BFF34F8F66
:105AA000BFF36F8FFFF782FD4046BDE8F08700002F
:105AB00038000020D808002004ED00E0445B000816
:105AC000114A000800000000000000004000000033
:105AD0000000000000000000505B0008D14B0008EF
