:020000040800F2
:10000000D813002099010008D31A00083B190008F2
:10001000D11A000899030008F91D0008000000002B
:1000200000000000000000000000000001010008C6
:10003000D30300080000000045010008B51B0008BC
:10004000B3010008B3010008B3010008B3010008C0
:10005000B3010008B3010008B3010008B3010008B0
:10006000B3010008B3010008B30100089D030008B4
:10007000B3010008B3010008B3010008B301000890
:10008000B3010008B3010008B3010008B301000880
:10009000B3010008B3010008B3010008B301000870
:1000A000B3010008651C0008B3010008B301000893
:1000B000B3010008B3010008B3010008B301000850
:1000C000B3010008B3010008B3010008B301000840
:1000D000B3010008B3010008B3010008B301000830
:1000E000B3010008B3010008B3010008DFF80CD029
:1000F00000F09EF800480047C91F0008D8130020F0
:10010000224B19680868B0E8F00F80F30988BFF344
:100110006F8F4FF0000080F311884EF00D0E704786
:100120000000000006480068006880F3088862B696
:1001300061B6BFF34F8FBFF36F8F00DF00BF00BF0B
:1001400008ED00E0EFF30980BFF36F8F0F4B1A68E3
:1001500020E9F00F106008B54FF0500080F31188CF
:10016000BFF34F8FBFF36F8F02F022FB4FF0000001
:1001700080F31188BDE8084019680868B0E8F00FFE
:1001800080F30988BFF36F8F704700BF2400002001
:10019000EFF3058070470000064880470648004797
:1001A000FEE7FEE7FEE7FEE7FEE7FEE7FEE7FEE727
:1001B000FEE7FEE7611C0008ED00000840EA0103CD
:1001C0009B0703D009E008C9121F08C0042AFAD20D
:1001D00003E011F8013B00F8013B521EF9D27047D1
:1001E000D2B201E000F8012B491EFBD27047002279
:1001F000F6E710B513460A4604461946FFF7F0FF26
:10020000204610BD30B50B460146002020220124B7
:1002100009E021FA02F59D4205D303FA02F5491BD4
:1002200004FA02F52844151EA2F10102F1DC30BDEA
:10023000064C074D06E0E06840F0010394E8070033
:1002400098471034AC42F6D3FFF754FFBC2B00089C
:10025000DC2B000870B5044600688168C943C907F3
:1002600017D1816821F00101816000F01FFD054672
:100270000AE000BF00F01AFD401B022804D92068E4
:100280008068C043C00706D020688068C043C007AC
:10029000F0D0002070BDA06A40F01000A062E06ABB
:1002A00040F00100E062012070BD10B50146406AD7
:1002B000826A12F0500F05D0006A026BBDE8104050
:1002C00008461047816A41F40071816201688968BB
:1002D000C1F3424107290CD1017B51B9816A21F454
:1002E00080718162816AC90403D4816A41F001018D
:1002F000816200F05BF910BD10B5406A816A41F07F
:1003000040018162C16A41F00401C16200F050F90C
:1003100010BD10B5406A00F04AF910BDF8B50026CE
:100320000446009600688168C943C9072DD08168DA
:1003300041F001018160164816490068B0FBF1F0F8
:1003400000E0401E00900028FBD100F0AFFC054605
:1003500016E000BF00F0AAFC401B022810D920685C
:100360008068C043C0070BD0A06A40F01000A062B4
:10037000E06A40F00100E06284F824600120F8BDEA
:1003800020688068C043C007E4D10020F8BD0000A9
:100390002000002040420F00FEE70000014800F06E
:1003A00077BA00000C02002030B590F840500124CC
:1003B000AC40C56B6C60046863604368102B0368D5
:1003C00003D099600068C26030BD9A600068C16067
:1003D00030BD704772B6FEE7F8B5002504460095BB
:1003E00090F82400012808D0012084F82400204639
:1003F000FFF730FF060002D053E00220F8BDA06AEC
:1004000020F4885040F00200A062022000F040FD7D
:1004100026490968B1FBF0F0400000E0401E009062
:100420000028FBD12046FFF779FF2068816841F062
:100430000801816000F03AFC074608E000F036FC55
:10044000C01B0A2803D920688068000715D42068DB
:1004500080680007F2D42068816841F0040181605F
:1004600000F024FC074612E000F020FCC01B0A2824
:100470000DD920688068400709D5A06A20F00200E5
:1004800040F01000A06284F824500120F8BD2068DC
:1004900080684007E8D4A06A20F0020040F0010024
:1004A000A06284F824503046F8BD000020000020EF
:1004B000F8B50024009490F824202546012A12D093
:1004C000012280F824204A681F23072A0DD20668DB
:1004D000776B521E02EB820293409F430B6893405E
:1004E0001F43776319E00220F8BD06680D2A0AD27F
:1004F000376BD21F02EB820293409F430B689340FD
:100500001F43376309E0F76A0D3A02EB820293401A
:100510009F430B6893401F43F7620A6807230668EE
:100520000A2A0AD3F7680A3A02EB420293409F4331
:100530008B6893401F43F76008E0376902EB420283
:1005400093409F438B6893401F4337610A68102A8A
:1005500001D0112A20D1124B02689A4217D1936818
:100560001B0219D4936843F40003936009681029AF
:1005700012D10C490C4A0968B1FBF2F101EB81017F
:10058000490000E0491E00910029FBD104E0816A86
:1005900041F020018162012480F824502046F8BDFA
:1005A000002401402000002040420F0070477047A7
:1005B000704700002DE9F0414FF0000704003D4670
:1005C0007ED0A06A002628B9E66284F8246020461E
:1005D00000F07EF82046FFF73DFEA16AC90600D470
:1005E00020B1A06A40F01000A06269E0A16A21F485
:1005F000885141F00201A1626268E169237B0A43EC
:1006000047EA43010A43A1684FF48077B94209D011
:10061000012907D05FF0000194F814C0BCF1010F6C
:1006200002D00AE03946F7E7F3B1A36A43F02003AA
:10063000A362E36A43F00103E3622368D3F804C0D2
:100640002CF4694C4CEA010CC3F804C021688B6897
:10065000DFF870C003EA0C0313438B60A168B94252
:100660000BD0012909D00CE0DFF85CC0A3690CEBCA
:1006700043330B4343F40061DFE7218A0D05A5F501
:1006800080152168CB6A23F470032B43CB62216869
:1006900089680E4B1940914208D1E662A16A21F0A7
:1006A000020141F00101A162BDE8F081A06A20F0E1
:1006B000020040F01000A062E06A40F00100E06239
:1006C0000120F1E7FDF7E1FF00E0FFFFFE0E1FFF55
:1006D000F0B585B000260546009601960296039671
:1006E0000068224988423ED12149886940F400705F
:1006F0008861886900F400700490886940F0040003
:100700008861886900F004000490886940F008005E
:10071000886188698027032400F00800CDE900740F
:1007200004906946134800F0C3F90120CDE90004A4
:100730006946114800F0BCF9114C1048C4E90006A4
:100740008015A660C4E90370800060612020A0616C
:100750004FF44050E061204600F044F908B1FFF743
:1007600039FE2C62656205B0F0BD00000024014036
:100770000010024000080140000C01400800024047
:100780000C0200202DE9F047894604463B490068E9
:100790003B4F0E1D9046884201D0B84207D13068C9
:1007A00010F4702F03D001252846BDE8F08794F897
:1007B000240001280CD0012084F824002046FFF7F3
:1007C000ADFD05004FF0000004D084F82400EBE7F5
:1007D0000220EAE7A16A40F60162914341F4807188
:1007E000A1622168B94218D1326812F4702F14D076
:1007F000A16A41F48011A1623168490505D5A16A59
:1008000021F4005141F48051A162A16AC9040AD5C2
:10081000E16A21F00601E16206E0A26A22F4801298
:10082000A2624968E9E7E06284F82400216A154879
:100830008862216A1448C862216A144808632168E2
:100840006FF0020008602068816841F48071816067
:10085000216843464A464C31206A00F0F1F820688E
:100860008168C1F342410729816803D041F48011B6
:10087000816099E741F4A001FAE7000000240140FB
:1008800000280140AB02000813030008F902000829
:100890002DE9F05FC16B0C6801680B68D0F840C0AF
:1008A000042202FA0CF2494DDFF824A1494E4A4FC6
:1008B000DFF828B1DFF828E122422CD05A072AD5E8
:1008C0000A68920603D40A6822F004020A600168EA
:1008D000A94201D1042219E0514501D1402215E07D
:1008E000B14202D14FF4806210E0B94202D14FF41C
:1008F00080420BE0594502D14FF4802206E0714559
:1009000002D14FF4800201E04FF080622F49083994
:100910004A60C16A3BE04FF0020808FA0CF818EA96
:10092000040F4FF000094FF0010235D05FEA8378E1
:1009300032D50B689B0605D40B6823F00A030B60C5
:1009400080F821200168A94201D1022219E0514515
:1009500001D1202215E0B14202D14FF4007210E023
:10096000B94202D14FF400520BE0594502D14FF485
:10097000003206E0714502D14FF4001201E04FF061
:100980000072124908394A6080F82090816A002973
:100990001AD0BDE8F05F0847082505FA0CF5254296
:1009A00012D01B0710D50B6823F00E030B6090F8D4
:1009B0004010C36B02FA01F15960826380F8212074
:1009C00080F82090016BE2E7BDE8F09F080002404C
:1009D0001C00024030000240440002405800024027
:1009E0006C00024030B528B308C8134914221944DA
:1009F000B1FBF2F18900C1631049816302214177A3
:100A00001A6843F6F0718A43D0E900142143D0E913
:100A100002452C43214304692143446921438469ED
:100A2000214311431960002141630122427701777C
:100A3000084630BD012030BDF8FFFDBF0000024078
:100A400070B5044690F82000002501280CD0012044
:100A500084F8200094F821600020012E06D084F84C
:100A600020000225284670BD022070BD022684F8B1
:100A70002160A0632068066826F001060660204613
:100A8000FFF792FCE06A00282068016802D041F07C
:100A90000E0106E021F0040101602068016841F0C8
:100AA0000A0101602068016841F001010160D9E795
:100AB0002DE9F84FDFF8B891002409F1040A0AF192
:100AC000040B23460F270BF1040EC9E00125A540B6
:100AD0002A40AA427DD1674ED1F804C0ACEB06088B
:100AE000B44532D014DCBCF1030F3AD009DCBCF1C0
:100AF000000F2AD0BCF1010F1CD0BCF1020F31D184
:100B00001DE0BCF1110F17D0BCF1120F2AD119E072
:100B1000B8F5881F19D006DCB8F5803F15D0B8F5B8
:100B2000801F1FD111E0B8F5001F0ED0B8F5041FCB
:100B300018D10AE0CB6815E0CB681B1D12E0CB682A
:100B400008330FE0CB680C330CE08B682BB1012B22
:100B50004FF0080303D0456104E0042302E005617F
:100B600000E00023FF2A01D8064601E000F1040658
:100B70004FEA840501D9A5F12005D6F8008007FACF
:100B800005FC28EA0C0803FA05F548EA0508C6F84A
:100B900000804D68ED0062D5374DAE6946F0010624
:100BA000AE61AD6924F0030605F001050095334DF3
:100BB00006EB050CDCF80850A607360F07FA06F816
:100BC00025EA0805DFF8B880404503D14FF000085A
:100BD00017E044E0DFF8AC80404502D14FF0010857
:100BE0000FE0DFF8A480404502D14FF0020808E092
:100BF000DFF89880404502D14FF0030801E04FF044
:100C0000040808FA06F848EA0508CCF808804D6898
:100C1000D9F80060ED034D4601D5164300E0964338
:100C20002E604D68DAF80060AD03554601D51643D5
:100C300000E096432E604D68DBF80060ED025D46F3
:100C400001D5164300E096432E604D68DEF8006043
:100C5000AD02754601D5164300E096432E60641C34
:100C60000D682A46E5407FF431AFBDE8F88F0000FB
:100C7000000401400000111000100240000001407B
:100C800000080140000C0140001001400014014028
:100C9000C26821EA02030A4043EA02410161704747
:100CA0000AB1016170470904FBE700000148806850
:100CB000704700001400002070B5040011D02168B6
:100CC0004CF6CC400860216845F255500860D4E9E4
:100CD000000141602168A0688860FFF7E7FF0546D2
:100CE0000DE0012070BD00BFFFF7E0FF401B27288B
:100CF00005D92068C068800701D0032070BD206836
:100D0000C0688007F0D121684AF6AA200860002058
:100D100070BD00684AF6AA210160002070470000FB
:100D200002488168027811448160704714000020F5
:100D3000074810B5016841F010010160032000F080
:100D400095F80F2000F006F800F03EF8002010BDE6
:100D50000020024000B5014687B00022192000F0B3
:100D600065F8192000F054F81348816941F40061D6
:100D70008161806905A900F400600690684600F072
:100D8000F7F900F025FA0D490D4AB0FBF1F10D48D5
:100D9000491E0260416040F2E7320021C0E90321B0
:100DA000816000F0EDFB10B1012007B000BD0548E7
:100DB00000F014FCF9E700000010024040420F0070
:100DC000002C0140A00200200F4808B5816941F0C5
:100DD00001018161816901F001010091C16941F066
:100DE0008051C161C069002200F0805000900F2145
:100DF000901E00F01BF80548416821F0E06141F0C9
:100E00000071416008BD0000001002400000014078
:100E1000002809DB00F01F020121914040098000F9
:100E200000F1E020C0F8001170470000F0B40E4B54
:100E30001B680C46C3F30223C3F10705042D00D938
:100E40000425191D072901D2002300E0DB1E01261D
:100E500006FA05F1491E214099409E40761E164033
:100E60003143F0BC00F0DABF0CED00E0064900F0C1
:100E7000070208684FF6FF03184040EA0220034AC1
:100E800010430860704700000CED00E00000FA0518
:100E900010B529A401461DCC86B08DE81D002AA0FE
:100EA0002A4C006804900020012923D002293AD05E
:100EB00010291DD161682268D20119D5C1F383427E
:100EC000C9031DF8020009D5616804AAC1F34041B5
:100ED000515C1F4AB2FBF1F1484301E01D49484310
:100EE0006168490204D440005FF00301B0FBF1F0F7
:100EF00006B010BD226AC2F30121012903D1920775
:100F000001D5C803F4E7022905D1626A920702D528
:100F100049F64040ECE70329EAD121688903E7D587
:100F20004FF22440E4E700F053F96168C1F38131E6
:100F3000491C4900DAE70000020304050607080916
:100F40000A0B0C0D0E0F10100102000000100240E1
:100F500000127A0000093D002DE9F84305460078AB
:100F6000354CC00754D0E0690026C00008D4E069C1
:100F700040F08050E061E069012600F08050009070
:100F80002E480168C90512D40168804641F4807179
:100F90000160FFF78BFE074605E000BFFFF786FE06
:100FA000C01B642823D8D8F80000C005F6D5206AF5
:100FB00010F4407021D0A98801F4407181421CD006
:100FC000206A1F49012220F440700A6000220A6052
:100FD0002062C00711D0FFF769FE074641F288384A
:100FE00008E000BFFFF762FEC11B414502D90320A4
:100FF000BDE8F883206A8007F4D5206A696820F488
:101000004070084320621EB1E06920F08050E0612A
:101010002878800705D56068A96820F44040084317
:1010200060602878C00605D56068E96820F4800013
:10103000084360600020DBE70010024000700040C1
:10104000400442422DE9F0470F46050061D0434E6F
:10105000306800F00700B84209D2306820F007007D
:1010600038433060306800F00700B84251D128683A
:101070003B4C810712D5400703D5606840F4E0601F
:1010800060602878000703D5606840F460506060B5
:101090006068A96820F0F000084360602878C00705
:1010A00028D06868012810D02168022810D089074C
:1010B00000292EDA616821F0030101436160FFF726
:1010C000F5FD804641F288390DE021688903EFE79C
:1010D0008901EDE7FFF7EAFDA0EB0801494502D9D8
:1010E0000320BDE8F0876068696800F00C00B0EB91
:1010F000810FEFD1306800F00700B8420BD930689B
:1011000020F0070038433060306800F00700B84234
:1011100001D00120E5E72878400705D56068E96837
:1011200020F4E060084360602878000706D5606816
:10113000296920F4605040EAC100606000F058F86E
:101140006168084AC1F30311515CC8400649086050
:1011500006480068FFF7FEFD0020C2E700200240BD
:1011600000100240802B0008200000201800002002
:101170000F2202600C4A536803F003034360536874
:1011800003F0F0038360536803F4E063C3605268C4
:101190004FF4E06303EAD20202610448006800F001
:1011A0000700086070470000001002400020024065
:1011B0000448054900684968044AC1F30221515CAA
:1011C000C84070472000002000100240902B00080B
:1011D0000448054900684968044AC1F3C221515CCA
:1011E000C84070472000002000100240902B0008EB
:1011F00012A185B00FC98DE80F0014A0144A006831
:1012000004905168134801F00C03042B10D0082BF4
:101210000ED1C1F38343C9031DF803000AD55168F9
:1012200004AAC1F34041515C0A4A5043B0FBF1F0BB
:1012300005B0704708494843FAE700000203040577
:10124000060708090A0B0C0D0E0F10100102000012
:101250000010024000127A0000093D002DE9F84F0D
:10126000040070D02078C04DC00749D06868C0F332
:101270008100012807D06868C0F38100022809D1E5
:101280006868C00306D52868800339D560680028DF
:10129000E7D035E06068B0F5803F0BD010B1B0F515
:1012A000A02F11D0286820F480302860286820F40E
:1012B000802002E0286840F480302860606890B1A7
:1012C000FFF7F4FC06460AE0286840F48020286016
:1012D000F0E700BFFFF7EAFC801B642873D828689A
:1012E0008003F7D50CE0FFF7E1FC064605E000BF00
:1012F000FFF7DCFC801B6428F0D828688003F7D453
:1013000020789A4E80074FF001094FF0000839D538
:10131000686810F00C0F07D06868C0F381000228DD
:1013200009D16868C00306D42868800714D52069ED
:10133000012808D110E02069B0B1C6F80090FFF78D
:10134000B5FC074605E00AE1FFF7B0FCC01B022828
:10135000C4D828688007F7D52868616920F0F800AC
:1013600040EAC10028600DE0C6F80080FFF79EFC4F
:10137000074604E0FFF79AFCC01B022823D8286820
:101380008007F7D4207800072CD57948A169D9B116
:10139000C0F80090FFF78AFC074604E0FFF786FCE0
:1013A000C01B02280FD8686A8007F7D571484FF430
:1013B000FA510068B0FBF1F0009000BF0098411EA8
:1013C0000091FAD20EE080E0C0F80080FFF76EFCDA
:1013D000074604E0FFF76AFCC01B022875D8686A5C
:1013E0008007F7D42078400760D5E8690027C0005F
:1013F00008D4E86940F08050E861E869012700F00E
:10140000805000905C480168C90513D40168834688
:1014100041F480710160FFF749FC824606E000BF9D
:10142000FFF744FCA0EB0A0064284ED8DBF800006C
:10143000C005F5D5E06801280AD008B1052813D009
:10144000286A20F001002862286A20F0040002E0E7
:10145000286A40F001002862E06841F2883B98B1B8
:10146000FFF724FC82460BE0286A40F00400286263
:10147000EEE700BFFFF71AFCA0EB0A0159455AD866
:10148000286A8007F6D50CE0FFF710FC824605E0DD
:10149000FFF70CFCA0EB0A0159454CD8286A8007DD
:1014A000F6D41FB1E86920F08050E861E06988B3A4
:1014B0006968C1F38101022944D00228C6F860801E
:1014C00004D0FFF7F3FB044638E034E0FFF7EEFB0F
:1014D000074604E0FFF7EAFBC01B02282BD8286868
:1014E0008001F7D4206AB0F5803F05D16868A16813
:1014F00020F4003008436860D4E9080108436968B3
:1015000021F4741108436860C6F86090FFF7CEFBC1
:10151000044606E025E000BFFFF7C8FB001B0228D9
:1015200009D828688001F7D51BE000BFFFF7BEFB94
:10153000001B022802D90320BDE8F88F286880012B
:10154000F4D40EE00128F7D06868226A00F48031F4
:10155000914204D1616A00F47010884201D00120E8
:10156000EAE70020E8E700000010024000004242E5
:101570008004424220000020007000407047704705
:1015800010B5040003D094F83D0010B107E001202D
:1015900010BD002084F83C00204600F01EF8022018
:1015A00084F83D00211D206800F062FB012084F8D2
:1015B000460084F83E0084F83F0084F8400084F838
:1015C000410084F8420084F8430084F8440084F821
:1015D000450084F83D00002010BD704790F83D1094
:1015E000012901D001207047022180F83D100168D7
:1015F000CA6842F00102CA6000680B49884208D0FC
:10160000B0F1804F05D00949884202D0084988428C
:1016100004D1816801F00701062903D0016841F077
:101620000101016000207047002C014000040040CF
:1016300000080040704770B50446006801694FF02B
:101640000005C943890715D4C168C943890711D466
:10165000E91E01610120207720688069800720460B
:1016600002D0FFF7E7FF04E000F098F8204600F012
:1016700096F8257720680169C943490717D4C168DE
:10168000C943490713D46FF0040101610220207798
:101690002068806910F4407F204602D0FFF7CAFF1F
:1016A00004E000F07BF8204600F079F82577206808
:1016B0000169C943090716D4C168C943090712D48F
:1016C0006FF008010161042020772068C06980075D
:1016D000204602D0FFF7AEFF04E000F05FF820469E
:1016E00000F05DF8257720680169C943C90617D461
:1016F000C168C943C90613D46FF010010161082005
:1017000020772068C06910F4407F204602D0FFF7A0
:1017100091FF04E000F042F8204600F040F8257701
:1017200020680169C943C90708D1C168C943C9070D
:1017300004D1891E0161204600F032F82068016959
:10174000C943090609D4C168C943090605D46FF025
:10175000800101612046FFF711FF20680169C9433C
:10176000490609D4C168C943490605D46FF0400150
:101770000161204600F01EF820680169C94389060E
:101780000BD4C168C943890607D46FF020010161F9
:101790002046BDE87040FFF7F2BE70BD704770474D
:1017A00000680349884201D1FFF7BABA70470000C8
:1017B000002C0140704770B5040004D094F83D003F
:1017C000002510B106E0012070BD84F83C50204691
:1017D00000F022F8242084F83D002068C16821F43C
:1017E0000051C160204600F079FA2068016921F4B7
:1017F000904101612068416921F02A01416120681E
:10180000C16841F40051C1602564202084F83D0086
:1018100084F83E00002070BD30B585B000240094EF
:1018200001940294039400681449884224D1144816
:10183000816941F480418161816901F480410491B1
:10184000816941F00401816180690E4D00F004005E
:1018500004904FF400700090022001900320039048
:1018600069462846FFF724F92815CDE900046946A2
:1018700028460294FFF71CF905B030BD003801403E
:1018800000100240000801402DE9F843044690F89A
:101890003D001F4616460D4620284CD1C5B1BEB1AD
:1018A00094F83C00012846D0012084F83C004FF019
:1018B0000008C4F84080212084F83D00FFF7F6F9C5
:1018C000A6848146E684A068B0F5805F03D004E07A
:1018D0000120BDE8F883206928B12E465FF000059D
:1018E00084F83C800EE00026FAE78021204600F0D4
:1018F00051FAA0B9AEB116F8010B21684860E08C2E
:10190000401EE084E08C4B464FF000020097002818
:10191000EBD14FF04001204600F03CFA30B10320FB
:10192000D7E735F8020BC0F30800E6E7202084F87B
:101930003D000020CDE70220CBE7FEE73EB50024C6
:1019400011480094019402940E49846001600125BD
:101950000573047505614FF460214460C161FEF7B1
:1019600029FE08B1FEF736FD0820CDE900056946DD
:1019700002940548FEF79CFD002801D0FEF72AFDE1
:101980003EBD000000240140DC010020054808B5F0
:10199000416941F001014161406900F0010000909E
:1019A00008BD00000010024010B596B01C2211497D
:1019B0006846FEF703FC0021684600F04AFB0E4C27
:1019C0000C491C2220601C3107A8FEF7F7FB002100
:1019D00007A800F03EFB074960601C2238310EA8C2
:1019E000FEF7ECFB00210EA800F033FBA06016B060
:1019F00010BD00002C2B00080800002030B585B079
:101A0000002418480094019402940394816941F0E1
:101A100020018161816901F020010491816941F017
:101A200004018161816901F004010491816941F03F
:101A30000801816180690C4D00F0080004900022CB
:101A400008212846FFF72CF9082000900120CDE955
:101A500001040220039069462846FFF729F805B0E3
:101A600030BD000000100240000C0140094810B5D4
:101A7000074901600321416040F6FF718160FFF773
:101A80001BF9002803D0BDE81040FEF7A3BC10BD31
:101A900000300040500200200C4810B50A49016097
:101AA0004FF4E1314160002181600C22C160C0E946
:101AB00004128161C161FFF77EFE002803D0BDE8FA
:101AC0001040FEF787BC10BD003801405C020020CA
:101AD000FEE7FEE7012000F0AFFAFBE700240A4D25
:101AE0004FF4FA760948FFF714F908212846FFF762
:101AF000CFF82146601C84B205A000F07FF9304683
:101B000000F09AFAEEE70000000C014050020020BD
:101B1000636E74203D202564200D0A00114C124E86
:101B2000124D4FF4FA77218811A000F067F961880F
:101B300015A000F063F9208840F6E4414843010B0A
:101B40003180608840F6E4425043000B288014A0A6
:101B500000F054F9298812A000F050F9384600F03E
:101B60006BFAE0E7040000200000002002000020E3
:101B7000414443312052656164696E67203A2025F3
:101B800064200D0A00000000414443322052656188
:101B900064696E67203A202564200D0A0000000069
:101BA000B5E7D1B9A3BA252E3464206D56200D0AAD
:101BB0002020000010B5502080F31188BFF34F8F14
:101BC000BFF36F8F00F0E4FE18B104494FF080506E
:101BD0000860002080F3118810BD000004ED00E0D3
:101BE00030B593B028216846FEF701FB14210AA8FE
:101BF000FEF7FDFA00250F950920012110950090B0
:101C0000119512954FF4803004910691CDE90105AC
:101C10000224CDE907404FF4E01009906846FFF731
:101C20001DFB08B172B6FEE70AA90F2081E831005A
:101C30004FF48060CDE90D0502210AA8FFF702FAF2
:101C400008B172B6FEE74FF4004011900F940FA850
:101C5000FFF782F9002801D072B6FEE713B030BD5D
:101C6000704700000148FFF7E6BC0000A00200201A
:101C7000F0B50268164B174C174D4FF0804798424D
:101C800005D0B84203D0A04201D0A84203D122F02F
:101C900070064A683243984205D0B84203D0A04249
:101CA00001D0A84203D122F44074CA6822434C698F
:101CB00022F08002224302608A68C2620A6882625D
:101CC000984201D10969016301214161F0BD000021
:101CD000002C0140000400400008004070B504469C
:101CE00000680169E26821F44051114301612169F2
:101CF000A0680843616908432168CA6841F20C631F
:101D00009A430243CA6020684169A26921F4407184
:101D1000114341611E492068884202D1FFF758FAF9
:101D200001E0FFF745FA00EBC00101EB001260682B
:101D300064218000B2FBF0F3B3FBF1F36FF01806FF
:101D40007343B2FBF0F5B2FBF0F605EB83053223EB
:101D500003EB0515B5FBF1F5B6FBF1F605F0F00563
:101D600005EB0615B2FBF0F6B2FBF0F0B0FBF1F0BC
:101D70006FF01802504306EB800003EB0010B0FB3D
:101D8000F1F0216800F00F002844886070BD000069
:101D9000003801402DE9F041984617460E460446AA
:101DA000069D1DE0681C1BD02DB1FEF77FFFA0EB48
:101DB0000800A84214D92068C16821F4D071C1601C
:101DC0002068416921F001014161202084F83D0033
:101DD00084F83E00002084F83C000320BDE8F08138
:101DE0002068006836EA000004D00020B842D9D04C
:101DF0000020F3E70120F9E7FEE700000FB4054BF0
:101E000010B503A9044A029800F028F810BC5DF848
:101E100014FB0000B11F0008840000200907090E10
:101E2000002804DB00F1E02080F80014704700F087
:101E30000F0000F1E02080F8141D704702E008C890
:101E4000121F08C1002AFAD170477047002001E034
:101E500001C1121F002AFBD1704700002DE9FF4F7E
:101E600089B09B460446002506E025280BD05A463B
:101E70000B999047641C6D1C20780028F5D10DB09B
:101E80002846BDE8F08F0027B8460122474900E008
:101E9000074314F8013F203B02FA03F00842F7D150
:101EA00020782E2819D114F8010F47F004072A28AA
:101EB0000ED06FF02F022078A0F1300109290CD844
:101EC00008EB880102EB410100EB0108641CF2E71A
:101ED0000A98641C50F8048B0A9020780028CED011
:101EE000642808D0692806D075281ED05A460B9958
:101EF00090476D1C58E00A994FF00A0901C90A91F0
:101F0000002802DA40422D2102E0390504D52B21B8
:101F10008DF82010012103E0F90704D02021F7E714
:101F20008A4608AE0DE00021FAE70A994FF00A0947
:101F300001C90A91F7E74946FEF764F9303106F81E
:101F4000011D0028F7D1ADEB060000F1200978074C
:101F500001D44FF00108C84502DDA8EB090000E0FC
:101F600000208046002706E008A85A46C05D0B996D
:101F700090476D1C7F1C5745F6DB04E030205A4625
:101F80000B9990476D1CB8F10001A8F10108F5DC30
:101F900005E016F8010B5A460B9990476D1CB9F1F4
:101FA0000001A9F10109F4DC641C65E709280100BE
:101FB00013B54FF6FF73012269460248FFF764FC30
:101FC00000981CBD5C020020FEF7B2FEFFF708FE81
:101FD000FFF714FDFFF74AFDFFF7D8FCFFF7AEFC53
:101FE000FFF75AFD09A0FFF709FF0B48FEF7F4F9C8
:101FF0000AA0FFF703FF02220B490748FEF7C2FBC6
:10200000FFF7D2FC00F020F8FEE70000696E69746B
:1020100031206F6B200D0A00DC010020696E6974AD
:1020200032206F6B200D0A0004000020002184285C
:1020300000D0C11C0846704710B5002800D101200F
:1020400000F042FB002010BD10B500F065FB002041
:1020500010BD30B585B004460D466169B4F908007D
:10206000002910D0A16971B1FFF7E0FF6269A16991
:102070000192029100902B4622692168606800F06D
:1020800057FC049010E0FFF7D1FF04A901910090E4
:10209000208A2B4682B22168606800F013FC012878
:1020A00002D005B0002030BD049805B030BD00005E
:1020B0002DE9F04104460F46194E75693068001D40
:1020C00000F038FA48B93068012190F82C0001FA84
:1020D00000F0B16921EA0000B061B4F1FF3F07D11F
:1020E00037B13068BDE8F041011D0E4800F069BA13
:1020F0002C4430684460AC4206D23068011DB068A0
:10210000BDE8F04100F042BA3068011D706800F08F
:102110003DFA306B844200D23463BDE8F0810000A8
:1021200024000020C403002070B5044600F056FAD5
:102130001C4D2869401C2861286810B1E86938B135
:102140000CE02C602869012808D100F0E7F805E0D0
:102150002868E16AC06A884200D82C60E86A401C9E
:10216000E862E06A0121AA6981401143A9610E4930
:1021700000EB800001EB8000211D00F022FA00F04E
:102180004DFAE86900280CD02868E16AC06A8842E4
:1021900007D206494FF080500860BFF34F8FBFF35E
:1021A0006F8F70BD24000020E802002004ED00E0E5
:1021B00070B50D4CE068002815D00C4E00F00EFAFA
:1021C000F068C568281D00F0B5F92069401E20613F
:1021D000E068401EE06000F021FA284600F008F8B0
:1021E000E0680028EAD170BD24000020B003002080
:1021F00010B5044694F8511000290BD0012911D0D4
:10220000022914D0502080F31188BFF34F8FBFF301
:102210006F8FFEE7206B00F017FA2046BDE81040F4
:1022200000F012BA2046BDE8104000F00DBA10BD13
:102230004FF44061104810F0070F06D0C01D20F089
:1022400007000D49411AC1F540610C4A1060002396
:1022500053600144083921F00701103A11604B60C6
:102260000B600B1A436001604068906050604FF053
:102270000040D06070470000D803002070000020AC
:10228000074E4FF08054074DFFF792FF306801284A
:10229000FAD92C60BFF34F8FBFF36F8FF4E70000C4
:1022A000E802002004ED00E02DE9F0478146099E98
:1022B000089D0A9C9A46521E206B00EB820020F07B
:1022C00007080027002023180A5C83F834200A5CE2
:1022D00012B1401C1028F6D384F84370072D00D3A8
:1022E0000625E5626564A764201D00F04CF904F141
:1022F000180000F048F92461C5F10700A06164628C
:10230000E76484F8507052464946404600F000F9B0
:102310002060002E00D03460BDE8F08770B5002446
:102320000F4D04EB840005EB800000F021F9641CE4
:10233000072CF6D30B4800F01BF90B4800F018F9F6
:102340000A4800F015F90A4800F012F9094800F0AF
:102350000FF90948034941601431816070BD0000E4
:10236000E802002074030020880300209C03002062
:10237000B0030020C40300202400002010B414493E
:1023800000E011460A688242FBD34B6803EB010C64
:10239000844503D140681844486008460C68D0F86A
:1023A00004C00CEB0003A3420CD10A4B1B689A42F9
:1023B00006D05268624442600A681268026002E015
:1023C000036000E00260814200D0086010BC7047EA
:1023D000700000206000002007494868006800285D
:1023E00005D04868C068C0684068086370474FF00F
:1023F000FF30086370470000240000200A4840684E
:10240000B0F1FF3F07D0502080F31188BFF34F8F0A
:10241000BFF36F8FFEE7502080F31188BFF34F8F1B
:10242000BFF36F8FFEE70000780000202DE9F04138
:102430000546002600F0B4F9334F386808B9FFF7B5
:10244000F7FEF86805424ED19DB1083515F0070F2B
:102450000FD005F00700C0F10800054415F0070F84
:1024600007D0502080F31188BFF34F8FBFF36F8FD9
:10247000FEE7002D37D07868854234D823490846D6
:10248000046801E0214604466068A84202D2206840
:102490000028F7D13868844225D0086800F1080682
:1024A000206808606068411B10290FD9601910F07E
:1024B000070F07D0502080F31188BFF34F8FBFF371
:1024C0006F8FFEE741606560FFF758FF61687868CD
:1024D000401A7860BA68904200D2B860F868084341
:1024E00060600020206000F0BBFA16F0070F07D0F4
:1024F000502080F31188BFF34F8FBFF36F8FFEE73B
:102500003046BDE8F081000060000020700000202F
:10251000001F4FF080730360001F21F00101016074
:10252000001F034901601438026020387047000022
:10253000FD2300080169436882689A6083684268E5
:102540005A604A68824201D182684A600022026170
:102550000868401E0860086870470000034B03606D
:1025600003F154000860402010607047880000208C
:1025700000F1080141604FF0FF328260C1600161EB
:1025800000210160704700210161704710B4D1F84B
:1025900000C0BCF1FF3F02D000F1080202E0026976
:1025A00004E01A4653681C686445FAD953684B60C6
:1025B00099608A60516008610168491C016010BC23
:1025C000704742684A6093688B6093685960916075
:1025D00008610168491C016070470000502080F3C9
:1025E0001188BFF34F8FBFF36F8F0A494868401CB3
:1025F000486001280CD10848006810F0FF0F07D090
:10260000502080F31188BFF34F8FBFF36F8FFEE729
:10261000704700007800002004ED00E00949486898
:10262000002806D0401E4860002801D180F31188A0
:102630007047502080F31188BFF34F8FBFF36F8F27
:10264000FEE700007800002070B5002827D0A0F138
:102650000804134D6068E968084207D1502080F3F0
:102660001188BFF34F8FBFF36F8FFEE722683AB137
:10267000502080F31188BFF34F8FBFF36F8FFEE7B9
:102680008843606000F08CF860686968084468609E
:102690002046FFF773FEBDE8704000F0E1B970BD61
:1026A000600000204FF0E0200021016181610549B8
:1026B0004FF47A720968B1FBF2F1491E41610721BA
:1026C000016170472000002010B502460020002A5A
:1026D00012D00F48806B38B1502080F31188BFF3BF
:1026E0004F8FBFF36F8FFEE700F05AF800211046BE
:1026F000FFF7DEFC00F0B4F9002807D105494FF0E0
:1027000080500860BFF34F8FBFF36F8F10BD000084
:102710002400002004ED00E010B586B000240594EC
:10272000049403AA04A905A8FFF718FF05980499C3
:10273000019102900023009415A11748039A00F01C
:10274000F7F81649486308B1012000E0002001288D
:102750000AD0B0F1FF3F19D1502080F31188BFF3A8
:102760004F8FBFF36F8FFEE7502080F31188BFF3C8
:102770004F8FBFF36F8F4FF0FF3008630120C861A8
:102780004C6106B0BDE8104000F042B806B010BD84
:1027900049444C450000000081220008240000202C
:1027A0000248816B491C81637047000024000020AF
:1027B000154A906B002802D001205062704700201B
:1027C00050629069B0FA80F0C0F11F000F4900EB31
:1027D000800051F8203073B101EB800041684968F6
:1027E000416000F10803994201D1496841604068A5
:1027F000C06810607047502080F31188BFF34F8F7E
:10280000BFF36F8FFEE7000024000020E8020020E5
:1028100000B583B0284908780290FF200870087836
:1028200001909DF804009DF8042000F0F000904213
:1028300007D0502080F31188BFF34F8FBFF36F8F05
:10284000FEE79DF804001D4B00F0500018700720B3
:1028500098609DF8040010F0800F0BD09868401E1F
:1028600098609DF80400400001909DF8040010F06D
:10287000800FF3D19868032807D0502080F3118887
:10288000BFF34F8FBFF36F8FFEE74FF44070986038
:10289000029808700A48016841F4700101600168FB
:1028A00041F070410160FFF7FDFE00205860FDF728
:1028B00039FC03B0002000BD00E400E078000020F7
:1028C00020ED00E02DE9F04F85B081460F9F0E9E70
:1028D0008A4690469B464FEA8800FFF7A7FD0546CB
:1028E00028000AD05420FFF7A1FD04460CB125634F
:1028F00004E02846FFF7A8FE00E000249CB1002079
:1029000084F8510003905B46424651460197009679
:1029100002944846FFF7C8FC2046FFF705FC05B0C7
:102920000120BDE8F08F05B04FF0FF30BDE8F08F1B
:1029300070B586B00646DDF828C00C9C0B980028C0
:1029400016D0ECB1542504952063022084F8510080
:10295000002005AD0390CDF800C0019502943046EB
:10296000FFF7A2FC2046FFF7DFFB059806B070BD1D
:10297000502080F31188BFF34F8FBFF36F8FFEE7B6
:10298000502080F31188BFF34F8FBFF36F8FFEE7A6
:102990002DE9F0470026304FB86B002808D0386A80
:1029A000401C3862786A00B101263046BDE8F087E5
:1029B0007869451C7D619DB97868006838B1502000
:1029C00080F31188BFF34F8FBFF36F8FFEE77868F6
:1029D000B9687960B860B86A401CB862FFF7FCFC5F
:1029E000386BDFF8788085420FD34FF001097868A3
:1029F000006838B17868C068C468606885420ED2E3
:102A0000386302E04FF0FF3038633868C06A00EB8B
:102A1000800058F820000128C4D90126C2E7201DF3
:102A2000FFF788FDA06A18B104F11800FFF782FDD6
:102A3000E16ABA6909FA01F01043B86101EB81005B
:102A400008EB8000211DFFF7BCFDE06A3968C96A08
:102A50008842CCD30126CAE724000020E8020020E7
:102A60002DE9F0470024A0462D4DA86B002807D083
:102A7000FFF7B4FDA86B401EA863A86B40B149E006
:102A8000502080F31188BFF34F8FBFF36F8FFEE7A5
:102A9000286900283ED0234F3868012600B3A7F1EB
:102AA000B409F868C46804F11800FFF743FD201D5D
:102AB000FFF740FDE06AAA6906FA00F11143A96137
:102AC00000EB800009EB8000211DFFF77AFDE06A32
:102AD0002968C96A884200D36E6238680028E0D14C
:102AE0000CB1FFF779FC2C6A44B1FFF751FF00B13C
:102AF0006E62641E002CF8D100202862686A48B11A
:102B00004FF0010808494FF080500860BFF34F8F25
:102B1000BFF36F8FFFF782FD4046BDE8F0870000EE
:102B2000240000209C03002004ED00E0B02B0008EE
:102B3000D51A00080000000000000000800000001E
:102B40000000000000000000982B0008DD1A0008BB
:102B50000300000000000000400000000000000032
:102B600000000000A42B00081D1B0008020000004C
:102B70000000000040000000000000000000000015
:102B8000000000000000000001020304060708091D
:102B900000000000010203046D795461736B303250
:102BA000000000006D795461736B30330000000049
:102BB00064656661756C745461736B00DC2B00088E
:102BC00000000020880000003C1E0008642C000863
:102BD00088000020501300004C1E00080000000078
:102BE00000000000000000000000000000000000E5
:102BF0000100000010000000000000000024F400AC
:102C000000000000000000000000000000000000C4
:102C100000000000000000000000000000000000B4
:102C200000000000000000000000000000000000A4
:102C30000000000000000000000000000000000094
:102C40000000000000000000000000000000000084
:102C50000000000000000000AAAAAAAA00000000CC
:042C60000000000070
:04000005080000ED02
:00000001FF
